:100000000C940F040C9440040C9440040C94400491
:100010000C9440040C9440040C9440040C94400450
:100020000C9440040C9440040C9440040C94400440
:100030000C9440040C9440040C9440040C94400430
:100040000C9440040C9440040C9440040C94400420
:100050000C9440040C9401140C9440040C9467120A
:100060000C9440040C94D7130C94AD130C944004DE
:100070000C9440040C9440040C9440040C944004F0
:100080000C9440040C9440040C9440040C944004E0
:100090000C9483130C9459130C9440040C942F1457
:1000A0000C9440040C9440040C9440040C944004C0
:1000B0000C9440040C9440040C9440040C944004B0
:1000C0000C9440040C9440040C9440040C942F13A2
:1000D0000C9405130C9440040C94DB120C94B11294
:1000E0000C944004084AD73B3BCE016E84BCBFFD54
:1000F000C12F3D6C74319ABD56833DDA3D00C77FF8
:1001000011BED9E4BB4C3E916BAAAABE0000008090
:100110003F0664EC1B3C04BC163E3BE5B93CC93CC5
:1001200037C29E5A3D660498083EEA69AAAA3E0074
:100130000000803F0C943E090C943F090C94531529
:100140000C945B090C944A0A0C945A0C0C94820B84
:100150000C94040C0C94790A0C94420A0C94380AFE
:100160000C94460A0C94980D0C94780A0C94F60B97
:100170000C94570A0C9485100C947B0B0C94C106BC
:100180000C94530A0C94A70C0C946F0A0C94050958
:100190000C947D0A0C946B0A0C94840B0C94650AE5
:1001A0000C94CC080C94830B0C94860B0C944D0A85
:1001B0000C94610A0C9429100C943E0A0C94930739
:1001C0000C94D30B0C946E090C94F2070C945610FB
:1001D0000C94730A0C9407100C94E20B0C946709AE
:1001E0000C94EC0C0C9487080C945D0A0C9416107B
:1001F0000C944F090C9486040C94201200002000EB
:100200002300260029002C002F00320000010000EE
:1002100003010601090100002200250028002B002F
:100220002E003100340002010000050108010B011D
:1002300000000A0B02090C0D0E0807030401000060
:1002400000000000000000000000000000000000AE
:10025000000000000000000000000000121110006B
:10026000000000000000000000000000000000008E
:1002700000000000000000000000003E5B4F5B3EFD
:100280003E6B4F6B3E1C3E7C3E1C183C7E3C181C5B
:10029000577D571C1C5E7F5E1C00183C1800FFE752
:1002A000C3E7FF0018241800FFE7DBE7FF30483AF8
:1002B000060E2629792926407F050507407F05255A
:1002C0003F5A3CE73C5A7F3E1C1C08081C1C3E7FE2
:1002D00014227F22145F5F005F5F06097F017F00A9
:1002E0006689956A606060606094A2FFA2940804C9
:1002F0007E040810207E201008082A1C08081C2AEA
:1003000008081E101010100C1E0C1E0C30383E3841
:1003100030060E3E0E06000000000000005F0000E8
:100320000007000700147F147F14242A7F2A122359
:100330001308646236495620500008070300001C69
:100340002241000041221C002A1C7F1C2A08083E72
:100350000808008070300008080808080000606085
:100360000020100804023E5149453E00427F4000F3
:1003700072494949462141494D331814127F1027CB
:10038000454545393C4A494931412111090736491A
:10039000494936464949291E0000140000004034EE
:1003A00000000008142241141414141400412214F3
:1003B0000802015909063E415D594E7C1211127C1A
:1003C0007F494949363E414141227F4141413E7F7B
:1003D000494949417F090909013E414151737F085B
:1003E00008087F00417F41002040413F017F081401
:1003F00022417F404040407F021C027F7F04081062
:100400007F3E4141413E7F090909063E4151215E3F
:100410007F09192946264949493203017F01033FD3
:100420004040403F1F2040201F3F4038403F631462
:1004300008146303047804036159494D43007F4164
:1004400041410204081020004141417F04020102A1
:1004500004404040404000030708002054547840C6
:100460007F284444383844444428384444287F385A
:100470005454541800087E090218A4A49C787F08DC
:1004800004047800447D40002040403D007F102857
:10049000440000417F40007C047804787C08040418
:1004A000783844444438FC1824241818242418FCB0
:1004B0007C08040408485454542404043F44243C55
:1004C0004040207C1C2040201C3C4030403C4428C4
:1004D0001028444C9090907C4464544C440008365E
:1004E00041000000770000004136080002010204CC
:1004F000023C2623263C1EA1A161123A4040207AEC
:100500003854545559215555794122545478422133
:100510005554784020545579400C1E52721239556A
:100520005555593954545459395554545800004567
:100530007C410002457D420001457C407D12111244
:100540007DF0282528F07C545545002054547C54D7
:100550007C0A097F4932494949323A4444443A3293
:100560004A4848303A4141217A3A42402078009D39
:10057000A0A07D3D4242423D3D4040403D3C24FFE5
:100580002424487E4943662B2FFC2F2BFF0929F694
:1005900020C0887E090320545479410000447D41E5
:1005A0003048484A32384040227A007A0A0A727D3E
:1005B0000D19317D2629292F282629292926304859
:1005C0004D4020380808080808080808382F10C8C7
:1005D000ACBA2F102834FA00007B000008142A144B
:1005E0002222142A14085500550055AA55AA55AAC6
:1005F000FF55FF55FF000000FF00101010FF001412
:100600001414FF001010FF00FF1010F010F014146D
:1006100014FC001414F700FF0000FF00FF1414F492
:1006200004FC141417101F10101F101F1414141F93
:1006300000101010F0000000001F101010101F100C
:10064000101010F010000000FF101010101010100B
:100650001010FF10000000FF140000FF00FF00005A
:100660001F10170000FC04F414141710171414F4CE
:1006700004F40000FF00F714141414141414F70009
:10068000F7141414171410101F101F141414F4145A
:100690001010F010F000001F101F0000001F1400C9
:1006A0000000FC140000F010F01010FF10FF1414F4
:1006B00014FF141010101F00000000F010FFFFFFC7
:1006C000FFFFF0F0F0F0F0FFFFFF0000000000FF80
:1006D000FF0F0F0F0F0F3844443844FC4A4A4A3486
:1006E0007E02020606027E027E026355494163389D
:1006F00044443C04407E201E2006027E020299A54E
:10070000E7A5991C2A492A1C4C7201724C304A4DAB
:100710004D303048784830BC625A463D3E494949E0
:10072000007E0101017E2A2A2A2A2A44445F444489
:1007300040514A444040444A51400000FF0103E018
:1007400080FF000008086B6B083612362436060F4F
:10075000090F06000018180000001010003040FFBC
:100760000101001F01011E00191D1712003C3C3C35
:100770003C000000000000002100240027002A00A7
:100780002D003000330001010000040107010A01BF
:100790000102102020080810204010204080020193
:1007A0000201080402010102040810204080804078
:1007B0002010080402018004020180402010080477
:1007C0000201080402010102040810204080010215
:1007D00004081020408005050505070508080808DD
:1007E000020202020A0A08080404040401010101C9
:1007F00001010101030303030303030304070707C4
:100800000C0C0C0C0C0C0C0C020202020606060668
:10081000060606060B0B0B0B0B0B0B0B53151124CB
:100820001FBECFEFD1E2DEBFCDBF00E00CBF12E0B4
:10083000A0E0B2E0E0EEFEE400E00BBF02C00790F3
:100840000D92A439B107D9F726E0A4E9B2E001C0BE
:100850001D92A93AB207E1F714E0CFE0D4E000E03E
:1008600006C021970109802FFE010E945B22CE3035
:10087000D10780E00807A9F70E9422170C946E2781
:100880000C940000CF93DF93EC019A01AB01E8894F
:10089000F98982E08083211581EE380741055105F1
:1008A00081F160E079E08DE390E00E940E2221501A
:1008B0003109410951095695479537952795EC859A
:1008C000FD851082EE85FF852083188EEC89FD89D9
:1008D00086E08083EA89FB89808180618083EA8960
:1008E000FB89808188608083EA89FB8980818068B8
:1008F0008083EA89FB8980818F7D8083DF91CF911E
:100900000895E889F989108220E1D9CF0895FC0182
:100910006370668B8481958126813781613039F0DF
:10092000633029F091878087338722870895318744
:1009300020879387828708952F923F924F925F92EC
:100940006F927F928F929F92AF92BF92CF92DF92DF
:10095000EF92FF920F931F93CF93DF93CDB7DEB744
:100960006A970FB6F894DEBF0FBECDBF9A8F898FFE
:100970007A8369834A01D22E18870F833701BC2CF2
:10098000DC0159962D913C915A972115310509F0BA
:1009900015C118968D919C911997681779070CF0DD
:1009A000D7C11A968D919C91481759070CF0D0C168
:1009B0004C2C512CB6E0CB9E600D711D11247C8710
:1009C0006B87161617060CF0C3C1EA2DF0E0FA8704
:1009D000E98793E0EE0FFF1F9A95E1F7F88BEF8719
:1009E000CF01840F951F181619060CF0B1C1A98DFF
:1009F000BA8D58968C91811104C0BFEABD1508F4D8
:100A0000D394A98DBA8DED91FC9111970284F38551
:100A1000E02DCD011995B5E0DB9EC0011124E981DF
:100A2000FA81FC83EB83312C212C9C012A583D4F09
:100A3000388F2F8B4A2D50E05E8B4D8BEF89F88DD0
:100A4000E20DF31D44919E828D82D12CC12C6981CF
:100A50007A81620D731D7A8B698B842F90E09C8B59
:100A60008B8BE98DFA8DA081B18140FF82C0F1E0CE
:100A7000BF126FC0AF126DC01C96ED91FC912F811B
:100A80003885A4014C0D5D1D69897A89898D9A8DFF
:100A90001995EB89FC89F595E7954E2F5FEFC51AFF
:100AA000D50A6D817E818D899E89680F791F7E832D
:100AB0006D8398E0C916D10481F6AFEF2A1A3A0A7D
:100AC000EB81FC81E40DF51DFC83EB83F5E02F1633
:100AD000310409F0B3CF2F81388526153705B9F0D9
:100AE000A98DBA8DED91FC91B1E0BB1257C0AB124C
:100AF00055C069817A816B5F7F4F0088F189E02D55
:100B0000830128E030E0A401898D9A8D1995A98D83
:100B1000BA8DED91FC9111970688F789E02DCD01F2
:100B20006A960FB6F894DEBF0FBECDBFDF91CF91AE
:100B30001F910F91FF90EF90DF90CF90BF90AF90FB
:100B40009F908F907F906F905F904F903F902F90ED
:100B500019941E96ED91FC91EF80F88409851A8511
:100B600092014D815E816B817C81898D9A8D199571
:100B700090CF2F8138852615370509F48ACF31E0CB
:100B8000B31207C0A31205C01C96ED91FC9193010E
:100B900078CF1E96ED91FC917301E0CF6B857C853B
:100BA000641975090684F785E02D73010F8518898E
:100BB0009201A401898D9A8D1995A9CFF9013496D6
:100BC0009491329745915491D91AB7E0DB9E400D2C
:100BD000511D1124F901259134913C8B2B8BFA0185
:100BE00025903490FA013296749031963491398B75
:100BF000329664903196449041E04C1518F04A15B5
:100C000008F07FC0662D062C000C770B7C836B836D
:100C1000842D042C000C990B9E838D83A98DBA8D95
:100C2000ED91FC9111970284F385E02DCD0119958A
:100C3000512CD12CC12CEA2DF0E0FA87E9872B2D1D
:100C400030E03C872B87A401440D511D47FC5A9589
:100C5000588F4F8B69817A81660D711D67FC7A957B
:100C60007E876D877989C71608F051CF2C2D30E02B
:100C70004D815E81420F531FA985BA854A9FC001ED
:100C80004B9F900D5A9F900D1124FC01E80DF91D0A
:100C9000F88BEF87852D612C4F89588D420F531F9C
:100CA0005E8B4D8B671408F050C044244394480E6B
:100CB000877041F4C1010196EB89FC89E20DF31DB7
:100CC000D4901C01D7FE19C0A98DBA8DED91FC916D
:100CD000662D70E0B1E0BB1219C0AB1217C02D85B4
:100CE0003E85620F731F0484F585E02D2F813885C2
:100CF0004D895E89898D9A8D1995DD0C6394842DBB
:100D0000D1CF1E821D821C821B8288CF4B815C81C9
:100D1000640F751FAB85BC856A9FC0016B9F900DEA
:100D20007A9F900D112469817A81680F791F06845A
:100D3000F785E02DEF80F88409851A859D014F85A0
:100D40005889898D9A8D1995D8CF570CC3948ACF1D
:100D50006A960FB6F894DEBF0FBECDBFDF91CF917C
:100D60001F910F91FF90EF90DF90CF90BF90AF90C9
:100D70009F908F907F906F905F904F903F902F90BB
:100D800008958F929F92AF92CF92EF92FF920F931E
:100D90001F93CF93DF93EC01262F898D9A8D0097B7
:100DA00009F051C06A30D1F41D861C868D8948E057
:100DB000849F900111248E859F85820F931F9F87AA
:100DC0008E8781E090E0DF91CF911F910F91FF908E
:100DD000EF90CF90AF909F908F9008956D3089F3F2
:100DE000CC88AD888F898823C1F08C859D8536E0BD
:100DF000C39E800D911D11244885598548175907B8
:100E000064F44E855F851D861C8638E0A39EC00174
:100E10001124840F951F9F878E87EA88FB88088995
:100E200019894E855F856C857D85CE010E949C0465
:100E30002C898C859D8546E0249F800D911D112471
:100E40009D878C87BECF6A3069F41D861C86FC01A5
:100E50003896E4912D898E859F85E29F800D911DA6
:100E60001124ADCF6D3009F4ACCFFC013496349130
:100E7000631708F4A6CF3296E491E61708F4A1CFE1
:100E8000FC01329685909490462F431B342F47E007
:100E9000349F800C911C1124F401329634913196C8
:100EA000E4913323A9F1EE2399F1CC88F40135962E
:100EB000E491AD884F89442301F10E2E000CFF0B05
:100EC000E30FF11DCE9EA001CF9E500D11246C8525
:100ED0007D85460F571F68857985641775076CF403
:100EE0004E855F851D861C86FC013896E491AE9E7A
:100EF000400D511D11245F874E87EA88FB880889C1
:100F000019894E855F856C857D85CE010E949C0484
:100F1000F4013496E4912C898C859D85E29F800DA7
:100F2000911D11248DCF6F927F928F929F92AF92DD
:100F3000BF92CF92DF92EF92FF920F931F93CF93C6
:100F4000DF93EC016B015A0139014801E881F98115
:100F50000284F385E02D1995E881F9810288F389EF
:100F6000E02D87019301A501B601CE011995A501D8
:100F7000480D591D41505109E881F9810288F389D2
:100F8000E02D9301B601CE011995E881F981008821
:100F9000F189E02D9401A501B601CE011995C60C89
:100FA000D71CB60161507109E881F9810088F18987
:100FB000E02D9401A501CE011995E881F9810688FB
:100FC000F789E02DCE01DF91CF911F910F91FF9016
:100FD000EF90DF90CF90BF90AF909F908F907F90D9
:100FE0006F9019946F927F928F929F92AF92BF925F
:100FF000CF92DF92EF92FF920F931F93CF93DF93E5
:101000005C01EB016A01490138018701DC01ED91C6
:10101000FC916217730719F5641675062CF0962D6E
:10102000872D3A01C92ED82E9601261937092F5F30
:101030003F4F048CF58DE02DA301BE01C50119952C
:10104000DF91CF911F910F91FF90EF90DF90CF90A4
:10105000BF90AF909F908F907F906F9008954615AE
:10106000570591F42617370724F0892D4B01C22F1D
:10107000D82F9E01281939092F5F3F4F068CF78D15
:10108000E02DA601B401DACF0284F385E02D199595
:10109000D501ED91FC910488F589E02D830194013F
:1010A000A601BE01C5011995D501ED91FC910688F7
:1010B000F789E02DC501DF91CF911F910F91FF902E
:1010C000EF90DF90CF90BF90AF909F908F907F90E8
:1010D0006F901994EF92FF920F931F93DC011A9671
:1010E0000D911C911B9718962D913C911997ED919C
:1010F000FC9100A0F1A1E02D7B0150E040E070E008
:1011000060E019951F910F91FF90EF9008954F9215
:101110005F926F927F928F929F92AF92BF92CF9287
:10112000DF92EF92FF920F931F93CF93DF936C01A7
:101130002B015A0139014801DC01ED91FC91028437
:10114000F385E02D1995E201640C751CD601ED9133
:10115000FC91C615D7055CF40088F189E02D870164
:101160009401A501BE01C60119952196EFCF06880D
:10117000F789E02DC601DF91CF911F910F91FF906C
:10118000EF90DF90CF90BF90AF909F908F907F9027
:101190006F905F904F9019948F929F92AF92BF92F1
:1011A000CF92DF92EF92FF920F931F93CF93DF9333
:1011B000EC015B014A016901E881F9810284F38550
:1011C000E02D199595012C0D3D1D21503109E88127
:1011D000F9810488F589E02D78018401A401B50125
:1011E000CE011995E881F9810688F789E02DCE01B5
:1011F000DF91CF911F910F91FF90EF90DF90CF90F3
:10120000BF90AF909F908F9019948F929F92AF92C2
:10121000BF92CF92DF92EF92FF920F931F93CF93E3
:10122000DF93EC015B014A0169017801E881F981F2
:101230000284F385E02D1995C80CD91C8601015054
:101240001109E881F9810488F589E02D9501A4014F
:10125000B501CE011995E881F9810688F789E02D5D
:10126000CE01DF91CF911F910F91FF90EF90DF9012
:10127000CF90BF90AF909F908F9019940895EF9268
:10128000FF920F931F93DC01ED91FC9100A0F1A15F
:10129000E02D19951F910F91FF90EF9008950F93F6
:1012A0001F93DC01ED91FC91068CF78DE02D1995D3
:1012B0001F910F9108950F931F93DC01ED91FC9105
:1012C000048CF58DE02D19951F910F910895DC0187
:1012D000ED91FC910084F185E02D19942F923F92BD
:1012E0004F925F926F927F928F929F92AF92BF9236
:1012F000CF92DF92EF92FF920F931F93CF93DF93E2
:1013000000D000D0CDB7DEB73C016A013E832D830B
:10131000FC82EB825801A41AB50AB7FE03C0B1944F
:10132000A194B1088D809E80861A970A97FE03C00B
:101330009194819491088A149B045CF0902F812FE2
:101340000D811E819D838E839C2D8D2D6B01692FB8
:10135000782F0C151D055CF09D818E817E836D8339
:10136000692F782F902F812F8601C92ED82E160134
:10137000201A310A2B012D813E81421A530A57FE51
:1013800003C0519441945108710137FE03C03FEFEF
:10139000E31AF30AF594E7948D819E8186179707E7
:1013A0005CF5A1E0B0E0BA83A983C016D1064CF188
:1013B000D301ED91FC910484F585E02D2B813C81D6
:1013C000A8016D817E818A149B041CF04D815E8191
:1013D000B801C3011995E418F508F7FE0AC02D817C
:1013E0003E8189819A81280F391F3E832D83E20C2B
:1013F000F31C0F5F1F4FD9CF2FEF3FEF3A832983A5
:10140000D4CF26960FB6F894DEBF0FBECDBFDF91C6
:10141000CF911F910F91FF90EF90DF90CF90BF90F1
:10142000AF909F908F907F906F905F904F903F9084
:101430002F9008958150823108F05AC0E82FF0E0D3
:101440008827EA5DF54F8F4F0C945B22460A4A0AC3
:10145000380A3E0A420A780A4D0A530A570A5D0AB8
:10146000610A650A6B0A6F0A780A730A790A7D0AAB
:10147000809180008F778093800008958091800014
:101480008F7DF9CF80918000877FF5CF84B58F77EE
:1014900084BD089584B58F7DFBCF8091B0008F7798
:1014A0008093B00008958091B0008F7DF9CF809136
:1014B00090008F77809390000895809190008F7DA9
:1014C000F9CF80919000877FF5CF8091A0008F7732
:1014D0008093A00008958091A0008F7DF9CF809126
:1014E000A000877FF5CF809120018F778093200126
:1014F0000895809120018F7DF9CF80912001877F11
:10150000F5CF1F93CF93DF93282F30E0F901E05DF3
:10151000FD4F8491F901E057F84FD491F901EA5257
:10152000F84FC491CC23A9F0162F81110E941A0AFA
:10153000EC2FF0E0EE0FFF1FEA5EFD4FA591B49196
:101540008FB7F894EC91111108C0D095DE23DC938D
:101550008FBFDF91CF911F910895DE2BF8CFCF93EE
:10156000DF93C82FD62F60E080910E060E94810A7B
:101570009FEF9C0F80911106890F8850CEBD00000F
:101580000DB407FEFDCF2EB52D2FC93038F4E091F4
:101590000F06F0911006E80FF11D20812EBD00000E
:1015A0000DB407FEFDCF2EB5981738F361E080919A
:1015B0000E06DF91CF910C94810ACF93C8E060E0D2
:1015C0008C2F0E94AF0AC150D1F7CF910895CF93CD
:1015D000DF9390E0FC01E057F84F24918A52984F36
:1015E000FC0184918823D1F090E0880F991FFC01C1
:1015F000EA58F84FA591B491FC01EA5EFD4FC59100
:10160000D491623071F49FB7F8943C91822F809509
:1016100083238C93E8812E2B28839FBFDF91CF916A
:1016200008958FB7F894EC912E2B2C938FBFF6CFA3
:101630003FB7F89480916E0390916F03A09170036F
:10164000B091710326B5A89B05C02F3F19F00196F4
:10165000A11DB11D3FBFBA2FA92F982F8827BC010C
:10166000CD01620F711D811D911D42E0660F771F34
:10167000881F991F4A95D1F708958F929F92AF9234
:10168000BF92CF92DF92EF92FF924B015C010E94DA
:10169000180B6B017C010E94180B6C197D098E09D7
:1016A0009F09683E734081059105A8F321E0821AE5
:1016B0009108A108B10888EEC80E83E0D81EE11C8D
:1016C000F11C81149104A104B10429F7FF90EF905B
:1016D000DF90CF90BF90AF909F908F9008952FB7DD
:1016E000F89460916A0370916B0380916C03909100
:1016F0006D032FBF089580914F0390914E03891B76
:10170000990B0895089508950C948704AF92BF92A1
:10171000CF92DF92EF92FF920F931F93CF93DF93BD
:101720006C017B018B01040F151FEB015E01AE18EC
:10173000BF08C017D10759F06991D601ED91FC910E
:101740000190F081E02DC6011995892B79F7C5012B
:10175000DF91CF911F910F91FF90EF90DF90CF908D
:10176000BF90AF900895FB014481558160817181E4
:101770000C94860BFC01A089B1898C91A689B7894C
:1017800082FD0FC09C91818D8F5F8F73228D821798
:1017900049F0A18DAE0FBF2FB11D5D969C93818F37
:1017A00008958C910895FC01538D448D252F30E0D0
:1017B000842F90E0821B930B541710F0CF9608955E
:1017C00001970895FC01918D828D981761F0A28D8B
:1017D000AE0FBF2FB11D5D968C91928D9F5F9F7351
:1017E000928F90E008958FEF9FEF0895FC01918D07
:1017F000828D981731F0828DE80FF11D858D90E074
:1018000008958FEF9FEF0895FC01918D228D892F10
:1018100090E0805C9F4F821B91098F7399270895F8
:1018200082E793E00E94040C21E0892B09F420E078
:10183000822F08958FE094E00E94040C21E0892B10
:1018400009F420E0822F08958CEA94E00E94040CB1
:1018500021E0892B09F420E0822F089589E495E0A6
:101860000E94040C21E0892B09F420E0822F0895C6
:10187000FC01A48DA80FB92FB11DA35ABF4F2C9105
:10188000848D90E001968F739927848FA689B789FC
:101890002C93A089B1898C91837080648C93938DF3
:1018A000848D981306C00288F389E02D80818F7D96
:1018B00080830895EF92FF920F931F93CF93DF934E
:1018C000EC0181E0888F9B8D8C8D98131AC0E8897C
:1018D000F989808185FF15C09FB7F894EE89FF894B
:1018E0006083E889F98980818370806480839FBFE9
:1018F00081E090E0DF91CF911F910F91FF90EF90E9
:101900000895F62E0B8D10E00F5F1F4F0F731127F8
:10191000E02E8C8D8E110CC00FB607FCFACFE88933
:10192000F989808185FFF5CFCE010E94380CF1CF77
:10193000EB8DEC0FFD2FF11DE35AFF4FF0829FB7A7
:10194000F8940B8FEA89FB8980818062CFCFCF9397
:10195000DF93EC01888D8823B9F0AA89BB89E889D7
:10196000F9898C9185FD03C0808186FD0DC00FB67D
:1019700007FCF7CF8C9185FFF2CF808185FFEDCFFB
:10198000CE010E94380CE9CFDF91CF91089580E01D
:1019900090E0892B29F00E942E0C81110E940000FA
:1019A00080E090E0892B29F00E94240C81110E9494
:1019B000000080E090E0892B29F00E941A0C811130
:1019C0000E94000080E090E0892B29F00E94100C1A
:1019D00081110C9400000895EF92FF920F931F93D2
:1019E000CF93DF93FC017901342F8689882309F492
:1019F00093C0823038F0C085D18521978E01061BB7
:101A0000170BB8019FEF980F923018F432853150C0
:101A1000341B80FF81C0862F632F70E0382F4481F4
:101A20005581641775070CF079C0832F90E0C6814B
:101A3000D7818C179D070CF071C0278DA3E0959579
:101A40008795AA95E1F7289F8001299F100D112401
:101A5000CB01B3E095958795BA95E1F7C0A1D1A1E7
:101A6000C00FD11FC80FD91F8881EB01C770DD27B8
:101A70003770082F10E062A173A1600F711FDB01A6
:101A80009C91923030F067E070E0DB01AC1BBD0B45
:101A9000ED016FEF690F623018F467E0631B362FBA
:101AA00090FF04C09C2FC32FD0E0392F622F0E94DB
:101AB0004F22982F990F990F990F390FB801289F2E
:101AC00060197109112483E0660F771F8A95E1F789
:101AD0006C0F7D1F832F90E023E0959587952A95C5
:101AE000E1F7849FE001859FD00D949FD00D1124D4
:101AF0006C0F7D1F048CF58DE02DE60FF71F3770FE
:101B000081E090E001C0880F3A95EAF72081EF2844
:101B100061F0822B808302C077FF81CFDF91CF916C
:101B20001F910F91FF90EF90089580958223F2CF3F
:101B30000895DC01ED91FC910190F081E02D199464
:101B40002F923F924F925F926F927F928F929F92CD
:101B5000AF92BF92CF92DF92EF92FF920F931F93BB
:101B6000CF93DF93EC01FC01E857FF4F8081918117
:101B7000009711F00E94A00D8E01085B1F4F3E01DF
:101B80002AE4620E711C1E0137E8230E311CEBE8BB
:101B90004E2E552453948C819D81DC01ED91FC9156
:101BA0000084F185E02D1995181619060CF0B6C1C0
:101BB0000E946F0BCE80DF80E884F9849B01AC012A
:101BC0002C193D094E095F0969017A0133E0C316FA
:101BD000D104E104F10408F01B826E837F838887BF
:101BE00099878C819D81DC01ED91FC910284F385C4
:101BF000E02D1995282F3B81313009F447C098F129
:101C0000323009F459C0333031F6D3012C91982F7A
:101C10008827820F911DF80120813181281739070B
:101C200001F52A85F22FFF709F2E203409F048C05D
:101C3000DE0121E0E22FE695F0E07696EE0FFF1F41
:101C4000EC0FFD1F1C969C911C971B968C911B976B
:101C5000918380832E5F12962D3161F78A818F5F89
:101C60008A83B4E027C03CEF380F3D3160F41AA6F8
:101C700023502BA7992780959095F8019183808315
:101C8000F1E0FB8388CF24E02B8385CFEAA541E0F8
:101C90004E0F4AA7EC0FFD2FF11D8287D8012D9121
:101CA0003C911197281B31092D933C938BA5B2E0F1
:101CB000481371CFBB836FCFF3018083F3E0E1CF93
:101CC000D1018C918F1768F2FF2359F28BA58130D7
:101CD00041F68C819D81EF2EF12C5701B1E0AB1ABA
:101CE000B108F2013197F1F7207F203999F1203ABC
:101CF00009F471C0203809F0B4CF28812F5F288300
:101D000064E070E00E94990DB70160587F4F8C81AC
:101D10009D810E94990DE4E8EE0EF11CE094F09490
:101D2000D801ED92FC928C819D81DC01ED91FC91BA
:101D30000190F081E02DD8016C9119958C819D81E5
:101D4000F8016181DC01ED91FC910190F081E02DC1
:101D5000199587CF66E070E00E94990DB701605732
:101D60007F4F8C819D810E94990D8C819D81B6E071
:101D7000BA9D6001BB9DD00C1124CC0EDD1E560116
:101D8000EBE4AE0EB11CDC01ED91FC910190F08111
:101D9000E02DD5016C9119958C819D81BCE4CB0E11
:101DA000D11CDC01ED91FC910190F081E02DD60178
:101DB0006C911995B6E9EB0EF11CF5018081E80EE6
:101DC000F11CD6018C91E80EF11CE094F094F8011E
:101DD000F182E082A8CF29812F5F2983F6E0FA9D66
:101DE0007001FB9DF00C1124EC0EFD1E67012CE42C
:101DF000C20ED11CD6012C9144E0B42EB20EDC01EF
:101E0000ED91FC910190F081E02D6B2D19958B2DBA
:101E100090E080959095F801918380838C819D81DD
:101E2000F0EA9F0EDC01ED91FC910190F081E02D34
:101E3000692D1995F8018081918189199109918302
:101E400080838C819D81FDE4EF0EF11CD701BC9055
:101E5000DC01ED91FC910190F081E02D6B2D199545
:101E6000F801808191818B199109918380838C8104
:101E70009D81D7018D909D90AD90BC90892C9A2C1E
:101E8000AB2CBB24A7FCBA94DC01ED91FC91019032
:101E9000F081E02D682D1995F801808191818819D4
:101EA000910991838083D6018C91843009F03BCFD6
:101EB0008C819D81F70180809180A280B380450153
:101EC000BB2497FCB094AB2CDC01ED91FC9101900C
:101ED000F081E02D682D1995F80180819181881994
:101EE0009109918380838C819D81D701CD90DD9074
:101EF000ED90FC90CF2CDD24EE24FF24DC01ED914D
:101F0000FC910190F081E02D6C2D1995F8018081F4
:101F100091818C199D099183808305CFDF91CF91A9
:101F20001F910F91FF90EF90DF90CF90BF90AF90F7
:101F30009F908F907F906F905F904F903F902F90E9
:101F400008952091D502260F3327331F2132310502
:101F5000ECF420912403FC0190E080E0243069F04F
:101F600082E00895A091D5022191AC014B545D4FC0
:101F7000A40FB52FB11D2C930196861798F380916D
:101F8000D502680F6093D50280E0089581E008953E
:101F90001092240381E0809323031092FE0261E0FB
:101FA00084E10E94810A61E085E10E94810AE9EBF7
:101FB000F0E080818E7F808380818D7F808388E4C4
:101FC0008093B80085E48093BC000895CF93DF939D
:101FD00091E09093B4028823B9F0C091B800D091F9
:101FE000BA008091BC008A7B8093BC0060E084E1F1
:101FF0000E94810A60E085E10E94810A0E94C80F68
:10200000D093BA00C093B800DF91CF910895E091CA
:102010004E0380914F03E81730F4F0E0EC56FD4F8B
:10202000808190E008958FEF9FEF089590914E0387
:1020300080914F032FEF3FEF981748F4E92FF0E01E
:10204000EC56FD4F208130E09F5F90934E03C90115
:102050000895CF92DF92EF92FF920F931F93CF9349
:10206000DF937C01CB018A0120912A03222389F08E
:10207000EB016B01C40ED51ECC15DD0569F069912D
:10208000D701ED91FC910190F081E02DC7011995E8
:10209000F3CF642F0E94A10FC801DF91CF911F9150
:1020A0000F91FF90EF90DF90CF900895CF93DF9343
:1020B0001F92CDB7DEB7698320912A032223F9F05E
:1020C00020914D03203258F021E030E0FC013383B1
:1020D000228390E080E00F90DF91CF91089580916E
:1020E0002B03E82FF0E0E45DFC4F998190838F5F34
:1020F00080932B0380934D0381E090E0ECCF61E06F
:10210000CE0101960E94A10FF7CF90E080E00895E4
:10211000CF92DF92EF92FF92DA01E82FF0E0EE0F1C
:10212000FF1FED5BF94F8081918184369105F8F0B6
:102130006B01770FEE08FF089C0150E040E0285E3D
:10214000334041095109BD01BB0F880B990B6C1934
:102150007D098E099F090E943F2228EE33E040E06E
:1021600050E00E94E4212C0D3D1D4E1D5F1DC90154
:10217000FF90EF90DF90CF9008958F929F92AF9253
:10218000BF920F931F93CF93DF93CDB7DEB7A19785
:102190000FB6F894DEBF0FBECDBF19A2423008F4CF
:1021A0004AE08E010F5D1F4F842E912CB12CA12C83
:1021B000A50194010E940E22E62FB901CA01EA305E
:1021C00044F5E05DD801EE938D01232B242B252BC4
:1021D00079F790E080E0109769F0FD010190002010
:1021E000E9F73197AF014A1B5B0BBD0182E793E032
:1021F0000E94860BA1960FB6F894DEBF0FBECDBF2E
:10220000DF91CF911F910F91BF90AF909F908F90D2
:102210000895E95CD7CFCF93DF93EC018881998152
:10222000009711F00E94E825198218821D821C82F5
:102230001B821A82DF91CF910895FC0180819181E8
:10224000009711F00C94E82508950E9452270F93EF
:102250001F93CF93DF93EC0188819981009759F008
:102260002A813B812617370730F081E0DF91CF913B
:102270001F910F9108958B016F5F7F4F0E94712610
:10228000009759F0998388831B830A832C813D81B1
:10229000232B59F7FC011082E8CF80E0E7CFEF92C3
:1022A000FF920F931F93CF93DF936115710541F454
:1022B00080E0DF91CF911F910F91FF90EF900895F3
:1022C00041155105B1F07B01EC010C811D81040F1A
:1022D000151FB8010E942711882351F328813981E5
:1022E0008C819D81B701820F931F0E9467271D83F8
:1022F0000C8381E0DECFCF93DF93EC01FB010190F3
:102300000020E9F73197AF01461B570B0E944F1190
:10231000811103C0CE010E940B11CE01DF91CF913C
:102320000895EF92FF920F931F93CF93DF93EC01E9
:102330007B018A01BA010E94271181110BC0CE01D5
:102340000E940B11CE01DF91CF911F910F91FF9051
:10235000EF9008951D830C83B701888199810E94B5
:102360006727F0CFEF92FF920F931F93CF93DF93E6
:10237000CDB7DEB762970FB6F894DEBF0FBECDBF04
:102380008C01CB01F8011182108213821282158216
:1023900014824AE09E012F5F3F4F7901B9010E94EC
:1023A0009020F70101900020E9F73197AF014E1915
:1023B0005F09B701C8010E94911162960FB6F894A7
:1023C000DEBF0FBECDBFDF91CF911F910F91FF9068
:1023D000EF900895EF92FF920F931F93CF93DF93A7
:1023E00000D000D000D0CDB7DEB78C01862FF80129
:1023F0001182108213821282158214824AE09E0199
:102400002F5F3F4F7901B90190E00E949B20F701B7
:1024100001900020E9F73197AF014E195F09B7012C
:10242000C8010E94911129960FB6F894DEBF0FBE25
:10243000CDBFDF91CF911F910F91FF90EF90089545
:10244000FC01468D50E0672B39F470E060E0FC0140
:10245000848D958D0C9460276FEF70E0F8CF85ED3B
:102460008093BC008091260390912703A0912803BC
:10247000B09129030796A11DB11D23E0B695A7953C
:10248000979587952A95D1F72091BC0024FD03C02C
:1024900010922403089540912603509127036091E0
:1024A000280370912903452B462B472B69F300978E
:1024B000A105B10541F025E32A95F1F70000019748
:1024C000A109B109E1CF809125030C94E60F1F9279
:1024D0000F920FB60F9211242F933F938F939F93D8
:1024E000AF93BF9380916A0390916B03A0916C03AB
:1024F000B0916D033091690323E0230F2D3758F518
:102500000196A11DB11D2093690380936A039093E6
:102510006B03A0936C03B0936D0380916E03909155
:102520006F03A0917003B09171030196A11DB11DBD
:1025300080936E0390936F03A0937003B093710325
:10254000BF91AF919F918F913F912F910F900FBEAF
:102550000F901F90189526E8230F0296A11DB11D1C
:10256000D2CF1F920F920FB60F9211240BB60F927B
:102570002F933F934F935F936F937F938F939F938B
:10258000AF93BF93EF93FF9382E793E00E94380CE1
:10259000FF91EF91BF91AF919F918F917F916F913B
:1025A0005F914F913F912F910F900BBE0F900FBEF7
:1025B0000F901F9018951F920F920FB60F92112433
:1025C0000BB60F922F933F934F935F936F937F932D
:1025D0008F939F93AF93BF93EF93FF9382E793E023
:1025E0000E94BA0BFF91EF91BF91AF919F918F9194
:1025F0007F916F915F914F913F912F910F900BBE03
:102600000F900FBE0F901F9018951F920F920FB64C
:102610000F9211240BB60F922F933F934F935F931A
:102620006F937F938F939F93AF93BF93EF93FF939A
:102630008FE094E00E94380CFF91EF91BF91AF9131
:102640009F918F917F916F915F914F913F912F91CA
:102650000F900BBE0F900FBE0F901F9018951F92FA
:102660000F920FB60F9211240BB60F922F933F9338
:102670004F935F936F937F938F939F93AF93BF938A
:10268000EF93FF938FE094E00E94BA0BFF91EF91DC
:10269000BF91AF919F918F917F916F915F914F917A
:1026A0003F912F910F900BBE0F900FBE0F901F9078
:1026B00018951F920F920FB60F9211240BB60F921E
:1026C0002F933F934F935F936F937F938F939F933A
:1026D000AF93BF93EF93FF938CEA94E00E94380C82
:1026E000FF91EF91BF91AF919F918F917F916F91EA
:1026F0005F914F913F912F910F900BBE0F900FBEA6
:102700000F901F9018951F920F920FB60F921124E1
:102710000BB60F922F933F934F935F936F937F93DB
:102720008F939F93AF93BF93EF93FF938CEA94E0C3
:102730000E94BA0BFF91EF91BF91AF919F918F9142
:102740007F916F915F914F913F912F910F900BBEB1
:102750000F900FBE0F901F9018951F920F920FB6FB
:102760000F9211240BB60F922F933F934F935F93C9
:102770006F937F938F939F93AF93BF93EF93FF9349
:1027800089E495E00E94380CFF91EF91BF91AF91E1
:102790009F918F917F916F915F914F913F912F9179
:1027A0000F900BBE0F900FBE0F901F9018951F92A9
:1027B0000F920FB60F9211240BB60F922F933F93E7
:1027C0004F935F936F937F938F939F93AF93BF9339
:1027D000EF93FF9389E495E00E94BA0BFF91EF918C
:1027E000BF91AF919F918F917F916F915F914F9129
:1027F0003F912F910F900BBE0F900FBE0F901F9027
:1028000018951F920F920FB60F9211240BB60F92CC
:102810002F933F934F935F936F937F938F939F93E8
:10282000AF93BF93EF93FF938091F8029091F902D9
:10283000009711F00E94A00DFF91EF91BF91AF9111
:102840009F918F917F916F915F914F913F912F91C8
:102850000F900BBE0F900FBE0F901F9018951F92F8
:102860000F920FB60F9211240BB60F922F933F9336
:102870004F935F936F937F938F939F93AF93BF9388
:10288000EF93FF938091B900887F803609F44DC0A3
:1028900008F040C0883209F4A9C028F5803109F455
:1028A0009DC0C8F4882309F4FBC0883009F496C0A1
:1028B000FF91EF91BF91AF919F918F917F916F9118
:1028C0005F914F913F912F910F900BBE0F900FBED4
:1028D0000F901F901895883109F488C0803241F715
:1028E0008093220314C0803409F49DC040F48033E7
:1028F000B9F38833E9F68093220385ECB0C08035C4
:1029000009F485C0883509F496C0883489F60E9498
:102910002F12CECF883909F48CC038F5883729F0CA
:1029200050F4883611F0803719F683E08093240341
:102930001092F70257C0883809F47BC0803919F02B
:10294000803809F0B5CF8091F702803208F071C06D
:10295000E091F70281E08E0F8093F7028091BB0037
:10296000F0E0E952FD4F80833DC0803B39F0E0F458
:10297000803A09F479C0883A09F09ACF84E08093CC
:1029800024031092D6021092D502E091FC02F0913D
:10299000FD0219958091D50281110FC081E08093CD
:1029A000D5021092B50209C0803C09F4A6CF883C3C
:1029B00009F4A3CF883B09F07BCFE091D60281E0F8
:1029C0008E0F8093D602F0E0EB54FD4F8081809310
:1029D000BB009091D6028091D50229C08091FF0260
:1029E0008093BB0085EC8093BC0062CF9091210363
:1029F00080912003981758F5E091210381E08E0F14
:102A000080932103F0E0E050FD4F8081E9CFE09119
:102A1000210381E08E0F809321038091BB00F0E0C1
:102A2000E050FD4F808390912103809120039817FF
:102A3000C8F285E8D8CFE091210381E08E0F809322
:102A400021038091BB00F0E0E050FD4F8083809136
:102A5000230381115CCF81E08093FE0284EA80939E
:102A6000BC001092240324CF85EC8093BC0010920C
:102A700024038091F702803230F4E091F702F0E015
:102A8000E952FD4F10826091F70270E0E091FA0286
:102A9000F091FB0287ED92E019951092F70208CFB2
:102AA0001092220334CFCF93DF93109275031092CC
:102AB000740388EE93E0A0E0B0E0809376039093F7
:102AC0007703A0937803B09379032AE332E030933D
:102AD00073032093720345E351E050937F034093C7
:102AE0007E0344E351E0509381034093800340E32D
:102AF00051E0509383034093820341E351E05093AC
:102B000085034093840342E351E05093870340934D
:102B1000860346E351E05093890340938803109263
:102B20008B0310928C0310928D0310928E031092DF
:102B30001204109211048093130490931404A09330
:102B40001504B09316043093100420930F0445ED40
:102B500050E050931C0440931B0444ED50E050930C
:102B60001E0440931D0440ED50E050932004409318
:102B70001F0441ED50E0509322044093210442EDA4
:102B800050E0509324044093230446ED50E05093CA
:102B900026044093250410922804109229041092D0
:102BA0002A0410922B041092AF041092AE0480936A
:102BB000B0049093B104A093B204B093B3043093E3
:102BC000AD042093AC044DEC50E05093B904409315
:102BD000B8044CEC50E05093BB044093BA0448EC6A
:102BE00050E05093BD044093BC0449EC50E0509336
:102BF000BF044093BE044AEC50E05093C10440939C
:102C0000C0044EEC50E05093C3044093C2041092B1
:102C1000C5041092C6041092C7041092C804109202
:102C20004C0510924B0580934D0590934E05A09353
:102C30004F05B093500530934A052093490525EC84
:102C400030E0309356052093550524EC30E0309366
:102C500058052093570520EC30E030935A05209317
:102C6000590521EC30E030935C0520935B0522ECA4
:102C700030E030935E0520935D0526EC30E0309324
:102C8000600520935F051092620510926305109213
:102C90006405109265051092E9051092E80580938D
:102CA000EA059093EB05A093EC05B093ED058CE459
:102CB00092E09093E7058093E6050E946F0B609386
:102CC000A1067093A2068093A3069093A406109287
:102CD0009E061092A00610929F061092F605109282
:102CE000F50588E090E09093F8058093F7059093C0
:102CF000FA058093F9059093FC058093FB0590936A
:102D0000FE058093FD0510920906109200061092B0
:102D1000FF05109202061092010681E080930806DA
:102D2000809307062FEF3FEF3093060620930506AA
:102D3000309304062093030680930A0610920B0634
:102D400010920D0610920C062EE532E03093F40539
:102D50002093F30595E390930E068093120688E086
:102D60008093110688E090E00E944C259093100615
:102D700080930F0681E090E00E944C25EC01909337
:102D800016068093150681E090E00E944C259093F2
:102D9000140680931306FC0110821882CFB7F894B2
:102DA0008091F205811127C0EBE0F8E08491E5EC19
:102DB000F7E09491E82FF0E0EE0FFF1FEA58F84F8C
:102DC000A591B491EC91E92321F461E085E30E949F
:102DD000810A61E085E30E94E70A8CB580618CBDC1
:102DE0008CB580648CBD61E084E30E94E70A61E0F9
:102DF00083E30E94E70A8091F2058F5F8093F205DA
:102E0000CFBF61E080910E060E94E70A70E060E0AB
:102E100083EF95E00E94201260E08FE00E94AF0AED
:102E200067E08BE00E94AF0A60E089E00E94AF0A91
:102E300061E08CE00E94AF0A67E08AE0DF91CF9109
:102E40000C94AF0ACF93DF93CDB7DEB766970FB67A
:102E5000F894DEBF0FBECDBF789484B5826084BD88
:102E600084B5816084BD85B5826085BD85B581608E
:102E700085BD80916E00816080936E00109281000C
:102E800080918100826080938100809181008160C7
:102E90008093810080918000816080938000809188
:102EA000B10084608093B1008091B0008160809314
:102EB000B000809191008260809391008091910098
:102EC0008160809391008091900081608093900058
:102ED0008091A10082608093A1008091A100816017
:102EE0008093A1008091A00081608093A0008091D8
:102EF0002101826080932101809121018160809372
:102F000021018091200181608093200180917A00CD
:102F1000846080937A0080917A00826080937A0046
:102F200080917A00816080937A0080917A00806835
:102F300080937A001092C10040E052EC61E070E0B2
:102F40008CEA94E00E9442048CEA94E090931C0680
:102F500080931B0684E080931A060E946F0B609397
:102F60001D0670931E0680931F06909320061092F4
:102F70004106109242061092600610925F0610926F
:102F800061068091F8029091F9029093A0068093D7
:102F90009F06892B39F48FEA87BD80916E0082608D
:102FA00080936E0087E196E09093F9028093F80297
:102FB00062E08AE00E94AF0A62E083EF95E00E943F
:102FC000870470E060E083EF95E00E9420120E9489
:102FD000DD0A10924E0310924F0310922B031092B1
:102FE0004D030E94C80F82E89BE09093FD028093FE
:102FF000FC0283E89BE09093FB028093FA0281E05D
:1030000080932A0380934C0361E086EE95E00E9452
:10301000561010914D03113208F091C00E94180B08
:103020006B017C0180912403811164C082E0809354
:10303000240381E0809323038FEF80932203109277
:10304000210310932003ECE2F3E0A0E0B3E080E082
:10305000181389C01092FF028091FF028260809352
:10306000FF028091FE02813009F081C01092FE02C1
:103070000E94180B6B017C018091FF028093BB00C2
:103080008091260390912703A0912803B0912903F2
:10309000892B8A2B8B2B99F00E94180B0091260309
:1030A0001091270320912803309129036C197D0981
:1030B0008E099F090617170728073907E0F1809145
:1030C000BC0083FDD9CF85EC8093BC000E94180B17
:1030D0006B017C0180912403823009F44AC0809105
:1030E00022038F3F61F180912203803241F1809170
:1030F000220325C08091260390912703A0912803E5
:10310000B0912903892B8A2B8B2B09F48BCF0E943A
:10311000180B8090260390902703A0902803B0906E
:1031200029036C197D098E099F0986169706A80642
:10313000B90608F077CF809125030E94E60F109220
:103140002B0310924D0310922A0380914F0390910C
:103150004E03891B990B181619066CF586EE95E03F
:103160000E941610F2CF91919D938F5F71CF85EEE3
:10317000ABCF8091260390912703A0912803B091B3
:103180002903892B8A2B8B2B09F4A4CF0E94180BBF
:1031900000912603109127032091280330912903E1
:1031A0006C197D098E099F0906171707280739072B
:1031B00008F090CFC0CF40E855E260E070E089E4CD
:1031C00095E00E94420440E052EC61E070E08FE044
:1031D00094E00E94420440E855E260E070E082E73B
:1031E00093E00E94420462E086E30E94E70A61E005
:1031F0008DE00E94E70A61E08DE00E94810A00E50F
:10320000C02E03E0D02E77247A9488248394912CC6
:10321000F60171926F0110E5A12E13E0B12EF12C91
:10322000E12C10E000E0F501208130E0C401002E27
:1032300002C0880F991F0A94E2F728233923A701B7
:10324000B80183EF95E00E94EC0C0F5F1F4F083030
:10325000110549F7FFEFEF1AFF0A4FEFA41AB40A5E
:1032600088E0E816F104E9F60E94DD0A68EE73E0F2
:1032700080E090E00E943D0BE8E5CE16E3E0DE063C
:1032800039F668EB7BE080E090E00E943D0B8FE038
:1032900094E00E94A70C44244394512CE6E6F2E00B
:1032A0008491E6ECF7E00491ECE0F8E0149111234E
:1032B00009F41BC181110E941A0AE12FF0E0EE0F00
:1032C000FF1FE450FE4FA591B4918C91082309F49F
:1032D0000CC130E020E042E050E070E060E088E0C7
:1032E0000E9488109093680380936703009167039E
:1032F000109168030230110509F121E030E041E04E
:1033000050E070E060E086E00E94881080935D03EA
:1033100021E030E041E050E070E060E087E00E94B2
:1033200088108093580321E030E041E050E070E0E5
:1033300060E089E00E94881080935E0370E060E0A6
:1033400083EF95E00E9420120115110509F0D2C00B
:10335000EEE2AE2EE2E0BE2ED12CC12CF12CE12CFF
:10336000F501208130E0C2010E2C02C0880F991FA8
:103370000A94E2F728233923A601B70183EF95E0E9
:103380000E94EC0CFFEFEF1AFF0A48E0E416F1048C
:1033900039F78FEFC81AD80AEFEFAE1ABE0AF8E075
:1033A000CF16D104D9F60E94DD0A0115110509F0E6
:1033B00091C11092600310925F0310926203109209
:1033C00061031092640310926303109266031092DB
:1033D0006503C090A106D090A206E090A306F090ED
:1033E000A406F2E3CF0ED11CE11CF11C0E946F0B6E
:1033F000C616D706E806F90608F074C00FE513E014
:1034000087E6E82E83E0F82EF801819091908F01F5
:10341000F8EC8F0E911C092C000CAA08BB084AE09E
:10342000C501B401B7FE0DC06DE282E793E00E94D2
:103430005A0C66277727CB01681979098A099B09F5
:103440004AE00E94BD10E016F106F1F660915E03BD
:10345000CE010D960E94EA1160915D03CE010196A6
:103460000E94EA1118861F821A8619861C861B86FE
:1034700069817A816115710531F04D815E81CE01DE
:1034800007960E94911149895A896D857E85CE01E2
:1034900007960E944F11811104C0CE0107960E9429
:1034A0000B1161E972E0CE0107960E947B11BC010D
:1034B00082E793E00E94B30BCE0107960E941D1194
:1034C000CE0101960E941D11CE010D960E941D1184
:1034D0000E946F0B6093A1067093A2068093A306CF
:1034E0009093A4060E94C70CD9CE509268034092D4
:1034F0006703FCCE0130110509F0BCC076E2A72EAF
:1035000072E0B72ED12CC12CF12CE12CF5012081D9
:1035100030E0C2010E2C02C0880F991F0A94E2F716
:1035200028233923A601B70183EF95E00E94EC0C14
:10353000FFEFEF1AFF0A48E0E416F10439F78FEFC6
:10354000C81AD80AEFEFAE1ABE0AF8E0CF16D104B7
:10355000D9F680915803882361F16EE1A62E62E0CE
:10356000B62ED12CC12CF12CE12CF501208130E0BC
:10357000C2010E2C02C0880F991F0A94E2F728237B
:103580003923A601B70183EF95E00E94EC0CFFEF11
:10359000EF1AFF0A48E0E416F10439F78FEFC81A72
:1035A000D80AEFEFAE1ABE0AF8E0CF16D104D9F66A
:1035B000FACE80915E03882361F156E1A52E52E098
:1035C000B52ED12CC12CF12CE12CF501208130E05D
:1035D000C2010E2C02C0880F991F0A94E2F728231B
:1035E0003923A601B70183EF95E00E94EC0CFFEFB1
:1035F000EF1AFF0A48E0E416F10439F78FEFC81A12
:10360000D80AEFEFAE1ABE0AF8E0CF16D104D9F609
:10361000CACE80915D03882309F4C5CE4EE0A42E66
:1036200042E0B42ED12CC12CF12CE12CF5012081EB
:1036300030E0C2010E2C02C0880F991F0A94E2F7F5
:1036400028233923A601B70183EF95E00E94EC0CF3
:10365000FFEFEF1AFF0A48E0E416F10439F78FEFA5
:10366000C81AD80AEFEFAE1ABE0AF8E0CF16D10496
:10367000D9F699CE0230110509F095CE36E0A32E89
:1036800032E0B32ED12CC12CF12CE12CF50120819C
:1036900030E0C2010E2C02C0880F991F0A94E2F795
:1036A00028233923A601B70183EF95E00E94EC0C93
:1036B000FFEFEF1AFF0A48E0E416F10439F78FEF45
:1036C000C81AD80AEFEFAE1ABE0AF8E0CF16D10436
:1036D000D9F669CE0130110509F07BCE30E020E04B
:1036E00044E650E06CE97FEF83E00E9488108C0193
:1036F00090935C0380935B0330E020E044E650E06D
:103700006CE97FEF81E00E94881090935A038093C8
:1037100059030E5F1F4F0530110520F410925C0312
:1037200010925B030296059720F410925A031092B0
:1037300059032090590330905A0380915803811106
:1037400030C080915B0390915C039101281B390B81
:103750002536310514F024E630E02C394FEF3407DC
:1037600014F42CE93FEF3093600320935F03820D44
:10377000931D8536910514F084E690E08C39EFEFC7
:103780009E0714F48CE99FEF90936203809361038A
:1037900030936403209363039093660380936503DF
:1037A00018CE30E020E044E650E06CE97FEF80E0A6
:1037B0000E9488108C01B101032C000C880B990B1E
:1037C0000E94C7206B017C01B801012E000C880B00
:1037D000990B0E94C7204B015C01A70196010E9432
:1037E000E8236B8B7C8B8D8B9E8B20E030E048EC4C
:1037F00052E40E94D52324E6622E712C18163CF068
:103800006B897C898D899E890E9478233B011214E3
:1038100013040CF0D1C017FD5CC4201631060CF463
:10382000AEC0A7019601C501B4010E9406230E9403
:10383000D72220E030E044E353E40E9426212BED20
:103840003FE049E450E40E9406230E9478238B0164
:103850006115710509F059C17092600360925F03B0
:1038600070926203609261037092640360926303DA
:10387000709266036092650310E000E0B301CE0130
:1038800001960E94B211B801CE010D960E94B211AC
:1038900018861F821A8619861C861B866D857E8572
:1038A0006115710531F049895A89CE0107960E9448
:1038B00091116BE872E0CE0107960E947B118C019A
:1038C0004D815E8169817A810E944F11811103C00F
:1038D000C8010E940B1166E872E0C8010E947B11CA
:1038E000BC0189E495E00E94B30BCE0107960E94CB
:1038F0001D11CE010D960E941D11CE0101960E9450
:103900001D110FE513E097E6E92E93E0F92EF8017B
:10391000619171918F01CE0107960E94B2111A82B6
:1039200019821C821B821E821D826F81788561151F
:10393000710531F04B855C85CE0101960E94911195
:103940006CE872E0CE0101960E947B11BC0189E413
:1039500095E00E94B30BCE0101960E941D11CE018D
:1039600007960E941D11E016F10689F642E050E02C
:103970006EE872E089E495E00E94860B2ACDA501ED
:103980009401C701B6010E9406230E94D72220E0BD
:1039900030E044E353E40E9426212BED3FE049E46C
:1039A00050E40E9406239B01AC0160E070E084EBD0
:1039B00092E40E946A2249CF101611060CF081C3CE
:1039C000319421943108B101032C000C880B990B20
:1039D0000E94C72002151305CCF0A50194010E9496
:1039E00006230E94D72220E030E044E353E40E9403
:1039F00026212BED3FE049E450E40E94062320E01D
:103A000030E044EB52E40E946B221FCF9B01AC01DB
:103A1000C501B4010E9406230E94D72220E030E0B5
:103A200044E353E40E9426212BED3FE049E450E4B7
:103A30000E9406239B01AC0160E070E084E393E404
:103A4000B8CF6627772762197309072E000C880BF9
:103A5000990B0E94C7206B017C0166277727601BAA
:103A6000710B072E000C880B990B0E94C7200215C2
:103A70001305BCF0A70196010E9406230E94D722DD
:103A800020E030E044E353E40E9426212BED3FE0A8
:103A900049E450E40E94062320E030E044E353E48C
:103AA000B2CF9B01AC01C701B6010E9406230E9460
:103AB000D72220E030E044E353E40E9426212BED9E
:103AC0003FE049E450E40E9406239B01AC0160E022
:103AD00070E087E893E46DCFA70196010E9406236A
:103AE0000E94D72220E030E044E353E40E942621E4
:103AF0002BED3FE049E450E40E9406239B01AC011A
:103B000060E070E084EB93E454CF643B7105A9F46A
:103B100088279927861997099093600380935F03FC
:103B20009093620380936103909364038093630393
:103B30009093660380936503A1CE6A357105A9F45D
:103B40007092600360925F0388279927861997090E
:103B50009093620380936103909364038093630363
:103B6000709266036092650389CE6E30F1E07F0744
:103B700089F4882799278619970990936003809381
:103B80005F037092620360926103709264036092BB
:103B90006303CECF6E31710531F0623D710581F462
:103BA0007194619471087092600360925F03109247
:103BB0006203109261031092640310926303D0CFEA
:103BC00066397105A9F06A3441E07407A9F41092CE
:103BD000600310925F0370926203609261037092BF
:103BE000640360926303109266031092650346CEED
:103BF000719461947108EBCFCB0101974D9708F058
:103C00003FC02DE230E0D8010E9463222EE130E077
:103C100040E050E00E94E4216DE270E080E090E03E
:103C2000621B730B840B950B0E94C7202BED3FE0AA
:103C300049E450E40E94262120E030E044E353E4CC
:103C40000E9406230E94D3246B017C01B301072C40
:103C5000000C880B990B0E94C720A70196010E94B7
:103C600026210E9478237092600360925F03709314
:103C7000620360936103709364036093630370CF86
:103C8000C8014F97CB97E0F59801012E000C440B2B
:103C9000550B2E51310941095109ADE2B0E00E94A6
:103CA00003222CE330E040E050E00E94E421CA010E
:103CB000B9010E94C7202BED3FE049E450E40E9487
:103CC000262120E030E044E353E40E9406230E94D2
:103CD000D3246B017C017092600360925F03B30197
:103CE000072C000C880B990B0E94C720A701960196
:103CF0000E9426210E947823719561957109B7CFA2
:103D0000C8018B559109CB9708F053C09801012E3B
:103D1000000C440B550B2A55310941095109ADE2FC
:103D2000B0E00E9403222CE330E040E050E00E942B
:103D3000E421265A3F4F4F4F5F4F67E870E080E025
:103D400090E0621B730B840B950B0E94C7202BED38
:103D50003FE049E450E40E94262120E030E044E3C3
:103D600053E40E9406230E94D3246B017C01B3011B
:103D7000072C000C880B990B0E94C720A701960105
:103D80000E9426210E9478237093600360935F0352
:103D900022273327261937093093620320936103C2
:103DA0003093640320936303709366036093650309
:103DB00065CDC801875991094D9708F048C0980111
:103DC000012E000C440B550B2659310941095109AC
:103DD000ADE2B0E00E9403222EE130E040E050E08E
:103DE0000E94E421CA01B9010E94C7202BED3FE0E7
:103DF00049E450E40E94262120E030E044E353E40B
:103E00000E9406230E94D3246B017C01B301072C7E
:103E1000000C880B990B0E94C720A70196010E94F5
:103E200026210E9478237195619571097093600332
:103E300060935F03882799278619970990936203F7
:103E4000809361039093640380936303ADCFC801B3
:103E5000855B91094D9708F056C09801012E000C22
:103E6000440B550B245B310941095109ADE2B0E027
:103E70000E9403222EE130E040E050E00E94E42165
:103E80002C543F4F4F4F5F4F61EE70E080E090E069
:103E9000621B730B840B950B0E94C7202BED3FE038
:103EA00049E450E40E94262120E030E044E353E45A
:103EB0000E9406230E94D3244B015C01EE24FF24C0
:103EC000E618F708F0926003E0925F03B301072C55
:103ED000000C880B990B0E94C720A50194010E9439
:103EE00026210E9478237195619571097093620370
:103EF000609361037093640360936303F0926603BD
:103F0000E0926503BBCCC801835D9109CB9708F0B3
:103F100049C09801012E000C440B550B225D31095C
:103F200041095109ADE2B0E00E9403222CE330E0E8
:103F300040E050E00E94E421CA01B9010E94C7207C
:103F40002BED3FE049E450E40E94262120E030E0E0
:103F500044E353E40E9406230E94D3246B017C01B6
:103F6000B301072C000C880B990B0E94C720A701F6
:103F700096010E9426210E947823222733272619A2
:103F800037093093600320935F037093620360935B
:103F9000610370936403609363033093660320931B
:103FA00065036CCCC8018F509140CB9708F04EC090
:103FB0009801012E000C440B550B2E503140410945
:103FC0005109ADE2B0E00E9403222CE330E040E072
:103FD00050E00E94E421225F3E4F4F4F5F4F6BE362
:103FE00071E080E090E0621B730B840B950B0E94E4
:103FF000C7202BED3FE049E450E40E94262120E059
:1040000030E044E353E40E9406230E94D3246B0172
:104010007C01B301072C000C880B990B0E94C72070
:10402000A70196010E9426210E947823719561952F
:1040300071097093600360935F03709262036092F2
:1040400061037092640360926303AECEC8018B5427
:1040500091404D9708F012CC9801012E000C440BB2
:10406000550B2A54314041095109ADE2B0E00E949C
:1040700003222EE130E040E050E00E94E421CA013A
:10408000B9010E94C7202BED3FE049E450E40E94B3
:10409000262120E030E044E353E40E9406230E94FE
:1040A000D3246B017C01B301072C000C880B990B06
:1040B0000E94C720A70196010E9426210E94782312
:1040C000B8CF2114310409F0BCCC0115110509F455
:1040D000C3CB119501951109B801012E000C880B75
:1040E000990B0E94C720021513050CF4F5CC9B0117
:1040F000AC01C701B6010E9406230E94D72220E02E
:1041000030E044E353E40E9426212BED3FE049E4F4
:1041100050E40E94062320E030E047E853E473CCEB
:10412000BB274A3031F4992322F4BDE29095819562
:104130009F4F0C949C20BB27FB015527AA27880F73
:10414000991FAA1FA41710F0A41B83955051B9F70B
:10415000A05DAA3308F0A95DA193009779F7B1118A
:10416000B1931192CB010C94B520DC01FC01672FB7
:1041700071917723E1F7329704C07C916D9370833E
:104180006291AE17BF07C8F30895E89409C097FB82
:104190003EF490958095709561957F4F8F4F9F4F1E
:1041A0009923A9F0F92F96E9BB279395F695879562
:1041B00077956795B795F111F8CFFAF4BB0F11F425
:1041C00060FF1BC06F5F7F4F8F4F9F4F16C08823CC
:1041D00011F096E911C0772321F09EE8872F762F02
:1041E00005C0662371F096E8862F70E060E02AF043
:1041F0009A95660F771F881FDAF7880F969587952F
:1042000097F90895990F0008550FAA0BE0E8FEEF03
:1042100016161706E807F907C0F012161306E4078A
:10422000F50798F0621B730B840B950B39F40A2683
:1042300061F0232B242B252B21F408950A2609F461
:10424000A140A6958FEF811D811D08950E943921FF
:104250000C94AA210E949C2138F00E94A32120F0F6
:10426000952311F00C9493210C94992111240C9412
:10427000DE210E94BB2170F3959FC1F3950F50E0A2
:10428000551F629FF001729FBB27F00DB11D639F08
:10429000AA27F00DB11DAA1F649F6627B00DA11DAE
:1042A000661F829F2227B00DA11D621F739FB00D54
:1042B000A11D621F839FA00D611D221F749F3327C4
:1042C000A00D611D231F849F600D211D822F762F5D
:1042D0006A2F11249F5750409AF0F1F088234AF03A
:1042E000EE0FFF1FBB1F661F771F881F91505040A6
:1042F000A9F79E3F510580F00C9493210C94DE2188
:104300005F3FE4F3983ED4F3869577956795B7952C
:10431000F795E7959F5FC1F7FE2B880F911D969546
:10432000879597F9089597F99F6780E870E060E0B6
:1043300008959FEF80EC089500240A94161617063E
:1043400018060906089500240A9412161306140686
:1043500005060895092E0394000C11F4882352F0E9
:10436000BB0F40F4BF2B11F460FF04C06F5F7F4FA1
:104370008F4F9F4F089557FD9058440F551F59F088
:104380005F3F71F04795880F97FB991F61F09F3F42
:1043900079F087950895121613061406551FF2CF6B
:1043A0004695F1DF08C0161617061806991FF1CFBB
:1043B00086957105610508940895E894BB276627E2
:1043C0007727CB0197F90895052E97FB1EF40094EB
:1043D0000E94FB2157FD07D00E940E2207FC03D04C
:1043E0004EF40C94FB2150954095309521953F4F0C
:1043F0004F4F5F4F089590958095709561957F4FD1
:104400008F4F9F4F08950E943022A59F900DB49F1B
:10441000900DA49F800D911D11240895A1E21A2EE4
:10442000AA1BBB1BFD010DC0AA1FBB1FEE1FFF1F58
:10443000A217B307E407F50720F0A21BB30BE40BA8
:10444000F50B661F771F881F991F1A9469F76095EF
:104450007095809590959B01AC01BD01CF010895A9
:10446000A29FB001B39FC001A39F700D811D1124B5
:10447000911DB29F700D811D1124911D0895DB01C6
:104480008F939F930E940322BF91AF91A29F800DB3
:10449000911DA39F900DB29F900D11240895991B1B
:1044A00079E004C0991F961708F0961B881F7A952B
:1044B000C9F780950895EE0FFF1F881F8BBF0790E7
:1044C000F691E02D19940E943022B7FF0895821BC7
:1044D000930B08955058BB27AA270E9482220C9460
:1044E000AA210E949C2138F00E94A32120F039F4D7
:1044F0009F3F19F426F40C9499210EF4E095E7FB04
:104500000C949321E92F0E94BB2158F3BA1762073C
:1045100073078407950720F079F4A6F50C94DD2144
:104520000EF4E0950B2EBA2FA02D0B01B9019001CE
:104530000C01CA01A0011124FF27591B99F0593F12
:1045400050F4503E68F11A16F040A22F232F342F5A
:104550004427585FF3CF469537952795A795F040A8
:104560005395C9F77EF41F16BA0B620B730B840BBD
:10457000BAF09150A1F0FF0FBB1F661F771F881F75
:10458000C2F70EC0BA0F621F731F841F48F48795CD
:1045900077956795B795F7959E3F08F0B0CF9395BF
:1045A000880F08F09927EE0F979587950895DF9368
:1045B000DD27B92FBF7740E85FE3161617064807D7
:1045C0005B0718F4D92F0E9447249F938F937F9302
:1045D0006F930E94CF24E4EEF0E00E94AE230E948D
:1045E000AA212F913F914F915F910E943921DD23A4
:1045F00051F09058A2EA2AED3FE049EC5FE3D07811
:104600005D270E948222DF910C94AA210E941A2326
:104610000C94AA210E94A32158F00E949C2140F0F2
:1046200029F45F3F29F00C94932151110C94DE2161
:104630000C9499210E94BB2168F39923B1F355236F
:1046400091F3951B550BBB27AA27621773078407A5
:1046500038F09F5F5F4F220F331F441FAA1FA9F33B
:1046600035D00E2E3AF0E0E832D091505040E69529
:10467000001CCAF72BD0FE2F29D0660F771F881F8A
:10468000BB1F261737074807AB07B0E809F0BB0B7D
:10469000802DBF01FF2793585F4F3AF09E3F510591
:1046A00078F00C9493210C94DE215F3FE4F3983E64
:1046B000D4F3869577956795B795F7959F5FC9F77A
:1046C000880F911D9695879597F90895E1E0660FFB
:1046D000771F881FBB1F621773078407BA0720F074
:1046E000621B730B840BBA0BEE1F88F7E0950895DD
:1046F0000E947F236894B1110C94DE2108950E94DA
:10470000C32188F09F5798F0B92F9927B751B0F07F
:10471000E1F0660F771F881F991F1AF0BA95C9F745
:1047200014C0B13091F00E94DD21B1E008950C94E5
:10473000DD21672F782F8827B85F39F0B93FCCF398
:10474000869577956795B395D9F73EF490958095C2
:10475000709561957F4F8F4F9F4F0895DF93CF9353
:104760001F930F93FF92EF92DF927B018C0168946D
:1047700006C0DA2EEF010E943921FE01E894A591CE
:104780002591359145915591A6F3EF010E94822222
:10479000FE019701A801DA9469F7DF90EF90FF908E
:1047A0000F911F91CF91DF9108950E94022108F48B
:1047B0008FEF08950E949C2129F00E94A32111F0FF
:1047C0000C9499210C949321B901CA010C94F824FA
:1047D0009F775F770E94BB2168F39923A9F3552344
:1047E000A9F3FF27951758F4E52FE91BED3060F783
:1047F0005E3B10F0F1E41CC09034E0F40AC0E92FF5
:10480000E51BED3018F79E3B10F0F1E411C0503479
:1048100088F4F9EA88232AF09A95660F771F881F93
:10482000DAF744232AF05A95220F331F441FDAF790
:104830009F1B5F1BFF931F930F93FF92EF927901D2
:104840008A01BB27AB2F9B01AC010E943C21970141
:10485000A801BF937B018C01AA27BA2FB901CA0115
:104860000E943C21AF919701A801EF90FF900F911A
:104870001F910E9482220E94AA210E948F244F91A0
:1048800040FF0895552747FD50950C9453249B01F4
:10489000AC0160E070E080E89FE30C9406230C9488
:1048A00093210C94F8240E94C321D8F39923C9F3CF
:1048B000940F511DA3F39150504094F059F0882368
:1048C00032F0660F771F881F91505040C1F79E3F0E
:1048D00051052CF7880F911D9695879597F90895A6
:1048E0005F3FACF0983E9CF0BB2786957795679527
:1048F000B79508F4B1609395C1F7BB0F58F711F461
:1049000060FFE8CF6F5F7F4F8F4F9F4FE3CF0C94D7
:10491000DE2119F416F40C9499210C94F8240E94C9
:10492000C321B8F39923C9F3B6F39F57550B87FFFB
:104930000E9406250024A0E640EA90018058569582
:10494000979528F4805C660F771F881F20F0261744
:104950003707480730F4621B730B840B2029312979
:104960004A2BA69517940794202531254A2758F7F6
:10497000660F771F881F20F026173707480730F487
:10498000620B730B840B200D311D411DA09581F727
:10499000B901842F9158880F9695879508959B01AA
:1049A000AC010C942621DF93D92F0E942325E69594
:1049B000D7952AED3FE049E45FE3B33A6207730716
:1049C00084079507D7953AF0A2EA49EC90680E94CF
:1049D00082220E94AA21E1E1F1E00E940D25DD0F73
:1049E00013F00E944724DD0F0BF49058DF910895D7
:1049F0009F3F31F0915020F4879577956795B79553
:104A0000880F911D9695879597F90895915050407C
:104A1000660F771F881FD2F708959F938F937F9318
:104A20006F93FF93EF939B01AC010E942621EF91BE
:104A3000FF910E94AE232F913F914F915F910C9473
:104A400026210C9499210E94C321D8F3E894E0E038
:104A5000BB279F57F0F02AED3FE049EC06C0EE0F70
:104A6000BB0F661F771F881F28F0B23A62077307D3
:104A7000840728F0B25A620B730B840BE3959A9566
:104A800072F7803830F49A95BB0F661F771F881F26
:104A9000D2F790480C94FA240F931F93CF93DF938F
:104AA0008230910510F482E090E0E091A706F09149
:104AB000A80630E020E0B0E0A0E0309799F421159E
:104AC000310509F44AC0281B390B24303105D8F5CB
:104AD0008A819B816115710589F1FB019383828332
:104AE000FE0111C04081518102811381481759078D
:104AF000E0F04817590799F4109761F012960C935B
:104B0000129713961C933296CF01DF91CF911F918C
:104B10000F9108950093A7061093A806F4CF2115CE
:104B2000310551F04217530738F0A901DB019A0112
:104B3000BD01DF01F801C1CFEF01F9CF9093A806C5
:104B40008093A706CDCFFE01E20FF31F81939193CF
:104B50002250310939832883D7CF2091A50630917F
:104B6000A606232B41F420910202309103023093D8
:104B7000A6062093A506209100023091010221157E
:104B8000310541F42DB73EB7409104025091050222
:104B9000241B350BE091A506F091A606E217F3075A
:104BA000A0F42E1B3F0B2817390778F0AC014E5F9D
:104BB0005F4F2417350748F04E0F5F1F5093A6062E
:104BC0004093A506819391939FCFF0E0E0E09CCFC6
:104BD000CF93DF930097E9F0FC01329713821282A2
:104BE000A091A706B091A806ED0130E020E0109753
:104BF000A1F420813181820F931F2091A50630916D
:104C0000A6062817390709F061C0F093A606E093BD
:104C1000A506DF91CF910895EA01CE17DF07E8F5E9
:104C20004A815B819E0141155105B1F7E901FB8382
:104C3000EA8349915991C40FD51FEC17FD0761F420
:104C4000808191810296840F951FE9019983888361
:104C5000828193819B838A83F0E0E0E012968D91BC
:104C60009C9113970097B9F52D913C911197CD0127
:104C70000296820F931F2091A5063091A606281751
:104C8000390739F6309751F51092A8061092A70609
:104C9000B093A606A093A506BCCFD383C283408160
:104CA0005181840F951FC817D90761F44E5F5F4F7C
:104CB00088819981480F591F518340838A819B8144
:104CC000938382832115310509F0B0CFF093A806B4
:104CD000E093A7069ECFFD01DC01C0CF13821282B4
:104CE000D7CF4F925F926F927F928F929F92AF92A7
:104CF000BF92CF92DF92EF92FF920F931F93CF93C9
:104D0000DF938C01009799F4CB01DF91CF911F9134
:104D10000F91FF90EF90DF90CF90BF90AF909F905A
:104D20008F907F906F905F904F900C944C25FC017A
:104D3000E60FF71F9C0122503109E217F30708F430
:104D4000AEC0D901CD91DC911197C617D70720F1DC
:104D5000C530D10578F0CE0104978617970750F03B
:104D6000C61BD70B2297C193D1936D937C93CF0130
:104D70000E94E825C801DF91CF911F910F91FF900C
:104D8000EF90DF90CF90BF90AF909F908F907F90EB
:104D90006F905F904F9008955B01AC1ABD0A4C0173
:104DA0008C0E9D1EA091A706B091A806512C412CF7
:104DB000F12CE12C109731F58091A5069091A60673
:104DC0008815990509F05CC04616570608F058C0CA
:104DD0008091000290910102009741F48DB79EB737
:104DE0004091040250910502841B950BE817F907C6
:104DF00008F055C0F093A606E093A506F90171836B
:104E00006083B8CF8D919C91119712966C901297F8
:104E100013967C901397A815B90559F56C0142E0DB
:104E2000C40ED11CCA14DB0420F1AC014A195B0981
:104E3000DA011296159780F0628273825183408363
:104E4000D9016D937C93E114F10471F0D7011396AD
:104E5000FC93EE9312978ECF22968C0F9D1FF90133
:104E600091838083F301EFCFF093A806E093A70628
:104E700081CF4816590608F42C017D01D3019ACF41
:104E8000CB010E944C257C01009749F0AE01B8018E
:104E90000E945727C8010E94E82587016BCF10E0C8
:104EA00000E068CF81E090E0F8940C946E27FB015D
:104EB000DC0102C001900D9241505040D8F7089596
:104EC000DC0101C06D9341505040E0F70895FB01B3
:104ED000DC0101900D920020E1F70895F894FFCFD6
:104EE0000000A906800066667E7E66667E3C183CF1
:104EF0003C18C3E7E7C31E3FBFBFBF9E4C383C7E94
:104F0000666666667E3CC3C3C3DBFFFFE7C3C3C7F9
:104F1000CFDFFBF3E3C3000000005A0C860BD30B7A
:104F2000A70C040CE20BF60B000000005610291031
:104F300085103E097B0B1610071000000000C1060B
:104F4000860B8510980DEC0C3E0967093F095B093B
:104F50004F096E093E09840B86040509CC088708B1
:104F60002012F207930720202020202020000D0A85
:044F70000024000019
:00000001FF
