:100000000C94E7030C9418040C9418040C94180432
:100010000C9418040C9418040C9418040C941804F0
:100020000C9418040C9418040C9418040C941804E0
:100030000C9418040C9418040C9418040C941804D0
:100040000C9418040C9418040C9418040C941804C0
:100050000C9418040C949F130C9418040C9405121F
:100060000C9418040C9475130C944B130C941804F2
:100070000C9418040C9418040C9418040C94180490
:100080000C9418040C9418040C9418040C94180480
:100090000C9421130C94F7120C9418040C94CD13A7
:1000A0000C9418040C9418040C9418040C94180460
:1000B0000C9418040C9418040C9418040C94180450
:1000C0000C9418040C9418040C9418040C94CD127D
:1000D0000C94A3120C9418040C9479120C944F12E3
:1000E0000C9418040C94200B0C948B0B0C94990614
:1000F0000C94430A0C9417090C942B0A0C943F0996
:100100000C9433090C945F080C94DB100C94550A82
:100110000C94AE100C9446090C9416090C941A0A0F
:100120000C94DD080C945E040C94A4080C943C0C14
:100130000C941F0B0C942D0D0C94350A0C946B072A
:100140000C94100A0C94170B0C94470A0C94220B75
:100150000C943D0A0C94BE110C949B100C948C10C2
:100160000C94EF0B0C942F0A0C94220A0C94990B0C
:100170000C940A110C94CA070C94F1140C941E0AE6
:100180000C94680B0C94510A0C94160A0C944B0AAC
:100190000C94770B0C9427090C941E0B0C94250AD5
:1001A0000C94390A0C94500A0C94810C0000200025
:1001B0002300260029002C002F003200000100003F
:1001C00003010601090100002200250028002B0080
:1001D0002E003100340002010000050108010B016E
:1001E00000000A0B02090C0D0E08070304010000B1
:1001F00000000000000000000000000000000000FF
:1002000000000000000000000000000012111000BB
:1002100000000000000000000000000000000000DE
:1002200000000000000000000000003E5B4F5B3E4D
:100230003E6B4F6B3E1C3E7C3E1C183C7E3C181CAB
:10024000577D571C1C5E7F5E1C00183C1800FFE7A2
:10025000C3E7FF0018241800FFE7DBE7FF30483A48
:10026000060E2629792926407F050507407F0525AA
:100270003F5A3CE73C5A7F3E1C1C08081C1C3E7F32
:1002800014227F22145F5F005F5F06097F017F00F9
:100290006689956A606060606094A2FFA294080419
:1002A0007E040810207E201008082A1C08081C2A3A
:1002B00008081E101010100C1E0C1E0C30383E3892
:1002C00030060E3E0E06000000000000005F000039
:1002D0000007000700147F147F14242A7F2A1223AA
:1002E0001308646236495620500008070300001CBA
:1002F0002241000041221C002A1C7F1C2A08083EC3
:1003000008080080703000080808080800006060D5
:100310000020100804023E5149453E00427F400043
:1003200072494949462141494D331814127F10271B
:10033000454545393C4A494931412111090736496A
:10034000494936464949291E00001400000040343E
:100350000000000814224114141414140041221443
:100360000802015909063E415D594E7C1211127C6A
:100370007F494949363E414141227F4141413E7FCB
:10038000494949417F090909013E414151737F08AB
:1003900008087F00417F41002040413F017F081451
:1003A00022417F404040407F021C027F7F040810B2
:1003B0007F3E4141413E7F090909063E4151215E90
:1003C0007F09192946264949493203017F01033F24
:1003D0004040403F1F2040201F3F4038403F6314B3
:1003E00008146303047804036159494D43007F41B5
:1003F00041410204081020004141417F04020102F2
:100400000440404040400003070800205454784016
:100410007F284444383844444428384444287F38AA
:100420005454541800087E090218A4A49C787F082C
:1004300004047800447D40002040403D007F1028A7
:10044000440000417F40007C047804787C08040468
:10045000783844444438FC1824241818242418FC00
:100460007C08040408485454542404043F44243CA5
:100470004040207C1C2040201C3C4030403C442814
:100480001028444C9090907C4464544C44000836AE
:10049000410000007700000041360800020102041C
:1004A000023C2623263C1EA1A161123A4040207A3C
:1004B0003854545559215555794122545478422184
:1004C0005554784020545579400C1E5272123955BB
:1004D00055555939545454593955545458000045B8
:1004E0007C410002457D420001457C407D12111295
:1004F0007DF0282528F07C545545002054547C5428
:100500007C0A097F4932494949323A4444443A32E3
:100510004A4848303A4141217A3A42402078009D89
:10052000A0A07D3D4242423D3D4040403D3C24FF35
:100530002424487E4943662B2FFC2F2BFF0929F6E4
:1005400020C0887E090320545479410000447D4135
:100550003048484A32384040227A007A0A0A727D8E
:100560000D19317D2629292F2826292929263048A9
:100570004D4020380808080808080808382F10C817
:10058000ACBA2F102834FA00007B000008142A149B
:100590002222142A14085500550055AA55AA55AA16
:1005A000FF55FF55FF000000FF00101010FF001462
:1005B0001414FF001010FF00FF1010F010F01414BE
:1005C00014FC001414F700FF0000FF00FF1414F4E3
:1005D00004FC141417101F10101F101F1414141FE4
:1005E00000101010F0000000001F101010101F105D
:1005F000101010F010000000FF101010101010105C
:100600001010FF10000000FF140000FF00FF0000AA
:100610001F10170000FC04F414141710171414F41E
:1006200004F40000FF00F714141414141414F70059
:10063000F7141414171410101F101F141414F414AA
:100640001010F010F000001F101F0000001F140019
:100650000000FC140000F010F01010FF10FF141444
:1006600014FF141010101F00000000F010FFFFFF17
:10067000FFFFF0F0F0F0F0FFFFFF0000000000FFD0
:10068000FF0F0F0F0F0F3844443844FC4A4A4A34D6
:100690007E02020606027E027E02635549416338ED
:1006A00044443C04407E201E2006027E020299A59E
:1006B000E7A5991C2A492A1C4C7201724C304A4DFC
:1006C0004D303048784830BC625A463D3E49494931
:1006D000007E0101017E2A2A2A2A2A44445F4444DA
:1006E00040514A444040444A51400000FF0103E069
:1006F00080FF000008086B6B083612362436060FA0
:10070000090F06000018180000001010003040FF0C
:100710000101001F01011E00191D1712003C3C3C85
:100720003C000000000000002100240027002A00F7
:100730002D003000330001010000040107010A010F
:1007400001021020200808102040102040800201E3
:1007500002010804020101020408102040808040C8
:1007600020100804020180040201804020100804C7
:100770000201080402010102040810204080010265
:10078000040810204080050505050705080808082D
:10079000020202020A0A0808040404040101010119
:1007A0000101010103030303030303030407070714
:1007B0000C0C0C0C0C0C0C0C0202020206060606B9
:1007C000060606060B0B0B0B0B0B0B0BF11411247F
:1007D0001FBECFEFD1E2DEBFCDBF00E00CBF12E005
:1007E000A0E0B2E0ECEBF9E300E00BBF02C0079041
:1007F0000D92A038B107D9F726E0A0E8B2E001C019
:100800001D92AA38B207E1F713E0C7EED3E000E08B
:1008100006C021970109802FFE010E94A31BC63E3E
:10082000D10780E00807A9F70E94C0160C94DC1CD1
:100830000C940000CF93DF93EC019A01AB01E8899F
:10084000F98982E08083211581EE38074105510541
:1008500081F160E079E08DE390E00E94661B215019
:100860003109410951095695479537952795EC85EA
:10087000FD851082EE85FF852083188EEC89FD8929
:1008800086E08083EA89FB89808180618083EA89B0
:10089000FB89808188608083EA89FB898081806808
:1008A0008083EA89FB8980818F7D8083DF91CF916E
:1008B0000895E889F989108220E1D9CF0895FC01D3
:1008C0006370668B8481958126813781613039F030
:1008D000633029F091878087338722870895318795
:1008E00020879387828708952F923F924F925F923D
:1008F0006F927F928F929F92AF92BF92CF92DF9230
:10090000EF92FF920F931F93CF93DF93CDB7DEB794
:100910006A970FB6F894DEBF0FBECDBF9A8F898F4E
:100920007A8369834A01D22E18870F833701BC2C42
:10093000DC0159962D913C915A972115310509F00A
:1009400015C118968D919C911997681779070CF02D
:10095000D7C11A968D919C91481759070CF0D0C1B8
:100960004C2C512CB6E0CB9E600D711D11247C8760
:100970006B87161617060CF0C3C1EA2DF0E0FA8754
:10098000E98793E0EE0FFF1F9A95E1F7F88BEF8769
:10099000CF01840F951F181619060CF0B1C1A98D4F
:1009A000BA8D58968C91811104C0BFEABD1508F428
:1009B000D394A98DBA8DED91FC9111970284F385A2
:1009C000E02DCD011995B5E0DB9EC0011124E98130
:1009D000FA81FC83EB83312C212C9C012A5D3D4F55
:1009E000388F2F8B4A2D50E05E8B4D8BEF89F88D21
:1009F000E20DF31D44919E828D82D12CC12C698120
:100A00007A81620D731D7A8B698B842F90E09C8BA9
:100A10008B8BE98DFA8DA081B18140FF82C0F1E01E
:100A2000BF126FC0AF126DC01C96ED91FC912F816B
:100A30003885A4014C0D5D1D69897A89898D9A8D4F
:100A40001995EB89FC89F595E7954E2F5FEFC51A4F
:100A5000D50A6D817E818D899E89680F791F7E837D
:100A60006D8398E0C916D10481F6AFEF2A1A3A0ACD
:100A7000EB81FC81E40DF51DFC83EB83F5E02F1683
:100A8000310409F0B3CF2F81388526153705B9F029
:100A9000A98DBA8DED91FC91B1E0BB1257C0AB129C
:100AA00055C069817A816B5F7F4F0088F189E02DA5
:100AB000830128E030E0A401898D9A8D1995A98DD4
:100AC000BA8DED91FC9111970688F789E02DCD0143
:100AD0006A960FB6F894DEBF0FBECDBFDF91CF91FF
:100AE0001F910F91FF90EF90DF90CF90BF90AF904C
:100AF0009F908F907F906F905F904F903F902F903E
:100B000019941E96ED91FC91EF80F88409851A8561
:100B100092014D815E816B817C81898D9A8D1995C1
:100B200090CF2F8138852615370509F48ACF31E01B
:100B3000B31207C0A31205C01C96ED91FC9193015E
:100B400078CF1E96ED91FC917301E0CF6B857C858B
:100B5000641975090684F785E02D73010F851889DE
:100B60009201A401898D9A8D1995A9CFF901349626
:100B70009491329745915491D91AB7E0DB9E400D7C
:100B8000511D1124F901259134913C8B2B8BFA01D5
:100B900025903490FA013296749031963491398BC5
:100BA000329664903196449041E04C1518F04A1505
:100BB00008F07FC0662D062C000C770B7C836B83BE
:100BC000842D042C000C990B9E838D83A98DBA8DE6
:100BD000ED91FC9111970284F385E02DCD011995DB
:100BE000512CD12CC12CEA2DF0E0FA87E9872B2D6E
:100BF00030E03C872B87A401440D511D47FC5A95DA
:100C0000588F4F8B69817A81660D711D67FC7A95CB
:100C10007E876D877989C71608F051CF2C2D30E07B
:100C20004D815E81420F531FA985BA854A9FC0013D
:100C30004B9F900D5A9F900D1124FC01E80DF91D5A
:100C4000F88BEF87852D612C4F89588D420F531FEC
:100C50005E8B4D8B671408F050C044244394480EBB
:100C6000877041F4C1010196EB89FC89E20DF31D07
:100C7000D4901C01D7FE19C0A98DBA8DED91FC91BD
:100C8000662D70E0B1E0BB1219C0AB1217C02D8504
:100C90003E85620F731F0484F585E02D2F81388512
:100CA0004D895E89898D9A8D1995DD0C6394842D0B
:100CB000D1CF1E821D821C821B8288CF4B815C811A
:100CC000640F751FAB85BC856A9FC0016B9F900D3B
:100CD0007A9F900D112469817A81680F791F0684AB
:100CE000F785E02DEF80F88409851A859D014F85F1
:100CF0005889898D9A8D1995D8CF570CC3948ACF6E
:100D00006A960FB6F894DEBF0FBECDBFDF91CF91CC
:100D10001F910F91FF90EF90DF90CF90BF90AF9019
:100D20009F908F907F906F905F904F903F902F900B
:100D300008958F929F92AF92CF92EF92FF920F936E
:100D40001F93CF93DF93EC01262F898D9A8D009707
:100D500009F051C06A30D1F41D861C868D8948E0A7
:100D6000849F900111248E859F85820F931F9F87FA
:100D70008E8781E090E0DF91CF911F910F91FF90DE
:100D8000EF90CF90AF909F908F9008956D3089F342
:100D9000CC88AD888F898823C1F08C859D8536E00D
:100DA000C39E800D911D1124488559854817590708
:100DB00064F44E855F851D861C8638E0A39EC001C5
:100DC0001124840F951F9F878E87EA88FB880889E6
:100DD00019894E855F856C857D85CE010E947404DE
:100DE0002C898C859D8546E0249F800D911D1124C2
:100DF0009D878C87BECF6A3069F41D861C86FC01F6
:100E00003896E4912D898E859F85E29F800D911DF6
:100E10001124ADCF6D3009F4ACCFFC013496349180
:100E2000631708F4A6CF3296E491E61708F4A1CF31
:100E3000FC01329685909490462F431B342F47E057
:100E4000349F800C911C1124F40132963491319618
:100E5000E4913323A9F1EE2399F1CC88F40135967E
:100E6000E491AD884F89442301F10E2E000CFF0B55
:100E7000E30FF11DCE9EA001CF9E500D11246C8575
:100E80007D85460F571F68857985641775076CF453
:100E90004E855F851D861C86FC013896E491AE9ECA
:100EA000400D511D11245F874E87EA88FB88088911
:100EB00019894E855F856C857D85CE010E947404FD
:100EC000F4013496E4912C898C859D85E29F800DF8
:100ED000911D11248DCF6F927F928F929F92AF922E
:100EE000BF92CF92DF92EF92FF920F931F93CF9317
:100EF000DF93EC016B015A0139014801E881F98166
:100F00000284F385E02D1995E881F9810288F3893F
:100F1000E02D87019301A501B601CE011995A50128
:100F2000480D591D41505109E881F9810288F38922
:100F3000E02D9301B601CE011995E881F981008871
:100F4000F189E02D9401A501B601CE011995C60CD9
:100F5000D71CB60161507109E881F9810088F189D7
:100F6000E02D9401A501CE011995E881F98106884B
:100F7000F789E02DCE01DF91CF911F910F91FF9066
:100F8000EF90DF90CF90BF90AF909F908F907F9029
:100F90006F9019946F927F928F929F92AF92BF92AF
:100FA000CF92DF92EF92FF920F931F93CF93DF9335
:100FB0005C01EB016A01490138018701DC01ED9117
:100FC000FC916217730719F5641675062CF0962DBF
:100FD000872D3A01C92ED82E9601261937092F5F81
:100FE0003F4F048CF58DE02DA301BE01C50119957D
:100FF000DF91CF911F910F91FF90EF90DF90CF90F5
:10100000BF90AF909F908F907F906F9008954615FE
:10101000570591F42617370724F0892D4B01C22F6D
:10102000D82F9E01281939092F5F3F4F068CF78D65
:10103000E02DA601B401DACF0284F385E02D1995E5
:10104000D501ED91FC910488F589E02D830194018F
:10105000A601BE01C5011995D501ED91FC91068847
:10106000F789E02DC501DF91CF911F910F91FF907E
:10107000EF90DF90CF90BF90AF909F908F907F9038
:101080006F901994EF92FF920F931F93DC011A96C1
:101090000D911C911B9718962D913C911997ED91EC
:1010A000FC9100A0F1A1E02D7B0150E040E070E058
:1010B00060E019951F910F91FF90EF9008954F9266
:1010C0005F926F927F928F929F92AF92BF92CF92D8
:1010D000DF92EF92FF920F931F93CF93DF936C01F8
:1010E0002B015A0139014801DC01ED91FC91028488
:1010F000F385E02D1995E201640C751CD601ED9184
:10110000FC91C615D7055CF40088F189E02D8701B4
:101110009401A501BE01C60119952196EFCF06885D
:10112000F789E02DC601DF91CF911F910F91FF90BC
:10113000EF90DF90CF90BF90AF909F908F907F9077
:101140006F905F904F9019948F929F92AF92BF9241
:10115000CF92DF92EF92FF920F931F93CF93DF9383
:10116000EC015B014A016901E881F9810284F385A0
:10117000E02D199595012C0D3D1D21503109E88177
:10118000F9810488F589E02D78018401A401B50175
:10119000CE011995E881F9810688F789E02DCE0105
:1011A000DF91CF911F910F91FF90EF90DF90CF9043
:1011B000BF90AF909F908F9019948F929F92AF9213
:1011C000BF92CF92DF92EF92FF920F931F93CF9334
:1011D000DF93EC015B014A0169017801E881F98143
:1011E0000284F385E02D1995C80CD91C86010150A5
:1011F0001109E881F9810488F589E02D9501A401A0
:10120000B501CE011995E881F9810688F789E02DAD
:10121000CE01DF91CF911F910F91FF90EF90DF9062
:10122000CF90BF90AF909F908F9019940895EF92B8
:10123000FF920F931F93DC01ED91FC9100A0F1A1AF
:10124000E02D19951F910F91FF90EF9008950F9346
:101250001F93DC01ED91FC91068CF78DE02D199523
:101260001F910F9108950F931F93DC01ED91FC9155
:10127000048CF58DE02D19951F910F910895DC01D7
:10128000ED91FC910084F185E02D19942F923F920D
:101290004F925F926F927F928F929F92AF92BF9286
:1012A000CF92DF92EF92FF920F931F93CF93DF9332
:1012B00000D000D0CDB7DEB73C016A013E832D835C
:1012C000FC82EB825801A41AB50AB7FE03C0B194A0
:1012D000A194B1088D809E80861A970A97FE03C05C
:1012E0009194819491088A149B045CF0902F812F33
:1012F0000D811E819D838E839C2D8D2D6B01692F09
:10130000782F0C151D055CF09D818E817E836D8389
:10131000692F782F902F812F8601C92ED82E160184
:10132000201A310A2B012D813E81421A530A57FEA1
:1013300003C0519441945108710137FE03C03FEF3F
:10134000E31AF30AF594E7948D819E818617970737
:101350005CF5A1E0B0E0BA83A983C016D1064CF1D8
:10136000D301ED91FC910484F585E02D2B813C8126
:10137000A8016D817E818A149B041CF04D815E81E1
:10138000B801C3011995E418F508F7FE0AC02D81CC
:101390003E8189819A81280F391F3E832D83E20C7B
:1013A000F31C0F5F1F4FD9CF2FEF3FEF3A832983F5
:1013B000D4CF26960FB6F894DEBF0FBECDBFDF9117
:1013C000CF911F910F91FF90EF90DF90CF90BF9042
:1013D000AF909F908F907F906F905F904F903F90D5
:1013E0002F9008958150823108F05AC0E82FF0E024
:1013F0008827E250F64F8F4F0C94A31B1E0A220A37
:10140000100A160A1A0A500A250A2B0A2F0A350A48
:10141000390A3D0A430A470A500A4B0A510A550A3B
:10142000809180008F778093800008958091800064
:101430008F7DF9CF80918000877FF5CF84B58F773E
:1014400084BD089584B58F7DFBCF8091B0008F77E8
:101450008093B00008958091B0008F7DF9CF809186
:1014600090008F77809390000895809190008F7DF9
:10147000F9CF80919000877FF5CF8091A0008F7782
:101480008093A00008958091A0008F7DF9CF809176
:10149000A000877FF5CF809120018F778093200176
:1014A0000895809120018F7DF9CF80912001877F61
:1014B000F5CF1F93CF93DF93282F30E0F901E0524F
:1014C000FE4F8491F901E05CF84FD491F901EA579D
:1014D000F84FC491CC23A9F0162F81110E94F20974
:1014E000EC2FF0E0EE0FFF1FEA53FE4FA591B491F1
:1014F0008FB7F894EC91111108C0D095DE23DC93DE
:101500008FBFDF91CF911F910895DE2BF8CFCF933E
:10151000DF93C82FD62F60E08091EF050E94590A13
:101520009FEF9C0F8091F205890F8850CEBD00007F
:101530000DB407FEFDCF2EB52D2FC93038F4E09144
:10154000F005F091F105E80FF11D20812EBD00009E
:101550000DB407FEFDCF2EB5981738F361E08091EA
:10156000EF05DF91CF910C94590ACF93DF9390E070
:10157000FC01E05CF84F24918A57984FFC0184915C
:101580008823D1F090E0880F991FFC01EA5DF84FA5
:10159000A591B491FC01EA53FE4FC591D4916230FC
:1015A00071F49FB7F8943C91822F809583238C939C
:1015B000E8812E2B28839FBFDF91CF9108958FB7AD
:1015C000F894EC912E2B2C938FBFF6CF3FB7F89465
:1015D0008091FF0290910003A0910103B09102035A
:1015E00026B5A89B05C02F3F19F00196A11DB11D7E
:1015F0003FBFBA2FA92F982F8827BC01CD01620FBA
:10160000711D811D911D42E0660F771F881F991F74
:101610004A95D1F708952FB7F8946091FB02709125
:10162000FC028091FD029091FE022FBF08958091EF
:10163000EB029091EA02891B990B08950895089591
:101640000C945F04AF92BF92CF92DF92EF92FF9221
:101650000F931F93CF93DF936C017B018B01040FDA
:10166000151FEB015E01AE18BF08C017D10759F076
:101670006991D601ED91FC910190F081E02DC601B8
:101680001995892B79F7C501DF91CF911F910F91A2
:10169000FF90EF90DF90CF90BF90AF900895FC0146
:1016A000A089B1898C91A689B78982FD0FC09C91D0
:1016B000818D8F5F8F73228D821749F0A18DAE0FC0
:1016C000BF2FB11D5D969C93818F08958C910895D5
:1016D000FC01538D448D252F30E0842F90E0821B38
:1016E000930B541710F0CF96089501970895FC01BD
:1016F000918D828D981761F0A28DAE0FBF2FB11D15
:101700005D968C91928D9F5F9F73928F90E008956C
:101710008FEF9FEF0895FC01918D828D981731F026
:10172000828DE80FF11D858D90E008958FEF9FEF7A
:101730000895FC01918D228D892F90E0805C9F4F50
:10174000821B91098F739927089583E593E00E9486
:10175000990B21E0892B09F420E0822F089580EF76
:1017600093E00E94990B21E0892B09F420E0822F5D
:1017700008958DE894E00E94990B21E0892B09F4EB
:1017800020E0822F08958AE295E00E94990B21E0E3
:10179000892B09F420E0822F0895FC01A48DA80F65
:1017A000B92FB11DA35ABF4F2C91848D90E00196A3
:1017B0008F739927848FA689B7892C93A089B189C3
:1017C0008C91837080648C93938D848D981306C064
:1017D0000288F389E02D80818F7D80830895EF92C8
:1017E000FF920F931F93CF93DF93EC0181E0888FDB
:1017F0009B8D8C8D98131AC0E889F989808185FFAB
:1018000015C09FB7F894EE89FF896083E889F9894C
:1018100080818370806480839FBF81E090E0DF914E
:10182000CF911F910F91FF90EF900895F62E0B8DA1
:1018300010E00F5F1F4F0F731127E02E8C8D8E115C
:101840000CC00FB607FCFACFE889F989808185FFC3
:10185000F5CFCE010E94CD0BF1CFEB8DEC0FFD2F1C
:10186000F11DE35AFF4FF0829FB7F8940B8FEA897E
:10187000FB8980818062CFCFCF93DF93EC01888D8D
:101880008823B9F0AA89BB89E889F9898C9185FDFB
:1018900003C0808186FD0DC00FB607FCF7CF8C9189
:1018A00085FFF2CF808185FFEDCFCE010E94CD0B69
:1018B000E9CFDF91CF91089580E090E0892B29F066
:1018C0000E94C30B81110E94000080E090E0892BF0
:1018D00029F00E94B90B81110E94000080E090E085
:1018E000892B29F00E94AF0B81110E94000080E03B
:1018F00090E0892B29F00E94A50B81110C94000027
:101900000895EF92FF920F931F93CF93DF93FC0103
:101910007901342F8689882309F493C0823038F006
:10192000C085D18521978E01061B170BB8019FEF4B
:10193000980F923018F432853150341B80FF81C0EB
:10194000862F632F70E0382F448155816417750707
:101950000CF079C0832F90E0C681D7818C179D074A
:101960000CF071C0278DA3E095958795AA95E1F7B6
:10197000289F8001299F100D1124CB01B3E095957C
:101980008795BA95E1F7C0A1D1A1C00FD11FC80FAB
:10199000D91F8881EB01C770DD273770082F10E051
:1019A00062A173A1600F711FDB019C91923030F036
:1019B00067E070E0DB01AC1BBD0BED016FEF690F61
:1019C000623018F467E0631B362F90FF04C09C2F31
:1019D000C32FD0E0392F622F0E94971B982F990FA9
:1019E000990F990F390FB801289F601971091124B7
:1019F00083E0660F771F8A95E1F76C0F7D1F832FB9
:101A000090E023E0959587952A95E1F7849FE00182
:101A1000859FD00D949FD00D11246C0F7D1F048CD9
:101A2000F58DE02DE60FF71F377081E090E001C0E3
:101A3000880F3A95EAF72081EF2861F0822B8083A6
:101A400002C077FF81CFDF91CF911F910F91FF905F
:101A5000EF90089580958223F2CF0895DC01ED91F7
:101A6000FC910190F081E02D19942F923F924F92BA
:101A70005F926F927F928F929F92AF92BF92CF921E
:101A8000DF92EF92FF920F931F93CF93DF93EC01BE
:101A9000FC01E857FF4F80819181009711F00E946F
:101AA000350D8E01085B1F4F3E012AE4620E711C4A
:101AB0001E0137E8230E311CEBE84E2E55245394BB
:101AC0008C819D81DC01ED91FC910084F185E02DFC
:101AD0001995181619060CF0B6C10E940B0BCE8092
:101AE000DF80E884F9849B01AC012C193D094E0983
:101AF0005F0969017A0133E0C316D104E104F104FE
:101B000008F01B826E837F83888799878C819D81F3
:101B1000DC01ED91FC910284F385E02D1995282FCD
:101B20003B81313009F447C098F1323009F459C093
:101B3000333031F6D3012C91982F8827820F911DD5
:101B4000F801208131812817390701F52A85F22F04
:101B5000FF709F2E203409F048C0DE0121E0E22F03
:101B6000E695F0E07696EE0FFF1FEC0FFD1F1C963A
:101B70009C911C971B968C911B97918380832E5F61
:101B800012962D3161F78A818F5F8A83B4E027C076
:101B90003CEF380F3D3160F41AA623502BA799274C
:101BA00080959095F80191838083F1E0FB8388CF45
:101BB00024E02B8385CFEAA541E04E0F4AA7EC0F26
:101BC000FD2FF11D8287D8012D913C911197281B83
:101BD00031092D933C938BA5B2E0481371CFBB83A1
:101BE0006FCFF3018083F3E0E1CFD1018C918F17A8
:101BF00068F2FF2359F28BA5813041F68C819D81DB
:101C0000EF2EF12C5701B1E0AB1AB108F201319778
:101C1000F1F7207F203999F1203A09F471C020387A
:101C200009F0B4CF28812F5F288364E070E00E9420
:101C30002E0DB70160587F4F8C819D810E942E0D23
:101C4000E4E8EE0EF11CE094F094D801ED92FC92E1
:101C50008C819D81DC01ED91FC910190F081E02D62
:101C6000D8016C9119958C819D81F8016181DC010D
:101C7000ED91FC910190F081E02D199587CF66E000
:101C800070E00E942E0DB70160577F4F8C819D81BF
:101C90000E942E0D8C819D81B6E0BA9D6001BB9D96
:101CA000D00C1124CC0EDD1E5601EBE4AE0EB11C9F
:101CB000DC01ED91FC910190F081E02DD5016C915A
:101CC00019958C819D81BCE4CB0ED11CDC01ED917A
:101CD000FC910190F081E02DD6016C911995B6E947
:101CE000EB0EF11CF5018081E80EF11CD6018C9100
:101CF000E80EF11CE094F094F801F182E082A8CFA4
:101D000029812F5F2983F6E0FA9D7001FB9DF00C7D
:101D10001124EC0EFD1E67012CE4C20ED11CD6016D
:101D20002C9144E0B42EB20EDC01ED91FC910190B7
:101D3000F081E02D6B2D19958B2D90E0809590957D
:101D4000F801918380838C819D81F0EA9F0EDC01F4
:101D5000ED91FC910190F081E02D692D1995F8012C
:101D60008081918189199109918380838C819D81E2
:101D7000FDE4EF0EF11CD701BC90DC01ED91FC916C
:101D80000190F081E02D6B2D1995F80180819181F2
:101D90008B199109918380838C819D81D7018D90CE
:101DA0009D90AD90BC90892C9A2CAB2CBB24A7FCA9
:101DB000BA94DC01ED91FC910190F081E02D682D49
:101DC0001995F80180819181881991099183808307
:101DD000D6018C91843009F03BCF8C819D81F70135
:101DE00080809180A280B3804501BB2497FCB09491
:101DF000AB2CDC01ED91FC910190F081E02D682D80
:101E00001995F801808191818819910991838083C6
:101E10008C819D81D701CD90DD90ED90FC90CF2CF1
:101E2000DD24EE24FF24DC01ED91FC910190F08192
:101E3000E02D6C2D1995F801808191818C199D09F7
:101E40009183808305CFDF91CF911F910F91FF90F8
:101E5000EF90DF90CF90BF90AF909F908F907F904A
:101E60006F905F904F903F902F9008952091A10226
:101E7000260F3327331F21323105ECF4209129033B
:101E8000FC0190E080E0243069F082E00895A091A8
:101E9000A1022191AC014F575D4FA40FB52FB11D89
:101EA0002C930196861798F38091A102680F609396
:101EB000A10280E0089581E008951092290381E055
:101EC000809328031092030361E084E10E94590A81
:101ED00061E085E10E94590AE9EBF0E080818E7FA4
:101EE000808380818D7F808388E48093B80085E43F
:101EF0008093BC000895CF93DF9391E0909380028C
:101F00008823B9F0C091B800D091BA008091BC008C
:101F10008A7B8093BC0060E084E10E94590A60E003
:101F200085E10E94590A0E945D0FD093BA00C093C8
:101F3000B800DF91CF9108958F929F92AF92BF9298
:101F4000CF92DF92EF92FF920F931F93CF93DF9385
:101F5000D0915203D13208F0D7C0182FC09151034D
:101F60000E94E60A6B017C018091290381116BC0FC
:101F700082E080932903109328038FEF8093270337
:101F800010922603D0932503A1E3B3E0E5E0F3E04C
:101F900080E0D81391C01092040380910403CC0F09
:101FA000C82BC093040380910303813009F088C0DB
:101FB000109203030E94E60A6B017C0180910403E6
:101FC0008093BB0080912B0390912C03A0912D0353
:101FD000B0912E03892B8A2B8B2BA1F00E94E60A4D
:101FE00000912B0310912C0320912D0330912E038F
:101FF0006C197D098E099F090617170728073907ED
:1020000008F442C08091BC0083FDD8CF85EC80935A
:10201000BC000E94E60A6B017C018091290382309A
:1020200009F450C0809127038F3F09F46FC080915D
:102030002703803209F46CC080912703803309F4B0
:1020400069C084E026C080912B0390912C03A0915D
:102050002D03B0912E03892B8A2B8B2B09F484CF6F
:102060000E94E60A80902B0390902C03A0902D03F1
:10207000B0902E036C197D098E099F09861697066C
:10208000A806B90608F070CF80912A030E947B0F42
:1020900085E0109230031092520310922F03DF91CB
:1020A000CF911F910F91FF90EF90DF90CF90BF9055
:1020B000AF909F908F9008959D9191938F5F69CF7E
:1020C00085EEA5CF80912B0390912C03A0912D0339
:1020D000B0912E03892B8A2B8B2B09F49ECF0E9463
:1020E000E60A00912B0310912C0320912D033091CF
:1020F0002E036C197D098E099F09061717072807FB
:10210000390708F08ACFC0CF81E0C3CF80E0C1CFCC
:1021100082E0BFCF83E0BDCFE091EA028091EB0285
:10212000E81730F4F0E0E653FD4F808190E0089529
:102130008FEF9FEF08959091EA028091EB022FEFCD
:102140003FEF981748F4E92FF0E0E653FD4F208168
:1021500030E09F5F9093EA02C9010895CF92DF9229
:10216000EF92FF920F931F93CF93DF937C01CB01EC
:102170008A0120912F03222389F0EB016B01C40E09
:10218000D51ECC15DD0569F06991D701ED91FC9163
:102190000190F081E02DC7011995F3CF642F0E94C3
:1021A000360FC801DF91CF911F910F91FF90EF90F3
:1021B000DF90CF900895CF93DF931F92CDB7DEB716
:1021C000698320912F032223F9F0209152032032BA
:1021D00058F021E030E0FC013383228390E080E07E
:1021E0000F90DF91CF91089580913003E82FF0E0B8
:1021F000EF5CFC4F998190838F5F809330038093D5
:10220000520381E090E0ECCF61E0CE0101960E94A4
:10221000360FF7CF90E080E008950F931F93CF9390
:10222000DF9380EF93E00E94770B8C0180EF93E0C7
:102230000E94770BEC0180EF93E00E94770B44E65D
:10224000409F9001419F300D11246AE06C9FA001D6
:102250006D9F500D1124240F351F285C3109820F0A
:10226000931FDF91CF911F910F9108950E94D01C71
:102270008F929F92AF92BF92EF92FF920F931F9314
:10228000CF93DF93CDB7DEB7A1970FB6F894DEBF3B
:102290000FBECDBF7C01FA01CB0119A2223008F498
:1022A0002AE08E010F5D1F4F822E912CB12CA12CA4
:1022B000BF01A50194010E94661BF901CA016A30A1
:1022C0004CF5605DD8016E938D01232B242B252BBB
:1022D00079F790E080E0109761F0FD010190002017
:1022E000E9F73197AF014A1B5B0BBD01C7010E94A3
:1022F000220BA1960FB6F894DEBF0FBECDBFDF91C3
:10230000CF911F910F91FF90EF90BF90AF909F9052
:102310008F900895695CD6CFCF92DF92EF92FF92B3
:102320000F931F93CF93DF9377FF1DC06A017B014B
:10233000EC016DE20E94EF0B8C0144275527BA0196
:102340004C195D096E097F092AE0CE010E943811FF
:10235000800F911FDF91CF911F910F91FF90EF9010
:10236000DF90CF9008952AE0DF91CF911F910F91D8
:10237000FF90EF90DF90CF900C943811FC01468DC8
:1023800050E0672B39F470E060E0FC01848D958D9E
:102390000C94D51C6FEF70E0F8CF85ED8093BC00F6
:1023A00080912B0390912C03A0912D03B0912E03CB
:1023B0000796A11DB11D23E0B695A7959795879522
:1023C0002A95D1F72091BC0024FD03C01092290367
:1023D000089540912B0350912C0360912D0370912F
:1023E0002E03452B462B472B69F30097A105B1051A
:1023F00041F025E32A95F1F700000197A109B10901
:10240000E1CF80912A030C947B0F1F920F920FB69D
:102410000F9211242F933F938F939F93AF93BF936A
:102420008091FB029091FC02A091FD02B091FE020E
:102430003091FA0223E0230F2D3758F50196A11DA4
:10244000B11D2093FA028093FB029093FC02A093AB
:10245000FD02B093FE028091FF0290910003A091D3
:102460000103B09102030196A11DB11D8093FF02EB
:1024700090930003A0930103B0930203BF91AF9127
:102480009F918F913F912F910F900FBE0F901F90B2
:10249000189526E8230F0296A11DB11DD2CF1F92D9
:1024A0000F920FB60F9211240BB60F922F933F93FA
:1024B0004F935F936F937F938F939F93AF93BF934C
:1024C000EF93FF9383E593E00E94CD0BFF91EF9193
:1024D000BF91AF919F918F917F916F915F914F913C
:1024E0003F912F910F900BBE0F900FBE0F901F903A
:1024F00018951F920F920FB60F9211240BB60F92E0
:102500002F933F934F935F936F937F938F939F93FB
:10251000AF93BF93EF93FF9383E593E00E944F0B3C
:10252000FF91EF91BF91AF919F918F917F916F91AB
:102530005F914F913F912F910F900BBE0F900FBE67
:102540000F901F9018951F920F920FB60F921124A3
:102550000BB60F922F933F934F935F936F937F939D
:102560008F939F93AF93BF93EF93FF9380EF93E08D
:102570000E94CD0BFF91EF91BF91AF919F918F91F1
:102580007F916F915F914F913F912F910F900BBE73
:102590000F900FBE0F901F9018951F920F920FB6BD
:1025A0000F9211240BB60F922F933F934F935F938B
:1025B0006F937F938F939F93AF93BF93EF93FF930B
:1025C00080EF93E00E944F0BFF91EF91BF91AF918D
:1025D0009F918F917F916F915F914F913F912F913B
:1025E0000F900BBE0F900FBE0F901F9018951F926B
:1025F0000F920FB60F9211240BB60F922F933F93A9
:102600004F935F936F937F938F939F93AF93BF93FA
:10261000EF93FF938DE894E00E94CD0BFF91EF9133
:10262000BF91AF919F918F917F916F915F914F91EA
:102630003F912F910F900BBE0F900FBE0F901F90E8
:1026400018951F920F920FB60F9211240BB60F928E
:102650002F933F934F935F936F937F938F939F93AA
:10266000AF93BF93EF93FF938DE894E00E944F0BDD
:10267000FF91EF91BF91AF919F918F917F916F915A
:102680005F914F913F912F910F900BBE0F900FBE16
:102690000F901F9018951F920F920FB60F92112452
:1026A0000BB60F922F933F934F935F936F937F934C
:1026B0008F939F93AF93BF93EF93FF938AE295E03D
:1026C0000E94CD0BFF91EF91BF91AF919F918F91A0
:1026D0007F916F915F914F913F912F910F900BBE22
:1026E0000F900FBE0F901F9018951F920F920FB66C
:1026F0000F9211240BB60F922F933F934F935F933A
:102700006F937F938F939F93AF93BF93EF93FF93B9
:102710008AE295E00E944F0BFF91EF91BF91AF913C
:102720009F918F917F916F915F914F913F912F91E9
:102730000F900BBE0F900FBE0F901F9018951F9219
:102740000F920FB60F9211240BB60F922F933F9357
:102750004F935F936F937F938F939F93AF93BF93A9
:10276000EF93FF938091C4029091C502009711F0FE
:102770000E94350DFF91EF91BF91AF919F918F9185
:102780007F916F915F914F913F912F910F900BBE71
:102790000F900FBE0F901F9018951F920F920FB6BB
:1027A0000F9211240BB60F922F933F934F935F9389
:1027B0006F937F938F939F93AF93BF93EF93FF9309
:1027C0008091B900887F803609F44DC008F040C080
:1027D000883209F4A9C028F5803109F49DC0C8F4F5
:1027E000882309F4FBC0883009F496C0FF91EF916B
:1027F000BF91AF919F918F917F916F915F914F9119
:102800003F912F910F900BBE0F900FBE0F901F9016
:102810001895883109F488C0803241F780932703E6
:1028200014C0803409F49DC040F48033B9F3883378
:10283000E9F68093270385ECB0C0803509F485C0A4
:10284000883509F496C0883489F60E94CD11CECF20
:10285000883909F48CC038F5883729F050F4883667
:1028600011F0803719F683E0809329031092C30298
:1028700057C0883809F47BC0803919F0803809F0D6
:10288000B5CF8091C302803208F071C0E091C302DD
:1028900081E08E0F8093C3028091BB00F0E0ED5584
:1028A000FD4F80833DC0803B39F0E0F4803A09F46D
:1028B00079C0883A09F09ACF84E080932903109276
:1028C000A2021092A102E091C802F091C9021995EA
:1028D0008091A10281110FC081E08093A10210922A
:1028E000810209C0803C09F4A6CF883C09F4A3CF3B
:1028F000883B09F07BCFE091A20281E08E0F8093AC
:10290000A202F0E0EF57FD4F80818093BB009091D1
:10291000A2028091A10229C0809104038093BB0090
:1029200085EC8093BC0062CF9091260380912503B3
:10293000981758F5E091260381E08E0F80932603C7
:10294000F0E0EB5FFC4F8081E9CFE091260381E06E
:102950008E0F809326038091BB00F0E0EB5FFC4F6D
:10296000808390912603809125039817C8F285E80B
:10297000D8CFE091260381E08E0F809326038091CB
:10298000BB00F0E0EB5FFC4F808380912803811156
:102990005CCF81E08093030384EA8093BC001092B3
:1029A000290324CF85EC8093BC00109229038091E9
:1029B000C302803230F4E091C302F0E0ED55FD4FE8
:1029C00010826091C30270E0E091C602F091C702EC
:1029D00083EA92E019951092C30208CF1092270360
:1029E00034CFCF93DF93109256031092550388EEA5
:1029F00093E0A0E0B0E08093570390935803A09336
:102A00005903B0935A0324E332E0309354032093E4
:102A1000530345E351E05093600340935F0344E365
:102A200051E0509362034093610340E351E05093BF
:102A300064034093630341E351E050936603409382
:102A4000650342E351E0509368034093670346E314
:102A500051E050936A034093690310926C03109203
:102A60006D0310926E0310926F031092F303109295
:102A7000F2038093F4039093F503A093F603B093CD
:102A8000F7033093F1032093F00345ED50E05093AA
:102A9000FD034093FC0344ED50E05093FF0340934B
:102AA000FE0340ED50E0509301044093000441EDDB
:102AB00050E0509303044093020442ED50E05093E1
:102AC00005044093040446ED50E0509307044093FE
:102AD00006041092090410920A0410920B0410923A
:102AE0000C041092900410928F04809391049093A0
:102AF0009204A0939304B093940430938E04209393
:102B00008D044DEC50E050939A04409399044CECA2
:102B100050E050939C0440939B0448EC50E0509349
:102B20009E0440939D0449EC50E05093A0044093D0
:102B30009F044AEC50E05093A2044093A1044EEC51
:102B400050E05093A4044093A3041092A604109262
:102B5000A7041092A8041092A90410922D051092B7
:102B60002C0580932E0590932F05A0933005B093EC
:102B7000310530932B0520932A0525EC30E0309366
:102B800037052093360524EC30E030933905209347
:102B9000380520EC30E030933B0520933A0521ECDA
:102BA00030E030933D0520933C0522EC30E030933B
:102BB0003F0520933E0526EC30E0309341052093FD
:102BC000400510924305109244051092450510925D
:102BD00046051092CA051092C9058093CB059093C3
:102BE000CC05A093CD05B093CE0586E492E09093FA
:102BF000C8058093C7050E940B0B609382067093F3
:102C00008306809384069093850610927F06109227
:102C10008106109280061092D7051092D60588E0A2
:102C200090E09093D9058093D8059093DB0580932D
:102C3000DA059093DD058093DC059093DF058093A2
:102C4000DE051092EA051092E1051092E00510925F
:102C5000E3051092E20581E08093E9058093E805A1
:102C60002FEF3FEF3093E7052093E6053093E5051E
:102C70002093E4058093EB051092EC051092EE058D
:102C80001092ED0528E532E03093D5052093D40568
:102C900095E39093EF058093F30588E08093F20528
:102CA00088E090E00E94AB1B9093F1058093F005C3
:102CB00081E090E00E94AB1BEC019093F7058093BC
:102CC000F60581E090E00E94AB1B9093F5058093A0
:102CD000F405FC0110821882CFB7F8948091D305D7
:102CE000811127C0EBEBF7E08491E5E7F7E09491E1
:102CF000E82FF0E0EE0FFF1FEA5DF84FA591B491C9
:102D0000EC91E92321F461E085E30E94590A61E036
:102D100085E30E94B50A8CB580618CBD8CB580645A
:102D20008CBD61E084E30E94B50A61E083E30E9408
:102D3000B50A8091D3058F5F8093D305CFBF61E043
:102D40008091EF050E94B50A70E060E084ED95E0A7
:102D50000E94BE1160E08FE00E94870A67E08BE06E
:102D60000E94870A60E089E00E94870A61E08CE0A7
:102D70000E94870A67E08AE0DF91CF910C94870A6E
:102D8000789484B5826084BD84B5816084BD85B546
:102D9000826085BD85B5816085BD80916E00816052
:102DA00080936E00109281008091810082608093F8
:102DB00081008091810081608093810080918000FA
:102DC0008160809380008091B10084608093B10025
:102DD0008091B00081608093B0008091910082600A
:102DE0008093910080919100816080939100809107
:102DF00090008160809390008091A1008260809318
:102E0000A1008091A10081608093A1008091A00029
:102E100081608093A00080912101826080932101D4
:102E20008091210181608093210180912001816046
:102E30008093200180917A00846080937A00809151
:102E40007A00826080937A0080917A00816080931A
:102E50007A0080917A00806880937A001092C10095
:102E600040E052EC61E070E08DE894E00E941A04CA
:102E70008DE894E09093FD058093FC0584E08093B9
:102E8000FB050E940B0B6093FE057093FF0580937A
:102E900000069093010610922206109223061092CB
:102EA000410610924006109242068091C402909111
:102EB000C5029093810680938006892B39F48FEAAE
:102EC00087BD80916E00826080936E0088EF95E0F0
:102ED0009093C5028093C40262E08AE00E94870A50
:102EE00062E084ED95E00E945F041092EA02109285
:102EF000EB0210923003109252030E945D0F8EE19C
:102F00009BE09093C9028093C8028FE19BE090936D
:102F1000C7028093C60281E080932F038093510300
:102F200061E087EC95E00E94DB1081E00E949C0F3D
:102F300040E855E260E070E08AE295E00E941A0401
:102F400040E052EC61E070E080EF93E00E941A04F0
:102F500040E855E260E070E083E593E00E941A04E7
:102F600062E086E30E94B50A61E08DE00E94B50A46
:102F700061E08DE00E94590A0E94E60A4B015C0163
:102F8000F0E4CF2EFFE1DF2EE12CF12C0E94E60AC7
:102F9000681979098A099B09683E73408105910582
:102FA000A8F321E0C21AD108E108F10888EE880EE2
:102FB00083E0981EA11CB11CC114D104E104F104EA
:102FC00029F780EF93E00E943C0C66246394712CF7
:102FD000E8EECE2EE3E0DE2EE12CF12CC1E0E6E1BE
:102FE000F2E08491E6E7F7E0D491ECEBF7E014919E
:102FF000112351F181110E94F209E12FF0E0EE0F4F
:10300000FF1FE455FE4FA591B4918C91D823E1F0B8
:10301000609134067091350621E030E06436710528
:1030200070F090E080E0685E734081099109660F5E
:10303000771F881F991FA70196010E943C1B3093A0
:10304000F9022093F80204C07092F9026092F8022B
:103050006091320670913306D1E06436710558F004
:1030600090E080E0685E734081099109A7019601B4
:103070000E943C1BD22FD0930102609130067091C8
:10308000310611E06436710558F090E080E0685E2A
:10309000734081099109A70196010E943C1B122FE0
:1030A0001093000270E060E084ED95E00E94BE1194
:1030B0004090F8025090F9024114510409F0E6C022
:1030C00048E2842E42E0942EB12CA12C10E000E0C6
:1030D000F401208130E0C301002E02C0880F991F47
:1030E0000A94E2F728233923A501B80184ED95E07D
:1030F0000E94810C0F5F1F4F0830110549F7FFEF49
:10310000AF1ABF0A2FEF821A920A88E0A816B104FC
:10311000E9F6D8E060E08D2F0E94870AD150D1F700
:103120004114510409F03EC11092F1021092F002D4
:103130001092F3021092F2021092F5021092F40231
:103140001092F7021092F6028091F8029091F90223
:10315000029709F053C020912A0630912B0610E007
:1031600000E024363105A0F050E040E0285E334016
:1031700041095109A8ECB0E00E945B1BA701960130
:103180000E943C1B89019A01045611092109310949
:103190001093EF020093EE0220912606309127064D
:1031A0002436310508F439C250E040E0285E33404F
:1031B00041095109A8ECB0E00E945B1BA7019601F0
:1031C0000E943C1B2456310941095109882799273F
:1031D000821B930B9093F1028093F0023093F302E1
:1031E0002093F20288279927801B910B9093F50278
:1031F0008093F4021093F7020093F6028090820607
:1032000090908306A0908406B0908506E2E38E0E2F
:10321000911CA11CB11C0E940B0B86169706A806D8
:10322000B90688F500EF12E0F801419151918F0144
:1032300048535F4F052E000C660B770B83E593E038
:103240000E948C11F2E0083F1F0771F78091010284
:1032500040910002042E000C550B480F511D87FDB4
:103260005A95052E000C660B770B83E593E00E94C0
:103270008C110E940B0B60938206709383068093DF
:103280008406909385060E945C0CA9CEE1E04E1660
:10329000510451F530E2832E32E0932EB12CA12C53
:1032A00010E000E0F401208130E0C301002E02C0F4
:1032B000880F991F0A94E2F728233923A501B80142
:1032C00084ED95E00E94810C0F5F1F4F08301105BF
:1032D00049F7FFEFAF1ABF0A2FEF821A920A88E070
:1032E000A816B104E9F615CFE2E04E16510409F034
:1032F00010CF112309F494C128E1822E22E0922EEE
:10330000B12CA12C10E000E0F401208130E0C301D9
:10331000002E02C0880F991F0A94E2F72823392350
:10332000A501B80184ED95E00E94810C0F5F1F4F4D
:103330000830110549F7FFEFAF1ABF0A2FEF821AC5
:10334000920A88E0A816B104E9F6DD2309F4E1CE7B
:1033500090E1892E92E0992EB12CA12C10E000E092
:10336000F401208130E0C301002E02C0880F991FB4
:103370000A94E2F728233923A501B80184ED95E0EA
:103380000E94810C0F5F1F4F0830110549F7FFEFB6
:10339000AF1ABF0A2FEF821A920A88E0A816B1046A
:1033A000E9F6B7CE4A94452809F0CECEC0932F0354
:1033B000C0935103109230031092520364E487ECDF
:1033C00095E00E94DB1081E00E949C0F0E94E60ABB
:1033D0004B015C0180912903811163C0C0932903D3
:1033E000C0932803FFEFF093270310922603C093A6
:1033F0002503C09304038091040382608093040337
:1034000080910303813009F0CFC0109203030E9422
:10341000E60A4B015C01809104038093BB0080911C
:103420002B0390912C03A0912D03B0912E03892B97
:103430008A2B8B2BA1F00E94E60A00912B0310919E
:103440002C0320912D0330912E03681979098A09E4
:103450009B09061717072807390708F443C080910E
:10346000BC0083FDD8CF25EC2093BC000E94E60A67
:103470004B015C0180912903813009F499C080914E
:103480002603823008F0B6C080912603A5E0B3E0A1
:10349000EAECF2E090E0981751F12D9121939F5FB3
:1034A000FACF80912B0390912C03A0912D03B09122
:1034B0002E03892B8A2B8B2B09F48CCF0E94E60AD2
:1034C00000912B0310912C0320912D0330912E039A
:1034D000681979098A099B09061717072807390708
:1034E00008F078CF80912A030E947B0F80E0109231
:1034F000EA028093EB028230F0F387EC95E00E94C1
:103500009B10D82F87EC95E00E949B10382E212C21
:10351000C1018D2B9093ED028093EC0280EF93E03C
:103520000E94990B181619060CF00ECE80EF93E04E
:103530000E94770B813009F05FC00E940D119093BB
:10354000F1028093F0020E940D119093F302809398
:10355000F2020E940D119093F5028093F4020E94F2
:103560000D119093F7028093F60280EF93E00E9492
:103570003C0C4091F8025091F902052E000C660BAC
:10358000770B80EF93E00E948C114091EC025091F8
:10359000ED024C595F4F052E000C660B770B80EF48
:1035A00093E00E948C11D0CD85EE8093BC005ECF5D
:1035B00080912B0390912C03A0912D03B0912E03A9
:1035C000892B8A2B8B2B09F455CF0E94E60A009198
:1035D0002B0310912C0320912D0330912E03681999
:1035E00079098A099B09061717072807390708F080
:1035F00041CF78CF82E04ACF811109C00E940D11DE
:103600009093EF028093EE020E940D11AECF8230B4
:1036100009F0ABCF0E940D11F7CF30E020E0D6CDFE
:10362000D11196CE88E0882E82E0982EB12CA12C64
:1036300010E000E0F401208130E0C301002E02C060
:10364000880F991F0A94E2F728233923A501B801AE
:1036500084ED95E00E94810C0F5F1F4F083011052B
:1036600049F7FFEFAF1ABF0A2FEF821A920A88E0DC
:10367000A816B104E9F64DCD052E97FB1EF4009473
:103680000E94531B57FD07D00E94661B07FC03D006
:103690004EF40C94531B50954095309521953F4F17
:1036A0004F4F5F4F089590958095709561957F4F2E
:1036B0008F4F9F4F08950E94881BA59F900DB49F28
:1036C000900DA49F800D911D11240895A1E21A2E42
:1036D000AA1BBB1BFD010DC0AA1FBB1FEE1FFF1FB6
:1036E000A217B307E407F50720F0A21BB30BE40B06
:1036F000F50B661F771F881F991F1A9469F760954D
:103700007095809590959B01AC01BD01CF01089506
:10371000A29FB001B39FC001A39F700D811D112412
:10372000911DB29F700D811D1124911D0895991B4B
:1037300079E004C0991F961708F0961B881F7A95A8
:10374000C9F780950895EE0FFF1F881F8BBF079064
:10375000F691E02D19940F931F93CF93DF9382304E
:10376000910510F482E090E0E0918806F0918906DE
:1037700030E020E0B0E0A0E0309799F42115310569
:1037800009F44AC0281B390B24303105D8F58A8149
:103790009B816115710589F1FB0193838283FE0191
:1037A00011C0408151810281138148175907E0F00F
:1037B0004817590799F4109761F012960C931297D5
:1037C00013961C933296CF01DF91CF911F910F91E9
:1037D00008950093880610938906F4CF21153105CA
:1037E00051F04217530738F0A901DB019A01BD01DE
:1037F000DF01F801C1CFEF01F9CF909389068093E3
:103800008806CDCFFE01E20FF31F819391932250E2
:10381000310939832883D7CF2091860630918706D6
:10382000232B41F420910402309105023093870646
:103830002093860620910202309103022115310562
:1038400041F42DB73EB74091060250910702241B68
:10385000350BE0918606F0918706E217F307A0F496
:103860002E1B3F0B2817390778F0AC014E5F5F4FD6
:103870002417350748F04E0F5F1F5093870640937B
:103880008606819391939FCFF0E0E0E09CCFCF93A9
:10389000DF930097E9F0FC01329713821282A09126
:1038A0008806B0918906ED0130E020E01097A1F480
:1038B00020813181820F931F2091860630918706E7
:1038C0002817390709F061C0F0938706E093860650
:1038D000DF91CF910895EA01CE17DF07E8F54A811D
:1038E0005B819E0141155105B1F7E901FB83EA8334
:1038F00049915991C40FD51FEC17FD0761F48081E0
:1039000091810296840F951FE901998388838281B2
:1039100093819B838A83F0E0E0E012968D919C91E5
:1039200013970097B9F52D913C911197CD0102960F
:10393000820F931F2091860630918706281739073A
:1039400039F6309751F51092890610928806B09397
:103950008706A0938606BCCFD383C2834081518162
:10396000840F951FC817D90761F44E5F5F4F888198
:103970009981480F591F518340838A819B8193838A
:1039800082832115310509F0B0CFF0938906E093C9
:1039900088069ECFFD01DC01C0CF13821282D7CFF3
:1039A00081E090E0F8940C94DC1CDC0101C06D9384
:0C39B00041505040E0F70895F894FFCF1C
:1039BC00303000008A068000C3C3C3DBFFFFE7C3BF
:1039CC00FFA5E724243C24181E3FBFBFBF9E4C38E4
:1039DC0066667E7E66667E3CC3C7CFDFFBF3E3C3C1
:1039EC0000000000EF0B220B680B3C0C990B770BC3
:1039FC008B0B00000000DB10AE100A111609170B20
:103A0C009B108C10000000009906220B0A112D0D42
:103A1C00810C16093F0917093309270946091609AC
:103A2C00200B5E04DD08A4085F08BE11CA076B07F3
:00000001FF
