:100000000C94E7030C9418040C9418040C94180432
:100010000C9418040C9418040C9418040C941804F0
:100020000C9418040C9418040C9418040C941804E0
:100030000C9418040C9418040C9418040C941804D0
:100040000C9418040C9418040C9418040C941804C0
:100050000C9418040C9415150C9418040C947B1330
:100060000C9418040C94EB140C94C1140C94180404
:100070000C9418040C9418040C9418040C94180490
:100080000C9418040C9418040C9418040C94180480
:100090000C9497140C946D140C9418040C94431540
:1000A0000C9418040C9418040C9418040C94180460
:1000B0000C9418040C9418040C9418040C94180450
:1000C0000C9418040C9418040C9418040C94431405
:1000D0000C9419140C9418040C94EF130C94C5137D
:1000E0000C9418040C94DD080C942F0A0C944B0A01
:1000F0000C943F090C945F080C94CB0B0C946E0C81
:100100000C9467160C942B0A0C940D110C943D0A58
:100110000C94430A0C94680B0C94E0100C94100A95
:100120000C94200B0C9427090C945E040C945F0D26
:100130000C9433090C94220B0C94390A0C949906F4
:100140000C943C110C941E0A0C941E0B0C94550A32
:100150000C9416090C94470A0C941F0B0C94B30CC6
:100160000C94CD100C94220A0C94170B0C94350AA5
:100170000C9417090C94510A0C94CA070C94210C86
:100180000C94770B0C94160A0C94250A0C94BD0B56
:100190000C941A0A0C94A4080C94BE100C946B07CF
:1001A0000C94500A0C9446090C943413000020005F
:1001B0002300260029002C002F003200000100003F
:1001C00003010601090100002200250028002B0080
:1001D0002E003100340002010000050108010B016E
:1001E00000000A0B02090C0D0E08070304010000B1
:1001F00000000000000000000000000000000000FF
:1002000000000000000000000000000012111000BB
:1002100000000000000000000000000000000000DE
:1002200000000000000000000000003E5B4F5B3E4D
:100230003E6B4F6B3E1C3E7C3E1C183C7E3C181CAB
:10024000577D571C1C5E7F5E1C00183C1800FFE7A2
:10025000C3E7FF0018241800FFE7DBE7FF30483A48
:10026000060E2629792926407F050507407F0525AA
:100270003F5A3CE73C5A7F3E1C1C08081C1C3E7F32
:1002800014227F22145F5F005F5F06097F017F00F9
:100290006689956A606060606094A2FFA294080419
:1002A0007E040810207E201008082A1C08081C2A3A
:1002B00008081E101010100C1E0C1E0C30383E3892
:1002C00030060E3E0E06000000000000005F000039
:1002D0000007000700147F147F14242A7F2A1223AA
:1002E0001308646236495620500008070300001CBA
:1002F0002241000041221C002A1C7F1C2A08083EC3
:1003000008080080703000080808080800006060D5
:100310000020100804023E5149453E00427F400043
:1003200072494949462141494D331814127F10271B
:10033000454545393C4A494931412111090736496A
:10034000494936464949291E00001400000040343E
:100350000000000814224114141414140041221443
:100360000802015909063E415D594E7C1211127C6A
:100370007F494949363E414141227F4141413E7FCB
:10038000494949417F090909013E414151737F08AB
:1003900008087F00417F41002040413F017F081451
:1003A00022417F404040407F021C027F7F040810B2
:1003B0007F3E4141413E7F090909063E4151215E90
:1003C0007F09192946264949493203017F01033F24
:1003D0004040403F1F2040201F3F4038403F6314B3
:1003E00008146303047804036159494D43007F41B5
:1003F00041410204081020004141417F04020102F2
:100400000440404040400003070800205454784016
:100410007F284444383844444428384444287F38AA
:100420005454541800087E090218A4A49C787F082C
:1004300004047800447D40002040403D007F1028A7
:10044000440000417F40007C047804787C08040468
:10045000783844444438FC1824241818242418FC00
:100460007C08040408485454542404043F44243CA5
:100470004040207C1C2040201C3C4030403C442814
:100480001028444C9090907C4464544C44000836AE
:10049000410000007700000041360800020102041C
:1004A000023C2623263C1EA1A161123A4040207A3C
:1004B0003854545559215555794122545478422184
:1004C0005554784020545579400C1E5272123955BB
:1004D00055555939545454593955545458000045B8
:1004E0007C410002457D420001457C407D12111295
:1004F0007DF0282528F07C545545002054547C5428
:100500007C0A097F4932494949323A4444443A32E3
:100510004A4848303A4141217A3A42402078009D89
:10052000A0A07D3D4242423D3D4040403D3C24FF35
:100530002424487E4943662B2FFC2F2BFF0929F6E4
:1005400020C0887E090320545479410000447D4135
:100550003048484A32384040227A007A0A0A727D8E
:100560000D19317D2629292F2826292929263048A9
:100570004D4020380808080808080808382F10C817
:10058000ACBA2F102834FA00007B000008142A149B
:100590002222142A14085500550055AA55AA55AA16
:1005A000FF55FF55FF000000FF00101010FF001462
:1005B0001414FF001010FF00FF1010F010F01414BE
:1005C00014FC001414F700FF0000FF00FF1414F4E3
:1005D00004FC141417101F10101F101F1414141FE4
:1005E00000101010F0000000001F101010101F105D
:1005F000101010F010000000FF101010101010105C
:100600001010FF10000000FF140000FF00FF0000AA
:100610001F10170000FC04F414141710171414F41E
:1006200004F40000FF00F714141414141414F70059
:10063000F7141414171410101F101F141414F414AA
:100640001010F010F000001F101F0000001F140019
:100650000000FC140000F010F01010FF10FF141444
:1006600014FF141010101F00000000F010FFFFFF17
:10067000FFFFF0F0F0F0F0FFFFFF0000000000FFD0
:10068000FF0F0F0F0F0F3844443844FC4A4A4A34D6
:100690007E02020606027E027E02635549416338ED
:1006A00044443C04407E201E2006027E020299A59E
:1006B000E7A5991C2A492A1C4C7201724C304A4DFC
:1006C0004D303048784830BC625A463D3E49494931
:1006D000007E0101017E2A2A2A2A2A44445F4444DA
:1006E00040514A444040444A51400000FF0103E069
:1006F00080FF000008086B6B083612362436060FA0
:10070000090F06000018180000001010003040FF0C
:100710000101001F01011E00191D1712003C3C3C85
:100720003C000000000000002100240027002A00F7
:100730002D003000330001010000040107010A010F
:1007400001021020200808102040102040800201E3
:1007500002010804020101020408102040808040C8
:1007600020100804020180040201804020100804C7
:100770000201080402010102040810204080010265
:10078000040810204080050505050705080808082D
:10079000020202020A0A0808040404040101010119
:1007A0000101010103030303030303030407070714
:1007B0000C0C0C0C0C0C0C0C0202020206060606B9
:1007C000060606060B0B0B0B0B0B0B0B6716112407
:1007D0001FBECFEFD1E2DEBFCDBF00E00CBF12E005
:1007E000A0E0B2E0E6E0F6E400E00BBF02C0079054
:1007F0000D92A438B107D9F726E0A4E8B2E001C011
:100800001D92A639B207E1F713E0C7EED3E000E08E
:1008100006C021970109802FFE010E943420C63EA8
:10082000D10780E00807A9F70E9438180C9401232B
:100830000C940000CF93DF93EC019A01AB01E8899F
:10084000F98982E08083211581EE38074105510541
:1008500081F160E079E08DE390E00E940620215074
:100860003109410951095695479537952795EC85EA
:10087000FD851082EE85FF852083188EEC89FD8929
:1008800086E08083EA89FB89808180618083EA89B0
:10089000FB89808188608083EA89FB898081806808
:1008A0008083EA89FB8980818F7D8083DF91CF916E
:1008B0000895E889F989108220E1D9CF0895FC01D3
:1008C0006370668B8481958126813781613039F030
:1008D000633029F091878087338722870895318795
:1008E00020879387828708952F923F924F925F923D
:1008F0006F927F928F929F92AF92BF92CF92DF9230
:10090000EF92FF920F931F93CF93DF93CDB7DEB794
:100910006A970FB6F894DEBF0FBECDBF9A8F898F4E
:100920007A8369834A01D22E18870F833701BC2C42
:10093000DC0159962D913C915A972115310509F00A
:1009400015C118968D919C911997681779070CF02D
:10095000D7C11A968D919C91481759070CF0D0C1B8
:100960004C2C512CB6E0CB9E600D711D11247C8760
:100970006B87161617060CF0C3C1EA2DF0E0FA8754
:10098000E98793E0EE0FFF1F9A95E1F7F88BEF8769
:10099000CF01840F951F181619060CF0B1C1A98D4F
:1009A000BA8D58968C91811104C0BFEABD1508F428
:1009B000D394A98DBA8DED91FC9111970284F385A2
:1009C000E02DCD011995B5E0DB9EC0011124E98130
:1009D000FA81FC83EB83312C212C9C012A5D3D4F55
:1009E000388F2F8B4A2D50E05E8B4D8BEF89F88D21
:1009F000E20DF31D44919E828D82D12CC12C698120
:100A00007A81620D731D7A8B698B842F90E09C8BA9
:100A10008B8BE98DFA8DA081B18140FF82C0F1E01E
:100A2000BF126FC0AF126DC01C96ED91FC912F816B
:100A30003885A4014C0D5D1D69897A89898D9A8D4F
:100A40001995EB89FC89F595E7954E2F5FEFC51A4F
:100A5000D50A6D817E818D899E89680F791F7E837D
:100A60006D8398E0C916D10481F6AFEF2A1A3A0ACD
:100A7000EB81FC81E40DF51DFC83EB83F5E02F1683
:100A8000310409F0B3CF2F81388526153705B9F029
:100A9000A98DBA8DED91FC91B1E0BB1257C0AB129C
:100AA00055C069817A816B5F7F4F0088F189E02DA5
:100AB000830128E030E0A401898D9A8D1995A98DD4
:100AC000BA8DED91FC9111970688F789E02DCD0143
:100AD0006A960FB6F894DEBF0FBECDBFDF91CF91FF
:100AE0001F910F91FF90EF90DF90CF90BF90AF904C
:100AF0009F908F907F906F905F904F903F902F903E
:100B000019941E96ED91FC91EF80F88409851A8561
:100B100092014D815E816B817C81898D9A8D1995C1
:100B200090CF2F8138852615370509F48ACF31E01B
:100B3000B31207C0A31205C01C96ED91FC9193015E
:100B400078CF1E96ED91FC917301E0CF6B857C858B
:100B5000641975090684F785E02D73010F851889DE
:100B60009201A401898D9A8D1995A9CFF901349626
:100B70009491329745915491D91AB7E0DB9E400D7C
:100B8000511D1124F901259134913C8B2B8BFA01D5
:100B900025903490FA013296749031963491398BC5
:100BA000329664903196449041E04C1518F04A1505
:100BB00008F07FC0662D062C000C770B7C836B83BE
:100BC000842D042C000C990B9E838D83A98DBA8DE6
:100BD000ED91FC9111970284F385E02DCD011995DB
:100BE000512CD12CC12CEA2DF0E0FA87E9872B2D6E
:100BF00030E03C872B87A401440D511D47FC5A95DA
:100C0000588F4F8B69817A81660D711D67FC7A95CB
:100C10007E876D877989C71608F051CF2C2D30E07B
:100C20004D815E81420F531FA985BA854A9FC0013D
:100C30004B9F900D5A9F900D1124FC01E80DF91D5A
:100C4000F88BEF87852D612C4F89588D420F531FEC
:100C50005E8B4D8B671408F050C044244394480EBB
:100C6000877041F4C1010196EB89FC89E20DF31D07
:100C7000D4901C01D7FE19C0A98DBA8DED91FC91BD
:100C8000662D70E0B1E0BB1219C0AB1217C02D8504
:100C90003E85620F731F0484F585E02D2F81388512
:100CA0004D895E89898D9A8D1995DD0C6394842D0B
:100CB000D1CF1E821D821C821B8288CF4B815C811A
:100CC000640F751FAB85BC856A9FC0016B9F900D3B
:100CD0007A9F900D112469817A81680F791F0684AB
:100CE000F785E02DEF80F88409851A859D014F85F1
:100CF0005889898D9A8D1995D8CF570CC3948ACF6E
:100D00006A960FB6F894DEBF0FBECDBFDF91CF91CC
:100D10001F910F91FF90EF90DF90CF90BF90AF9019
:100D20009F908F907F906F905F904F903F902F900B
:100D300008958F929F92AF92CF92EF92FF920F936E
:100D40001F93CF93DF93EC01262F898D9A8D009707
:100D500009F051C06A30D1F41D861C868D8948E0A7
:100D6000849F900111248E859F85820F931F9F87FA
:100D70008E8781E090E0DF91CF911F910F91FF90DE
:100D8000EF90CF90AF909F908F9008956D3089F342
:100D9000CC88AD888F898823C1F08C859D8536E00D
:100DA000C39E800D911D1124488559854817590708
:100DB00064F44E855F851D861C8638E0A39EC001C5
:100DC0001124840F951F9F878E87EA88FB880889E6
:100DD00019894E855F856C857D85CE010E947404DE
:100DE0002C898C859D8546E0249F800D911D1124C2
:100DF0009D878C87BECF6A3069F41D861C86FC01F6
:100E00003896E4912D898E859F85E29F800D911DF6
:100E10001124ADCF6D3009F4ACCFFC013496349180
:100E2000631708F4A6CF3296E491E61708F4A1CF31
:100E3000FC01329685909490462F431B342F47E057
:100E4000349F800C911C1124F40132963491319618
:100E5000E4913323A9F1EE2399F1CC88F40135967E
:100E6000E491AD884F89442301F10E2E000CFF0B55
:100E7000E30FF11DCE9EA001CF9E500D11246C8575
:100E80007D85460F571F68857985641775076CF453
:100E90004E855F851D861C86FC013896E491AE9ECA
:100EA000400D511D11245F874E87EA88FB88088911
:100EB00019894E855F856C857D85CE010E947404FD
:100EC000F4013496E4912C898C859D85E29F800DF8
:100ED000911D11248DCF6F927F928F929F92AF922E
:100EE000BF92CF92DF92EF92FF920F931F93CF9317
:100EF000DF93EC016B015A0139014801E881F98166
:100F00000284F385E02D1995E881F9810288F3893F
:100F1000E02D87019301A501B601CE011995A50128
:100F2000480D591D41505109E881F9810288F38922
:100F3000E02D9301B601CE011995E881F981008871
:100F4000F189E02D9401A501B601CE011995C60CD9
:100F5000D71CB60161507109E881F9810088F189D7
:100F6000E02D9401A501CE011995E881F98106884B
:100F7000F789E02DCE01DF91CF911F910F91FF9066
:100F8000EF90DF90CF90BF90AF909F908F907F9029
:100F90006F9019946F927F928F929F92AF92BF92AF
:100FA000CF92DF92EF92FF920F931F93CF93DF9335
:100FB0005C01EB016A01490138018701DC01ED9117
:100FC000FC916217730719F5641675062CF0962DBF
:100FD000872D3A01C92ED82E9601261937092F5F81
:100FE0003F4F048CF58DE02DA301BE01C50119957D
:100FF000DF91CF911F910F91FF90EF90DF90CF90F5
:10100000BF90AF909F908F907F906F9008954615FE
:10101000570591F42617370724F0892D4B01C22F6D
:10102000D82F9E01281939092F5F3F4F068CF78D65
:10103000E02DA601B401DACF0284F385E02D1995E5
:10104000D501ED91FC910488F589E02D830194018F
:10105000A601BE01C5011995D501ED91FC91068847
:10106000F789E02DC501DF91CF911F910F91FF907E
:10107000EF90DF90CF90BF90AF909F908F907F9038
:101080006F901994EF92FF920F931F93DC011A96C1
:101090000D911C911B9718962D913C911997ED91EC
:1010A000FC9100A0F1A1E02D7B0150E040E070E058
:1010B00060E019951F910F91FF90EF9008954F9266
:1010C0005F926F927F928F929F92AF92BF92CF92D8
:1010D000DF92EF92FF920F931F93CF93DF936C01F8
:1010E0002B015A0139014801DC01ED91FC91028488
:1010F000F385E02D1995E201640C751CD601ED9184
:10110000FC91C615D7055CF40088F189E02D8701B4
:101110009401A501BE01C60119952196EFCF06885D
:10112000F789E02DC601DF91CF911F910F91FF90BC
:10113000EF90DF90CF90BF90AF909F908F907F9077
:101140006F905F904F9019948F929F92AF92BF9241
:10115000CF92DF92EF92FF920F931F93CF93DF9383
:10116000EC015B014A016901E881F9810284F385A0
:10117000E02D199595012C0D3D1D21503109E88177
:10118000F9810488F589E02D78018401A401B50175
:10119000CE011995E881F9810688F789E02DCE0105
:1011A000DF91CF911F910F91FF90EF90DF90CF9043
:1011B000BF90AF909F908F9019948F929F92AF9213
:1011C000BF92CF92DF92EF92FF920F931F93CF9334
:1011D000DF93EC015B014A0169017801E881F98143
:1011E0000284F385E02D1995C80CD91C86010150A5
:1011F0001109E881F9810488F589E02D9501A401A0
:10120000B501CE011995E881F9810688F789E02DAD
:10121000CE01DF91CF911F910F91FF90EF90DF9062
:10122000CF90BF90AF909F908F9019940895EF92B8
:10123000FF920F931F93DC01ED91FC9100A0F1A1AF
:10124000E02D19951F910F91FF90EF9008950F9346
:101250001F93DC01ED91FC91068CF78DE02D199523
:101260001F910F9108950F931F93DC01ED91FC9155
:10127000048CF58DE02D19951F910F910895DC01D7
:10128000ED91FC910084F185E02D19942F923F920D
:101290004F925F926F927F928F929F92AF92BF9286
:1012A000CF92DF92EF92FF920F931F93CF93DF9332
:1012B00000D000D0CDB7DEB73C016A013E832D835C
:1012C000FC82EB825801A41AB50AB7FE03C0B194A0
:1012D000A194B1088D809E80861A970A97FE03C05C
:1012E0009194819491088A149B045CF0902F812F33
:1012F0000D811E819D838E839C2D8D2D6B01692F09
:10130000782F0C151D055CF09D818E817E836D8389
:10131000692F782F902F812F8601C92ED82E160184
:10132000201A310A2B012D813E81421A530A57FEA1
:1013300003C0519441945108710137FE03C03FEF3F
:10134000E31AF30AF594E7948D819E818617970737
:101350005CF5A1E0B0E0BA83A983C016D1064CF1D8
:10136000D301ED91FC910484F585E02D2B813C8126
:10137000A8016D817E818A149B041CF04D815E81E1
:10138000B801C3011995E418F508F7FE0AC02D81CC
:101390003E8189819A81280F391F3E832D83E20C7B
:1013A000F31C0F5F1F4FD9CF2FEF3FEF3A832983F5
:1013B000D4CF26960FB6F894DEBF0FBECDBFDF9117
:1013C000CF911F910F91FF90EF90DF90CF90BF9042
:1013D000AF909F908F907F906F905F904F903F90D5
:1013E0002F9008958150823108F05AC0E82FF0E024
:1013F0008827E250F64F8F4F0C9434201E0A220AA1
:10140000100A160A1A0A500A250A2B0A2F0A350A48
:10141000390A3D0A430A470A500A4B0A510A550A3B
:10142000809180008F778093800008958091800064
:101430008F7DF9CF80918000877FF5CF84B58F773E
:1014400084BD089584B58F7DFBCF8091B0008F77E8
:101450008093B00008958091B0008F7DF9CF809186
:1014600090008F77809390000895809190008F7DF9
:10147000F9CF80919000877FF5CF8091A0008F7782
:101480008093A00008958091A0008F7DF9CF809176
:10149000A000877FF5CF809120018F778093200176
:1014A0000895809120018F7DF9CF80912001877F61
:1014B000F5CF1F93CF93DF93282F30E0F901E0524F
:1014C000FE4F8491F901E05CF84FD491F901EA579D
:1014D000F84FC491CC23A9F0162F81110E94F20974
:1014E000EC2FF0E0EE0FFF1FEA53FE4FA591B491F1
:1014F0008FB7F894EC91111108C0D095DE23DC93DE
:101500008FBFDF91CF911F910895DE2BF8CFCF933E
:10151000DF93C82FD62F60E08091FB050E94590A07
:101520009FEF9C0F8091FE05890F8850CEBD000073
:101530000DB407FEFDCF2EB52D2FC93038F4E09144
:10154000FC05F091FD05E80FF11D20812EBD000086
:101550000DB407FEFDCF2EB5981738F361E08091EA
:10156000FB05DF91CF910C94590ACF93DF9390E064
:10157000FC01E05CF84F24918A57984FFC0184915C
:101580008823D1F090E0880F991FFC01EA5DF84FA5
:10159000A591B491FC01EA53FE4FC591D4916230FC
:1015A00071F49FB7F8943C91822F809583238C939C
:1015B000E8812E2B28839FBFDF91CF9108958FB7AD
:1015C000F894EC912E2B2C938FBFF6CF3FB7F89465
:1015D00080910B0390910C03A0910D03B0910E0329
:1015E00026B5A89B05C02F3F19F00196A11DB11D7E
:1015F0003FBFBA2FA92F982F8827BC01CD01620FBA
:10160000711D811D911D42E0660F771F881F991F74
:101610004A95D1F708952FB7F89460910703709118
:1016200008038091090390910A032FBF08958091C8
:10163000EF029091EE02891B990B08950895089589
:101640000C945F04AF92BF92CF92DF92EF92FF9221
:101650000F931F93CF93DF936C017B018B01040FDA
:10166000151FEB015E01AE18BF08C017D10759F076
:101670006991D601ED91FC910190F081E02DC601B8
:101680001995892B79F7C501DF91CF911F910F91A2
:10169000FF90EF90DF90CF90BF90AF900895FC0146
:1016A000A089B1898C91A689B78982FD0FC09C91D0
:1016B000818D8F5F8F73228D821749F0A18DAE0FC0
:1016C000BF2FB11D5D969C93818F08958C910895D5
:1016D000FC01538D448D252F30E0842F90E0821B38
:1016E000930B541710F0CF96089501970895FC01BD
:1016F000918D828D981761F0A28DAE0FBF2FB11D15
:101700005D968C91928D9F5F9F73928F90E008956C
:101710008FEF9FEF08950F931F930E940B0B609321
:1017200004047093050480930604909307048CEFDF
:1017300093E00E94770B97FF1DC00E940B0B009156
:101740000404109105042091060430910704601BE5
:10175000710B820B930B00910004109101042091F6
:101760000204309103046017710782079307F8F2AF
:101770008FEF9FEF1F910F910895FC01918D828D46
:10178000981731F0828DE80FF11D858D90E0089556
:101790008FEF9FEF0895FC01918D228D892F90E0AE
:1017A000805C9F4F821B91098F73992708958FE565
:1017B00093E00E94CB0B21E0892B09F420E0822FDB
:1017C00008958CEF93E00E94CB0B21E0892B09F464
:1017D00020E0822F089589E994E00E94CB0B21E05C
:1017E000892B09F420E0822F089586E395E00E947A
:1017F000CB0B21E0892B09F420E0822F0895FC0116
:10180000A48DA80FB92FB11DA35ABF4F2C91848D61
:1018100090E001968F739927848FA689B7892C93BE
:10182000A089B1898C91837080648C93938D848D11
:10183000981306C00288F389E02D80818F7D808314
:101840000895EF92FF920F931F93CF93DF93EC01D4
:1018500081E0888F9B8D8C8D98131AC0E889F98957
:10186000808185FF15C09FB7F894EE89FF8960835A
:10187000E889F98980818370806480839FBF81E0DB
:1018800090E0DF91CF911F910F91FF90EF9008951D
:10189000F62E0B8D10E00F5F1F4F0F731127E02EF8
:1018A0008C8D8E110CC00FB607FCFACFE889F98930
:1018B000808185FFF5CFCE010E94FF0BF1CFEB8D2C
:1018C000EC0FFD2FF11DE35AFF4FF0829FB7F89404
:1018D0000B8FEA89FB8980818062CFCFCF93DF9322
:1018E000EC01888D8823B9F0AA89BB89E889F98938
:1018F0008C9185FD03C0808186FD0DC00FB607FC6D
:10190000F7CF8C9185FFF2CF808185FFEDCFCE019F
:101910000E94FF0BE9CFDF91CF91089580E090E026
:10192000892B29F00E94F50B81110E94000080E0B4
:1019300090E0892B29F00E94EB0B81110E9400009E
:1019400080E090E0892B29F00E94E10B81110E9438
:10195000000080E090E0892B29F00E94D70B8111D4
:101960000C9400000895EF92FF920F931F93CF9372
:10197000DF93FC017901342F8689882309F493C011
:10198000823038F0C085D18521978E01061B170B58
:10199000B8019FEF980F923018F432853150341B04
:1019A00080FF81C0862F632F70E0382F44815581DE
:1019B000641775070CF079C0832F90E0C681D7813A
:1019C0008C179D070CF071C0278DA3E09595879526
:1019D000AA95E1F7289F8001299F100D1124CB01C2
:1019E000B3E095958795BA95E1F7C0A1D1A1C00F55
:1019F000D11FC80FD91F8881EB01C770DD27377051
:101A0000082F10E062A173A1600F711FDB019C9190
:101A1000923030F067E070E0DB01AC1BBD0BED01F4
:101A20006FEF690F623018F467E0631B362F90FF89
:101A300004C09C2FC32FD0E0392F622F0E94282092
:101A4000982F990F990F990F390FB801289F601996
:101A50007109112483E0660F771F8A95E1F76C0FF7
:101A60007D1F832F90E023E0959587952A95E1F7D8
:101A7000849FE001859FD00D949FD00D11246C0FA1
:101A80007D1F048CF58DE02DE60FF71F377081E088
:101A900090E001C0880F3A95EAF72081EF2861F0C5
:101AA000822B808302C077FF81CFDF91CF911F917E
:101AB0000F91FF90EF90089580958223F2CF0895C3
:101AC000DC01ED91FC910190F081E02D19942F92B1
:101AD0003F924F925F926F927F928F929F92AF92BE
:101AE000BF92CF92DF92EF92FF920F931F93CF930B
:101AF000DF93EC01FC01E857FF4F80819181009753
:101B000011F00E94670D8E01085B1F4F3E012AE411
:101B1000620E711C1E0137E8230E311CEBE84E2EBD
:101B2000552453948C819D81DC01ED91FC910084BE
:101B3000F185E02D1995181619060CF0B6C10E9412
:101B40000B0BCE80DF80E884F9849B01AC012C195B
:101B50003D094E095F0969017A0133E0C316D104DA
:101B6000E104F10408F01B826E837F8388879987E4
:101B70008C819D81DC01ED91FC910284F385E02D47
:101B80001995282F3B81313009F447C098F1323044
:101B900009F459C0333031F6D3012C91982F88279E
:101BA000820F911DF801208131812817390701F535
:101BB0002A85F22FFF709F2E203409F048C0DE01E5
:101BC00021E0E22FE695F0E07696EE0FFF1FEC0F96
:101BD000FD1F1C969C911C971B968C911B979183C3
:101BE00080832E5F12962D3161F78A818F5F8A8301
:101BF000B4E027C03CEF380F3D3160F41AA6235003
:101C00002BA7992780959095F80191838083F1E027
:101C1000FB8388CF24E02B8385CFEAA541E04E0FDC
:101C20004AA7EC0FFD2FF11D8287D8012D913C9121
:101C30001197281B31092D933C938BA5B2E04813D3
:101C400071CFBB836FCFF3018083F3E0E1CFD1018C
:101C50008C918F1768F2FF2359F28BA5813041F6E2
:101C60008C819D81EF2EF12C5701B1E0AB1AB108A8
:101C7000F2013197F1F7207F203999F1203A09F4E8
:101C800071C0203809F0B4CF28812F5F288364E029
:101C900070E00E94600DB70160587F4F8C819D817C
:101CA0000E94600DE4E8EE0EF11CE094F094D8017F
:101CB000ED92FC928C819D81DC01ED91FC91019073
:101CC000F081E02DD8016C9119958C819D81F801EE
:101CD0006181DC01ED91FC910190F081E02D19957D
:101CE00087CF66E070E00E94600DB70160577F4FBC
:101CF0008C819D810E94600D8C819D81B6E0BA9D92
:101D00006001BB9DD00C1124CC0EDD1E5601EBE40E
:101D1000AE0EB11CDC01ED91FC910190F081E02D43
:101D2000D5016C9119958C819D81BCE4CB0ED11CA1
:101D3000DC01ED91FC910190F081E02DD6016C91D8
:101D40001995B6E9EB0EF11CF5018081E80EF11C46
:101D5000D6018C91E80EF11CE094F094F801F18228
:101D6000E082A8CF29812F5F2983F6E0FA9D7001D8
:101D7000FB9DF00C1124EC0EFD1E67012CE4C20E3D
:101D8000D11CD6012C9144E0B42EB20EDC01ED91B1
:101D9000FC910190F081E02D6B2D19958B2D90E039
:101DA00080959095F801918380838C819D81F0EAE4
:101DB0009F0EDC01ED91FC910190F081E02D692DE9
:101DC0001995F80180819181891991099183808306
:101DD0008C819D81FDE4EF0EF11CD701BC90DC01EC
:101DE000ED91FC910190F081E02D6B2D1995F8019A
:101DF000808191818B199109918380838C819D8150
:101E0000D7018D909D90AD90BC90892C9A2CAB2CD5
:101E1000BB24A7FCBA94DC01ED91FC910190F08108
:101E2000E02D682D1995F80180819181881991091B
:101E300091838083D6018C91843009F03BCF8C81D3
:101E40009D81F70180809180A280B3804501BB24F1
:101E500097FCB094AB2CDC01ED91FC910190F081EA
:101E6000E02D682D1995F8018081918188199109DB
:101E7000918380838C819D81D701CD90DD90ED9001
:101E8000FC90CF2CDD24EE24FF24DC01ED91FC91AD
:101E90000190F081E02D6C2D1995F80180819181E0
:101EA0008C199D099183808305CFDF91CF911F917C
:101EB0000F91FF90EF90DF90CF90BF90AF909F90E9
:101EC0008F907F906F905F904F903F902F900895EC
:101ED0002091A502260F3327331F21323105ECF460
:101EE00020913503FC0190E080E0243069F082E02D
:101EF0000895A091A5022191AC014B575D4FA40F0D
:101F0000B52FB11D2C930196861798F38091A502E9
:101F1000680F6093A50280E0089581E00895109213
:101F2000350381E08093340310920F0361E084E174
:101F30000E94590A61E085E10E94590AE9EBF0E04C
:101F400080818E7F808380818D7F808388E48093F1
:101F5000B80085E48093BC000895CF93DF9391E0AF
:101F6000909384028823B9F0C091B800D091BA0050
:101F70008091BC008A7B8093BC0060E084E10E9479
:101F8000590A60E085E10E94590A0E948F0FD093A0
:101F9000BA00C093B800DF91CF9108958F929F92BD
:101FA000AF92BF92CF92DF92EF92FF920F931F9367
:101FB000CF93DF93D0915E03D13208F0D7C0182FB2
:101FC000C0915D030E94E60A6B017C01809135039C
:101FD00081116BC082E080933503109334038FEF3F
:101FE0008093330310923203D0933103ADE3B3E017
:101FF000E1E1F3E080E0D81391C0109210038091EA
:102000001003CC0FC82BC093100380910F038130B5
:1020100009F088C010920F030E94E60A6B017C0150
:10202000809110038093BB00809137039091380317
:10203000A0913903B0913A03892B8A2B8B2BA1F005
:102040000E94E60A0091370310913803209139036A
:1020500030913A036C197D098E099F0906171707FD
:102060002807390708F442C08091BC0083FDD8CF0F
:1020700085EC8093BC000E94E60A6B017C01809194
:102080003503823009F450C0809133038F3F09F447
:102090006FC080913303803209F46CC080913303A8
:1020A000803309F469C084E026C0809137039091A1
:1020B0003803A0913903B0913A03892B8A2B8B2BDB
:1020C00009F484CF0E94E60A809037039090380389
:1020D000A0903903B0903A036C197D098E099F09CD
:1020E00086169706A806B90608F070CF80913603C9
:1020F0000E94AD0F85E010923C0310925E03109297
:102100003B03DF91CF911F910F91FF90EF90DF90F4
:10211000CF90BF90AF909F908F9008959D91919395
:102120008F5F69CF85EEA5CF8091370390913803FB
:10213000A0913903B0913A03892B8A2B8B2B09F498
:102140009ECF0E94E60A0091370310913803209138
:10215000390330913A036C197D098E099F090617DE
:1021600017072807390708F08ACFC0CF81E0C3CF0F
:1021700080E0C1CF82E0BFCF83E0BDCFE091EE022F
:102180008091EF02E81730F4F0E0E253FD4F8081D8
:1021900090E008958FEF9FEF08959091EE02809167
:1021A000EF022FEF3FEF981748F4E92FF0E0E253EA
:1021B000FD4F208130E09F5F9093EE02C9010895AA
:1021C000CF92DF92EF92FF920F931F93CF93DF9303
:1021D0007C01CB018A0120913B03222389F0EB0192
:1021E0006B01C40ED51ECC15DD0569F06991D701D0
:1021F000ED91FC910190F081E02DC7011995F3CF8D
:10220000642F0E94680FC801DF91CF911F910F9139
:10221000FF90EF90DF90CF900895CF93DF931F92C0
:10222000CDB7DEB7698320913B032223F9F02091DB
:102230005E03203258F021E030E0FC01338322833A
:1022400090E080E00F90DF91CF91089580913C0362
:10225000E82FF0E0E35CFC4F998190838F5F8093DF
:102260003C0380935E0381E090E0ECCF61E0CE011F
:1022700001960E94680FF7CF90E080E00895FB017F
:1022800001900020E9F73197AF01461B570B0C94E2
:10229000220B8F929F92AF92BF92EF92FF920F9379
:1022A0001F93CF93DF93CDB7DEB7A1970FB6F89406
:1022B000DEBF0FBECDBF7C01FA01CB0119A22230D7
:1022C00008F42AE08E010F5D1F4F822E912CB12C55
:1022D000A12CBF01A50194010E940620F901CA01A9
:1022E0006A300CF5605DD8016E938D01232B242B91
:1022F000252B79F790E080E0109721F0BD01C70110
:102300000E943F11A1960FB6F894DEBF0FBECDBF5D
:10231000DF91CF911F910F91FF90EF90BF90AF9001
:102320009F908F900895695CDECFCF92DF92EF92FD
:10233000FF920F931F93CF93DF93EC016A017B0110
:102340006DE20E94210C8C0144275527BA014C19DB
:102350005D096E097F092AE0CE010E944911800FB4
:10236000911FDF91CF911F910F91FF90EF90DF9020
:10237000CF900895CF93DF93EC01888199810097E6
:1023800011F00E947B21198218821D821C821B82FF
:102390001A82DF91CF910895FC018081918100978D
:1023A00011F00C947B2108950E94E522FC018081AC
:1023B0009181009711F00C947B1E60E070E0CB01DE
:1023C00008950F931F93CF93DF93EC018881998138
:1023D000009759F02A813B812617370730F081E0BA
:1023E000DF91CF911F910F9108958B016F5F7F4F08
:1023F0000E940422009759F0998388831B830A83E3
:102400002C813D81232B59F7FC011082E8CF80E01D
:10241000E7CFEF92FF920F931F93CF93DF93611556
:10242000710541F480E0DF91CF911F910F91FF90F2
:10243000EF90089541155105B1F07B01EC010C813D
:102440001D81040F151FB8010E94E111882351F36B
:10245000288139818C819D81B701820F931F0E9451
:10246000FA221D830C8381E0DECFCF93DF93EC0152
:10247000FB0101900020E9F73197AF01461B570B94
:102480000E940912811103C0CE010E94BA11CE012F
:10249000DF91CF910895CF93DF93EC01FB0144814D
:1024A0005581608171810E940912811103C0CE01A2
:1024B0000E94BA11CE01DF91CF910895EF92FF9261
:1024C0000F931F93CF93DF93EC017B018A01BA0135
:1024D0000E94E11181110BC0CE010E94BA11CE0100
:1024E000DF91CF911F910F91FF90EF9008951D8381
:1024F0000C83B701888199810E94FA22F0CFFB01F9
:1025000001900020E9F73197AF01461B570B0C945F
:102510005E120F931F93CF93DF9300D000D000D0B3
:10252000CDB7DEB78C01862FF8011182108213829D
:102530001282158214824AE0BE016F5F7F4F90E0E5
:102540000E94C21EBE016F5F7F4FC8010E947F12B2
:1025500029960FB6F894DEBF0FBECDBFDF91CF91A5
:102560001F910F9108950F931F93CF93DF93CDB7D2
:10257000DEB762970FB6F894DEBF0FBECDBF8C01F9
:10258000CB01F8011182108213821282158214820B
:102590004AE0BE016F5F7F4F0E94A21EBE016F5FC7
:1025A0007F4FC8010E947F1262960FB6F894DEBF7B
:1025B0000FBECDBFDF91CF911F910F910895AF92C4
:1025C000BF92CF92DF92EF92FF920F931F93CF9320
:1025D000DF93EC015B016A0179012417350720F4D0
:1025E0008D2D6901E42EF82E198218821B821A8221
:1025F0001D821C8250E040E062E872E0CE010E9441
:102600005E12D50114960D911C91C016D106E8F406
:10261000E016F10608F48701D501ED91FC911197C0
:10262000E00FF11FF08010826D917C916C0D7D1D8B
:10263000CE0161157105A9F00E947F12F50180811C
:102640009181080F191FD801FC92CE01DF91CF9123
:102650001F910F91FF90EF90DF90CF90BF90AF90C0
:1026600008950E94BA11EACFFC01468D50E0672B15
:1026700039F470E060E0FC01848D958D0C94F322B8
:102680006FEF70E0F8CF85ED8093BC008091370349
:1026900090913803A0913903B0913A030796A11D98
:1026A000B11D23E0B695A795979587952A95D1F703
:1026B0002091BC0024FD03C0109235030895409181
:1026C0003703509138036091390370913A03452BD9
:1026D000462B472B69F30097A105B10541F025E38F
:1026E0002A95F1F700000197A109B109E1CF809186
:1026F00036030C94AD0F1F920F920FB60F92112458
:102700002F933F938F939F93AF93BF938091070332
:1027100090910803A0910903B0910A033091060338
:1027200023E0230F2D3758F50196A11DB11D2093ED
:1027300006038093070390930803A0930903B093C3
:102740000A0380910B0390910C03A0910D03B091AB
:102750000E030196A11DB11D80930B0390930C03F2
:10276000A0930D03B0930E03BF91AF919F918F91F2
:102770003F912F910F900FBE0F901F90189526E854
:10278000230F0296A11DB11DD2CF1F920F920FB63B
:102790000F9211240BB60F922F933F934F935F9399
:1027A0006F937F938F939F93AF93BF93EF93FF9319
:1027B0008FE593E00E94FF0BFF91EF91BF91AF91E6
:1027C0009F918F917F916F915F914F913F912F9149
:1027D0000F900BBE0F900FBE0F901F9018951F9279
:1027E0000F920FB60F9211240BB60F922F933F93B7
:1027F0004F935F936F937F938F939F93AF93BF9309
:10280000EF93FF938FE593E00E944F0BFF91EF91C1
:10281000BF91AF919F918F917F916F915F914F91F8
:102820003F912F910F900BBE0F900FBE0F901F90F6
:1028300018951F920F920FB60F9211240BB60F929C
:102840002F933F934F935F936F937F938F939F93B8
:10285000AF93BF93EF93FF938CEF93E00E94FF0B36
:10286000FF91EF91BF91AF919F918F917F916F9168
:102870005F914F913F912F910F900BBE0F900FBE24
:102880000F901F9018951F920F920FB60F92112460
:102890000BB60F922F933F934F935F936F937F935A
:1028A0008F939F93AF93BF93EF93FF938CEF93E03E
:1028B0000E944F0BFF91EF91BF91AF919F918F912C
:1028C0007F916F915F914F913F912F910F900BBE30
:1028D0000F900FBE0F901F9018951F920F920FB67A
:1028E0000F9211240BB60F922F933F934F935F9348
:1028F0006F937F938F939F93AF93BF93EF93FF93C8
:1029000089E994E00E94FF0BFF91EF91BF91AF9195
:102910009F918F917F916F915F914F913F912F91F7
:102920000F900BBE0F900FBE0F901F9018951F9227
:102930000F920FB60F9211240BB60F922F933F9365
:102940004F935F936F937F938F939F93AF93BF93B7
:10295000EF93FF9389E994E00E944F0BFF91EF9171
:10296000BF91AF919F918F917F916F915F914F91A7
:102970003F912F910F900BBE0F900FBE0F901F90A5
:1029800018951F920F920FB60F9211240BB60F924B
:102990002F933F934F935F936F937F938F939F9367
:1029A000AF93BF93EF93FF9386E395E00E94FF0BF5
:1029B000FF91EF91BF91AF919F918F917F916F9117
:1029C0005F914F913F912F910F900BBE0F900FBED3
:1029D0000F901F9018951F920F920FB60F9211240F
:1029E0000BB60F922F933F934F935F936F937F9309
:1029F0008F939F93AF93BF93EF93FF9386E395E0FD
:102A00000E944F0BFF91EF91BF91AF919F918F91DA
:102A10007F916F915F914F913F912F910F900BBEDE
:102A20000F900FBE0F901F9018951F920F920FB628
:102A30000F9211240BB60F922F933F934F935F93F6
:102A40006F937F938F939F93AF93BF93EF93FF9376
:102A50008091C8029091C902009711F00E94670D01
:102A6000FF91EF91BF91AF919F918F917F916F9166
:102A70005F914F913F912F910F900BBE0F900FBE22
:102A80000F901F9018951F920F920FB60F9211245E
:102A90000BB60F922F933F934F935F936F937F9358
:102AA0008F939F93AF93BF93EF93FF938091B90060
:102AB000887F803609F44DC008F040C0883209F4A0
:102AC000A9C028F5803109F49DC0C8F4882309F411
:102AD000FBC0883009F496C0FF91EF91BF91AF9190
:102AE0009F918F917F916F915F914F913F912F9126
:102AF0000F900BBE0F900FBE0F901F90189588314E
:102B000009F488C0803241F78093330314C08034C5
:102B100009F49DC040F48033B9F38833E9F680931B
:102B2000330385ECB0C0803509F485C0883509F4DD
:102B300096C0883489F60E944313CECF883909F4B1
:102B40008CC038F5883729F050F4883611F080377A
:102B500019F683E0809335031092C70257C0883876
:102B600009F47BC0803919F0803809F0B5CF809125
:102B7000C702803208F071C0E091C70281E08E0F79
:102B80008093C7028091BB00F0E0E955FD4F808340
:102B90003DC0803B39F0E0F4803A09F479C0883ACE
:102BA00009F09ACF84E0809335031092A602109228
:102BB000A502E091CC02F091CD0219958091A50279
:102BC00081110FC081E08093A5021092850209C097
:102BD000803C09F4A6CF883C09F4A3CF883B09F0D8
:102BE0007BCFE091A60281E08E0F8093A602F0E0F9
:102BF000EB57FD4F80818093BB009091A60280919E
:102C0000A50229C0809110038093BB0085EC8093BE
:102C1000BC0062CF9091320380913103981758F530
:102C2000E091320381E08E0F80933203F0E0EF5E9B
:102C3000FC4F8081E9CFE091320381E08E0F8093D9
:102C400032038091BB00F0E0EF5EFC4F80839091F7
:102C50003203809131039817C8F285E8D8CFE0910C
:102C6000320381E08E0F809332038091BB00F0E04D
:102C7000EF5EFC4F80838091340381115CCF81E053
:102C800080930F0384EA8093BC001092350324CF15
:102C900085EC8093BC00109235038091C70280328E
:102CA00030F4E091C702F0E0E955FD4F10826091E9
:102CB000C70270E0E091CA02F091CB0287EA92E08D
:102CC00019951092C70208CF1092330334CFCF93D7
:102CD000DF93109262031092610388EE93E0A0E00C
:102CE000B0E08093630390936403A0936503B09373
:102CF00066032BE232E03093600320935F0345E3E9
:102D000051E050936C0340936B0344E351E05093C4
:102D10006E0340936D0340E351E050937003409382
:102D20006F0341E351E0509372034093710342E318
:102D300051E0509374034093730346E351E0509382
:102D400076034093750310927803109279031092E2
:102D50007A0310927B031092FF031092FE0380937C
:102D6000000490930104A0930204B09303043093F1
:102D7000FD032093FC0345ED50E05093090440937C
:102D8000080444ED50E050930B0440930A0440EDD6
:102D900050E050930D0440930C0441ED50E05093EB
:102DA0000F0440930E0442ED50E050931104409301
:102DB000100446ED50E05093130440931204109217
:102DC0001504109216041092170410921804109211
:102DD0009C0410929B0480939D0490939E04A09366
:102DE0009F04B093A00430939A04209399044DEC6F
:102DF00050E05093A6044093A5044CEC50E050934F
:102E0000A8044093A70448EC50E05093AA044093D0
:102E1000A90449EC50E05093AC044093AB044AEC55
:102E200050E05093AE044093AD044EEC50E050930C
:102E3000B0044093AF041092B2041092B304109205
:102E4000B4041092B504109239051092380580939D
:102E50003A0590933B05A0933C05B0933D05309314
:102E600037052093360525EC30E030934305209359
:102E7000420524EC30E0309345052093440520ECD6
:102E800030E0309347052093460521EC30E0309345
:102E900049052093480522EC30E030934B05209300
:102EA0004A0526EC30E030934D0520934C051092F6
:102EB0004F05109250051092510510925205109234
:102EC000D6051092D5058093D7059093D805A09389
:102ED000D905B093DA058DE392E09093D405809301
:102EE000D3050E940B0B60938E0670938F06809320
:102EF00090069093910610928B0610928D06109278
:102F00008C061092E3051092E20588E090E0909321
:102F1000E5058093E4059093E7058093E60590939B
:102F2000E9058093E8059093EB058093EA051092FC
:102F3000F6051092ED051092EC051092EF05109237
:102F4000EE0581E08093F5058093F4052FEF3FEFC8
:102F50003093F3052093F2053093F1052093F005AB
:102F60008093F7051092F8051092FA051092F90572
:102F70002FE432E03093E1052093E00595E3909350
:102F8000FB058093FF0588E08093FE0588E090E0D4
:102F90000E94DF209093FD058093FC0581E090E086
:102FA0000E94DF20EC01909303068093020681E0EB
:102FB00090E00E94DF209093010680930006FC01C0
:102FC00010821882CFB7F8948091DF05811127C055
:102FD000EBEBF7E08491E5E7F7E09491E82FF0E080
:102FE000EE0FFF1FEA5DF84FA591B491EC91E92334
:102FF00021F461E085E30E94590A61E085E30E94C3
:10300000B50A8CB580618CBD8CB580648CBD61E0E7
:1030100084E30E94B50A61E083E30E94B50A8091CF
:10302000DF058F5F8093DF05CFBF61E08091FB05F7
:103030000E94B50A70E060E080EE95E00E943413D3
:1030400060E08FE00E94870A67E08BE00E94870AB9
:1030500060E089E00E94870A61E08CE00E94870AB4
:1030600067E08AE00E94870ADF91CF910C940B0BF6
:10307000CF93DF93CDB7DEB7AB970FB6F894DEBF33
:103080000FBECDBF789484B5826084BD84B5816065
:1030900084BD85B5826085BD85B5816085BD809123
:1030A0006E00816080936E0010928100809181009B
:1030B0008260809381008091810081608093810093
:1030C000809180008160809380008091B100846055
:1030D0008093B1008091B00081608093B0008091B6
:1030E0009100826080939100809191008160809333
:1030F0009100809190008160809390008091A10068
:1031000082608093A1008091A10081608093A100E2
:103110008091A00081608093A00080912101826055
:103120008093210180912101816080932101809110
:10313000200181608093200180917A0084608093D7
:103140007A0080917A00826080937A0080917A0080
:10315000816080937A0080917A00806880937A0001
:103160001092C10040E052EC61E070E089E994E027
:103170000E941A0489E994E0909309068093080656
:1031800084E0809307060E940B0B60930A067093FD
:103190000B0680930C0690930D0610922E0610924B
:1031A0002F0610924D0610924C0610924E068091FA
:1031B000C8029091C90290938D0680938C06892B4A
:1031C00039F48FEA87BD80916E00826080936E0033
:1031D00084E096E09093C9028093C80262E08AE09E
:1031E0000E94870A62E080EE95E00E945F0470E032
:1031F00060E080EE95E00E94341318E060E0812FDB
:103200000E94870A1150D1F71092EE021092EF023D
:1032100010923C0310925E030E948F0F8EE19BE0A0
:103220009093CD028093CC028FE19BE09093CB02F0
:103230008093CA0281E080933B0380935D0361E049
:1032400083ED95E00E940D1181E00E94CE0F40E8D1
:1032500055E260E070E086E395E00E941A0440E0E9
:1032600052EC61E070E08CEF93E00E941A0440E8B9
:1032700055E260E070E08FE593E00E941A0462E09E
:1032800086E30E94B50A61E08DE00E94B50A61E024
:103290008DE00E94590A8CEF93E00E946E0C882406
:1032A0008394912C78EE472E73E0572E612C712C6D
:1032B000E6E1F2E08491E6E7F7E01491ECEBF7E069
:1032C0000491002351F181110E94F209E02FF0E0F6
:1032D000EE0FFF1FE455FE4FA591B4918C9118237A
:1032E000E1F0609140067091410630E020E06436E4
:1032F000710570F090E080E0685E7340810991098B
:10330000660F771F881F991FA30192010E94E71F74
:103310003093F1022093F00204C09092F102809267
:10332000F002E090F002F090F102F2E0EF16F1040A
:1033300009F4EAC081E08093000260913C0670913C
:103340003D0611E06436710558F090E080E0685E5B
:10335000734081099109A30192010E94E71F122F76
:103360001093FC02609142067091430601E06436BE
:10337000710558F090E080E0685E73408109910922
:10338000A30192010E94E71F022F0093FD0270E04B
:1033900060E080EE95E00E943413E114F10409F03E
:1033A000B6C00FE112E0D12CC12CF12CE12CF801B8
:1033B000208130E0C4010E2C02C0880F991F0A94AE
:1033C000E2F728233923A601B70180EE95E00E9499
:1033D000B30CFFEFEF1AFF0A48E0E416F10439F7E7
:1033E0008FEFC81AD80A0F5F1F4F98E0C916D10493
:1033F000E1F618E060E0812F0E94870A1150D1F7B2
:1034000067E772E08CEF93E00E943F1181E08093C8
:103410003B0380935D0310923C0310925E0364E4CF
:1034200083ED95E00E940D1181E00E94CE0F0E9475
:10343000E60A6B017C0180913503811123C181E093
:1034400080933503809334039FEF9093330310925E
:1034500032038093310380931003809110038260C4
:103460008093100380910F03813009F07EC1109288
:103470000F030E94E60A6B017C0180911003809388
:10348000BB008091370390913803A0913903B0912C
:103490003A03892B8A2B8B2BA1F00E94E60A00911C
:1034A0003703109138032091390330913A036C1996
:1034B0007D098E099F09061717072807390708F4A1
:1034C00002C18091BC0083FDD8CF85EC8093BC0005
:1034D0000E94E60A6B017C0180913503813009F47A
:1034E00046C180913203823008F063C1809132037B
:1034F000A1E1B3E0EEECF2E090E0981709F4E8C047
:103500002D9121939F5FF9CF1092000216CFE1E039
:10351000EE16F10409F084C037E1A32E32E0B32E99
:10352000D12CC12CF12CE12CF501208130E0C4011B
:103530000E2C02C0880F991F0A94E2F72823392322
:10354000A601B70180EE95E00E94B30CFFEFEF1AE1
:10355000FF0A48E0E416F10439F78FEFC81AD80AD9
:103560009FEFA91AB90AE8E0CE16D104D9F60023D4
:1035700059F12FE0A22E22E0B22ED12CC12CF12C39
:10358000E12CF501208130E0C4010E2C02C0880F2F
:10359000991F0A94E2F728233923A601B70180EE88
:1035A00095E00E94B30CFFEFEF1AFF0A48E0E41623
:1035B000F10439F78FEFC81AD80A9FEFA91AB90A90
:1035C000E8E0CE16D104D9F6112309F412CF0FE0AA
:1035D00012E0D12CC12CF12CE12CF801208130E03B
:1035E000C4010E2C02C0880F991F0A94E2F7282309
:1035F0003923A601B70180EE95E00E94B30CFFEFDE
:10360000EF1AFF0A48E0E416F10439F78FEFC81A01
:10361000D80A0F5F1F4F98E0C916D104E1F6E9CE32
:10362000E2E0EE16F10409F0E4CE1111E2CE011150
:10363000E0CE07E012E0D12CC12CF12CE12CF801F6
:10364000208130E0C4010E2C02C0880F991F0A941B
:10365000E2F728233923A601B70180EE95E00E9406
:10366000B30CFFEFEF1AFF0A48E0E416F10439F754
:103670008FEFC81AD80A0F5F1F4F98E0C916D10400
:10368000E1F6B7CE8091370390913803A0913903CA
:10369000B0913A03892B8A2B8B2B09F4CCCE0E9454
:1036A000E60A0091370310913803209139033091D5
:1036B0003A036C197D098E099F0906171707280719
:1036C000390708F0B8CE809136030E94AD0F80E034
:1036D0001092EE028093EF028230F0F383ED95E0DA
:1036E0000E94CD10182F83ED95E00E94CD10382E4A
:1036F000212CF101E12B8F011093FB020093FA02C0
:1037000080910002882341F00E940B0B1093F90274
:103710000093F8021092FD028CEF93E00E94CB0B15
:10372000181619060CF0C1C11EA21DA218A61FA2D0
:103730001AA619A650E040E062E872E0CE01859634
:103740000E945E120E948B0B97FD35C0843291055A
:1037500091F189831A8241E050E0BE016F5F7F4F93
:10376000CE0185960E940912EDCF85EEAFCE8091F5
:10377000370390913803A0913903B0913A03892B14
:103780008A2B8B2B09F4A8CE0E94E60A00913703FE
:10379000109138032091390330913A036C197D0957
:1037A0008E099F09061717072807390708F094CED6
:1037B0008ACF82E09DCE8CEF93E00E946E0C21E0D8
:1037C00030E050E040E0BE016B5D7F4FCE010196DE
:1037D0000E94DF12CE0101960E94D6116BA7CE0186
:1037E00001960E94CC11FBA5F13009F0D6C19EEFE5
:1037F000E92E92E0F92E10E000E098012C5F3F4F97
:103800000F5F1F4FA801BE016B5D7F4FCE01019678
:103810000E94DF12CE0101960E94D611F70161933A
:1038200071937F01CE0101960E94CC1104301105E5
:1038300021F72DE030E04CE050E0BE016B5D7F4FA2
:10384000CE0107960E94DF12CE0107960E94D61184
:103850006093FC022EE030E04DE050E0BE016B5D75
:103860007F4FCE0101960E94DF12CE0101960E9489
:10387000D6116093FD02CE0101960E94CC11CE01BB
:1038800007960E94CC116091FD02CE014F960E94D6
:1038900089126091FC02CE0149960E9489126091C2
:1038A000F4027091F502CE0143960E94B31260912A
:1038B000F6027091F702CE010D960E94B3126BA52D
:1038C000CE0101960E94891218861F821A861986D7
:1038D0001C861B8669817A816115710531F04D81E5
:1038E0005E81CE0107960E945E126DE772E0CE0106
:1038F00007960E943512BE01635F7F4F0E944B12F4
:103900006EE772E00E943512BE016D5E7F4F0E942D
:103910004B126DE772E00E943512BE01675E7F4F69
:103920000E944B126DE772E00E943512BE01615E8B
:103930007F4F0E944B12FC0144815581608171814F
:1039400086E395E00E94220B60E872E086E395E052
:103950000E943F11CE0107960E94CC11CE01019624
:103960000E94CC11CE010D960E94CC11CE0143963F
:103970000E94CC11CE0149960E94CC11CE014F96E7
:103980000E94CC1184E690E09093F5028093F402BB
:103990008091F6029091F7020196039720F410921D
:1039A000F7021092F6020091F6021091F702809150
:1039B000F2029091F302B801681B790B072E000CFC
:1039C000880B990B0E94EE1E20E030E040E251E4AB
:1039D0000E94291F6B017C01B801012E000C880B8D
:1039E000990B0E94EE1E2AE939E949E95FE30E943A
:1039F000291F9B01AC01C701B6010E943D200E9416
:103A0000A9202CE93FEF3093FF022093FE0224E629
:103A100030E03093010320930003261B370B25363B
:103A2000310514F024E630E02C39FFEF3F0714F4A1
:103A30002CE93FEF30930303209302036C597F4F2F
:103A40006536710514F064E670E06C394FEF740769
:103A500014F46CE97FEF70930503609304031093F3
:103A6000F3020093F2024091F0025091F102052E10
:103A7000000C660B770B77FF2CC18CEF93E00E9454
:103A800095114091FA025091FB024C595F4F052E5F
:103A9000000C660B770B77FF22C18CEF93E00E943E
:103AA0009511CE0185960E94CC11C0908E06D090C3
:103AB0008F06E0909006F090910682E3C80ED11C2C
:103AC000E11CF11C0E940B0BC616D706E806F9068E
:103AD00008F060C00EEF12E086E0E82E83E0F82EDA
:103AE000F801419151918F0148535F4F052E000C11
:103AF000660B770B77FFF9C08FE593E00E94951175
:103B0000E016F10669F76091FD02CE010D960E9464
:103B100089126091FC02CE0101960E9489121886DA
:103B20001F821A8619861C861B8669817A81611517
:103B3000710531F04D815E81CE0107960E945E12C3
:103B4000BE01635F7F4FCE0107960E944B126BE769
:103B500072E00E943512FC014481558160817181BF
:103B60008FE593E00E94220BCE0107960E94CC11B4
:103B7000CE0101960E94CC11CE010D960E94CC116F
:103B80000E940B0B60938E0670938F0680939006B5
:103B9000909391060E948E0C8BCBFBA5F11144C033
:103BA00024E030E041E050E0BE016B5D7F4FCE018C
:103BB00007960E94DF12CE0107960E94D6117093DD
:103BC000F7026093F60227E030E044E050E0BE01E7
:103BD0006B5D7F4FCE0101960E94DF12CE010196F0
:103BE0000E94D6117093F5026093F402CE01019603
:103BF0000E94CC11CE0107960E94CC1127E030E044
:103C000046E050E0BE016B5D7F4FCE0107960E94FB
:103C1000DF12CE0107960E94D6116093FC0228E0C5
:103C200030E047E050E01ACE4BA5423039F724E0AF
:103C300030E041E050E0BE016B5D7F4FCE01079662
:103C40000E94DF12CE0107960E94D6115B0170938D
:103C5000F9026093F80227E030E044E050E0BE0152
:103C60006B5D7F4FCE0101960E94DF12CE0101965F
:103C70000E94D6117093F5026093F402CE01019672
:103C80000E94CC11CE0107960E94CC11C501801B69
:103C9000910BA016B106ACF488599E4F9093F70291
:103CA0008093F6028091F6029091F702853B910590
:103CB0000CF4A4CF885691409093F7028093F602BB
:103CC0009DCF0A151B0551F71092F7021092F602CC
:103CD000E9CF2AE08CEF93E00E944911D2CE2AE08E
:103CE0008CEF93E00E944911DCCE2AE08FE593E04F
:103CF0000E94491105CF1F93FC0199278827BC0119
:103D0000E89411911032E9F3193010F01E30C8F325
:103D10001B3251F01D3249F4689406C00E94AD1E5A
:103D2000610F711D811D911D119110531A30B0F357
:103D30003EF490958095709561957F4F8F4F9F4F82
:103D40001F910895BB274A3031F4992322F4BDE234
:103D5000909581959F4F0C94C31E592F482F372F54
:103D6000262F660F771F881F991F660F771F881FE2
:103D7000991F620F731F841F951F660F771F881F7F
:103D8000991F0895BB27FB015527AA27880F991F64
:103D9000AA1FA41710F0A41B83955051B9F7A05D7A
:103DA000AA3308F0A95DA193009779F7B111B193F7
:103DB0001192CB010C94DC1EDC01FC01672F719188
:103DC0007723E1F7329704C07C916D937083629101
:103DD000AE17BF07C8F30895E89409C097FB3EF4F7
:103DE00090958095709561957F4F8F4F9F4F992348
:103DF000A9F0F92F96E9BB279395F69587957795C6
:103E00006795B795F111F8CFFAF4BB0F11F460FF85
:103E10001BC06F5F7F4F8F4F9F4F16C0882311F0DD
:103E200096E911C0772321F09EE8872F762F05C0F1
:103E3000662371F096E8862F70E060E02AF09A958C
:103E4000660F771F881FDAF7880F9695879597F981
:103E500008950E943C1F0C94AD1F0E949F1F38F0D4
:103E60000E94A61F20F0952311F00C94961F0C942D
:103E70009C1F11240C94E11F0E94BE1F70F3959F9C
:103E8000C1F3950F50E0551F629FF001729FBB2751
:103E9000F00DB11D639FAA27F00DB11DAA1F649FED
:103EA0006627B00DA11D661F829F2227B00DA11DA0
:103EB000621F739FB00DA11D621F839FA00D611D26
:103EC000221F749F3327A00D611D231F849F600D47
:103ED000211D822F762F6A2F11249F5750409AF070
:103EE000F1F088234AF0EE0FFF1FBB1F661F771FFC
:103EF000881F91505040A9F79E3F510580F00C94C7
:103F0000961F0C94E11F5F3FE4F3983ED4F386952F
:103F100077956795B795F795E7959F5FC1F7FE2B66
:103F2000880F911D9695879597F9089597F99F6742
:103F300080E870E060E008959FEF80EC0895002431
:103F40000A941616170618060906089500240A94FE
:103F500012161306140605060895092E0394000C84
:103F600011F4882352F0BB0F40F4BF2B11F460FF13
:103F700004C06F5F7F4F8F4F9F4F089557FD90583C
:103F8000440F551F59F05F3F71F04795880F97FB1D
:103F9000991F61F09F3F79F08795089512161306D7
:103FA0001406551FF2CF4695F1DF08C01616170606
:103FB0001806991FF1CF869571056105089408953B
:103FC000E894BB2766277727CB0197F90895052E3C
:103FD00097FB1EF400940E94FE1F57FD07D00E941D
:103FE000062007FC03D04EF40C94FE1F509540951C
:103FF000309521953F4F4F4F5F4F08959095809595
:10400000709561957F4F8F4F9F4F0895A1E21A2EB3
:10401000AA1BBB1BFD010DC0AA1FBB1FEE1FFF1F6C
:10402000A217B307E407F50720F0A21BB30BE40BBC
:10403000F50B661F771F881F991F1A9469F7609503
:104040007095809590959B01AC01BD01CF010895BD
:10405000991B79E004C0991F961708F0961B881FDA
:104060007A95C9F780950895EE0FFF1F881F8BBFC3
:104070000790F691E02D19945058BB27AA270E946B
:1040800054200C94AD1F0E949F1F38F00E94A61F61
:1040900020F039F49F3F19F426F40C949C1F0EF481
:1040A000E095E7FB0C94961FE92F0E94BE1F58F382
:1040B000BA17620773078407950720F079F4A6F50D
:1040C0000C94E01F0EF4E0950B2EBA2FA02D0B01DF
:1040D000B90190010C01CA01A0011124FF27591B4D
:1040E00099F0593F50F4503E68F11A16F040A22F53
:1040F000232F342F4427585FF3CF469537952795C4
:10410000A795F0405395C9F77EF41F16BA0B620BC2
:10411000730B840BBAF09150A1F0FF0FBB1F661F09
:10412000771F881FC2F70EC0BA0F621F731F841F4C
:1041300048F4879577956795B795F7959E3F08F072
:10414000B0CF9395880F08F09927EE0F9795879534
:1041500008950E94B0206894B1110C94E11F089555
:104160000E94C61F88F09F5798F0B92F9927B75122
:10417000B0F0E1F0660F771F881F991F1AF0BA950B
:10418000C9F714C0B13091F00E94E01FB1E008956A
:104190000C94E01F672F782F8827B85F39F0B93F5C
:1041A000CCF3869577956795B395D9F73EF49095BE
:1041B0008095709561957F4F8F4F9F4F08950F9316
:1041C0001F93CF93DF938230910510F482E090E04B
:1041D000E0919406F091950630E020E0B0E0A0E098
:1041E000309799F42115310509F44AC0281B390B81
:1041F00024303105D8F58A819B816115710589F1DB
:10420000FB0193838283FE0111C0408151810281B1
:10421000138148175907E0F04817590799F4109788
:1042200061F012960C93129713961C933296CF015D
:10423000DF91CF911F910F910895009394061093F1
:104240009506F4CF2115310551F04217530738F088
:10425000A901DB019A01BD01DF01F801C1CFEF0126
:10426000F9CF9093950680939406CDCFFE01E20F8F
:10427000F31F819391932250310939832883D7CF3B
:104280002091920630919306232B41F42091030252
:1042900030910402309393062093920620910102FC
:1042A000309102022115310541F42DB73EB74091FE
:1042B000050250910602241B350BE0919206F09105
:1042C0009306E217F307A0F42E1B3F0B28173907BC
:1042D00078F0AC014E5F5F4F2417350748F04E0F62
:1042E0005F1F5093930640939206819391939FCFC3
:1042F000F0E0E0E09CCFCF93DF930097E9F0FC0182
:10430000329713821282A0919406B0919506ED0126
:1043100030E020E01097A1F420813181820F931FBB
:1043200020919206309193062817390709F061C051
:10433000F0939306E0939206DF91CF910895EA01FE
:10434000CE17DF07E8F54A815B819E0141155105D3
:10435000B1F7E901FB83EA8349915991C40FD51F55
:10436000EC17FD0761F4808191810296840F951FFF
:10437000E90199838883828193819B838A83F0E01A
:10438000E0E012968D919C9113970097B9F52D91CD
:104390003C911197CD010296820F931F20919206B6
:1043A000309193062817390739F6309751F5109256
:1043B000950610929406B0939306A0939206BCCFF4
:1043C000D383C28340815181840F951FC817D907B9
:1043D00061F44E5F5F4F88819981480F591F518367
:1043E00040838A819B81938382832115310509F063
:1043F000B0CFF0939506E09394069ECFFD01DC01CB
:10440000C0CF13821282D7CF4F925F926F927F926A
:104410008F929F92AF92BF92CF92DF92EF92FF92D4
:104420000F931F93CF93DF938C01009799F4CB01E7
:10443000DF91CF911F910F91FF90EF90DF90CF9080
:10444000BF90AF909F908F907F906F905F904F90B4
:104450000C94DF20FC01E60FF71F9C01225031096C
:10446000E217F30708F4AEC0D901CD91DC911197A2
:10447000C617D70720F1C530D10578F0CE010497D3
:104480008617970750F0C61BD70B2297C193D1937D
:104490006D937C93CF010E947B21C801DF91CF9166
:1044A0001F910F91FF90EF90DF90CF90BF90AF9052
:1044B0009F908F907F906F905F904F9008955B01D9
:1044C000AC1ABD0A4C018C0E9D1EA0919406B091B1
:1044D0009506512C412CF12CE12C109731F580914F
:1044E0009206909193068815990509F05CC04616CE
:1044F000570608F058C0809101029091020200977F
:1045000041F48DB79EB74091050250910602841B7D
:10451000950BE817F90708F055C0F0939306E09360
:104520009206F90171836083B8CF8D919C911197A8
:1045300012966C90129713967C901397A815B90554
:1045400059F56C0142E0C40ED11CCA14DB0420F101
:10455000AC014A195B09DA011296159780F0628264
:10456000738251834083D9016D937C93E114F104EC
:1045700071F0D7011396FC93EE9312978ECF22968B
:104580008C0F9D1FF90191838083F301EFCFF0938E
:104590009506E093940681CF4816590608F42C013D
:1045A0007D01D3019ACFCB010E94DF207C010097CF
:1045B00049F0AE01B8010E94EA22C8010E947B21A5
:1045C00087016BCF10E000E068CF81E090E0F894C5
:1045D0000C940123FB01DC0102C001900D924150BB
:1045E0005040D8F70895DC0101C06D934150504010
:1045F000E0F70895FB01DC0101900D920020E1F746
:064600000895F894FFCFBD
:104606000100009606800066667E7E66667E3C1E1B
:104616003FBFBFBF9E4C38C3C3C3DBFFFFE7C3C367
:10462600C7CFDFFBF3E3C300000000210C220B68B9
:104636000B6E0CCB0B770BBD0B000000000D11E0D1
:10464600103C111609170BCD10BE10000000009982
:1046560006220B3C115F0DB30C16093F09170933EF
:1046660009270946091609200B5E04DD08A4085F20
:10467600083413CA076B0730393939240020200063
:044686000D0A000019
:00000001FF
