:100000000C940F040C9440040C9440040C94400491
:100010000C9440040C9440040C9440040C94400450
:100020000C9440040C9440040C9440040C94400440
:100030000C9440040C9440040C9440040C94400430
:100040000C9440040C9440040C9440040C94400420
:100050000C9440040C94E8140C9440040C944E133B
:100060000C9440040C94BE140C9494140C9440040E
:100070000C9440040C9440040C9440040C944004F0
:100080000C9440040C9440040C9440040C944004E0
:100090000C946A140C9440140C9440040C9416159F
:1000A0000C9440040C9440040C9440040C944004C0
:1000B0000C9440040C9440040C9440040C944004B0
:1000C0000C9440040C9440040C9440040C941614BA
:1000D0000C94EC130C9440040C94C2130C949813DD
:1000E0000C944004084AD73B3BCE016E84BCBFFD54
:1000F000C12F3D6C74319ABD56833DDA3D00C77FF8
:1001000011BED9E4BB4C3E916BAAAABE0000008090
:100110003F0664EC1B3C04BC163E3BE5B93CC93CC5
:1001200037C29E5A3D660498083EEA69AAAA3E0074
:100130000000803F0C94530A0C947D0A0C945A0CD6
:100140000C94A70C0C9410110C94C1060C94F60B93
:100150000C94780A0C94EE100C94FD100C94840B03
:100160000C946C110C946E090C94860B0C94CC08B6
:100170000C9467090C94980D0C946F0A0C943E092A
:100180000C94730A0C94420A0C94460A0C94820B49
:100190000C943D110C944A0A0C94EC0C0C948604BB
:1001A0000C944F090C94040C0C94650A0C945B0994
:1001B0000C94830B0C94790A0C9493070C94050906
:1001C0000C943E0A0C943F090C9487080C94380A4E
:1001D0000C94610A0C9407130C94F2070C94570AC0
:1001E0000C94D30B0C944D0A0C943A160C945D0AA3
:1001F0000C94E20B0C947B0B0C946B0A0000200017
:100200002300260029002C002F00320000010000EE
:1002100003010601090100002200250028002B002F
:100220002E003100340002010000050108010B011D
:1002300000000A0B02090C0D0E0807030401000060
:1002400000000000000000000000000000000000AE
:10025000000000000000000000000000121110006B
:10026000000000000000000000000000000000008E
:1002700000000000000000000000003E5B4F5B3EFD
:100280003E6B4F6B3E1C3E7C3E1C183C7E3C181C5B
:10029000577D571C1C5E7F5E1C00183C1800FFE752
:1002A000C3E7FF0018241800FFE7DBE7FF30483AF8
:1002B000060E2629792926407F050507407F05255A
:1002C0003F5A3CE73C5A7F3E1C1C08081C1C3E7FE2
:1002D00014227F22145F5F005F5F06097F017F00A9
:1002E0006689956A606060606094A2FFA2940804C9
:1002F0007E040810207E201008082A1C08081C2AEA
:1003000008081E101010100C1E0C1E0C30383E3841
:1003100030060E3E0E06000000000000005F0000E8
:100320000007000700147F147F14242A7F2A122359
:100330001308646236495620500008070300001C69
:100340002241000041221C002A1C7F1C2A08083E72
:100350000808008070300008080808080000606085
:100360000020100804023E5149453E00427F4000F3
:1003700072494949462141494D331814127F1027CB
:10038000454545393C4A494931412111090736491A
:10039000494936464949291E0000140000004034EE
:1003A00000000008142241141414141400412214F3
:1003B0000802015909063E415D594E7C1211127C1A
:1003C0007F494949363E414141227F4141413E7F7B
:1003D000494949417F090909013E414151737F085B
:1003E00008087F00417F41002040413F017F081401
:1003F00022417F404040407F021C027F7F04081062
:100400007F3E4141413E7F090909063E4151215E3F
:100410007F09192946264949493203017F01033FD3
:100420004040403F1F2040201F3F4038403F631462
:1004300008146303047804036159494D43007F4164
:1004400041410204081020004141417F04020102A1
:1004500004404040404000030708002054547840C6
:100460007F284444383844444428384444287F385A
:100470005454541800087E090218A4A49C787F08DC
:1004800004047800447D40002040403D007F102857
:10049000440000417F40007C047804787C08040418
:1004A000783844444438FC1824241818242418FCB0
:1004B0007C08040408485454542404043F44243C55
:1004C0004040207C1C2040201C3C4030403C4428C4
:1004D0001028444C9090907C4464544C440008365E
:1004E00041000000770000004136080002010204CC
:1004F000023C2623263C1EA1A161123A4040207AEC
:100500003854545559215555794122545478422133
:100510005554784020545579400C1E52721239556A
:100520005555593954545459395554545800004567
:100530007C410002457D420001457C407D12111244
:100540007DF0282528F07C545545002054547C54D7
:100550007C0A097F4932494949323A4444443A3293
:100560004A4848303A4141217A3A42402078009D39
:10057000A0A07D3D4242423D3D4040403D3C24FFE5
:100580002424487E4943662B2FFC2F2BFF0929F694
:1005900020C0887E090320545479410000447D41E5
:1005A0003048484A32384040227A007A0A0A727D3E
:1005B0000D19317D2629292F282629292926304859
:1005C0004D4020380808080808080808382F10C8C7
:1005D000ACBA2F102834FA00007B000008142A144B
:1005E0002222142A14085500550055AA55AA55AAC6
:1005F000FF55FF55FF000000FF00101010FF001412
:100600001414FF001010FF00FF1010F010F014146D
:1006100014FC001414F700FF0000FF00FF1414F492
:1006200004FC141417101F10101F101F1414141F93
:1006300000101010F0000000001F101010101F100C
:10064000101010F010000000FF101010101010100B
:100650001010FF10000000FF140000FF00FF00005A
:100660001F10170000FC04F414141710171414F4CE
:1006700004F40000FF00F714141414141414F70009
:10068000F7141414171410101F101F141414F4145A
:100690001010F010F000001F101F0000001F1400C9
:1006A0000000FC140000F010F01010FF10FF1414F4
:1006B00014FF141010101F00000000F010FFFFFFC7
:1006C000FFFFF0F0F0F0F0FFFFFF0000000000FF80
:1006D000FF0F0F0F0F0F3844443844FC4A4A4A3486
:1006E0007E02020606027E027E026355494163389D
:1006F00044443C04407E201E2006027E020299A54E
:10070000E7A5991C2A492A1C4C7201724C304A4DAB
:100710004D303048784830BC625A463D3E494949E0
:10072000007E0101017E2A2A2A2A2A44445F444489
:1007300040514A444040444A51400000FF0103E018
:1007400080FF000008086B6B083612362436060F4F
:10075000090F06000018180000001010003040FFBC
:100760000101001F01011E00191D1712003C3C3C35
:100770003C000000000000002100240027002A00A7
:100780002D003000330001010000040107010A01BF
:100790000102102020080810204010204080020193
:1007A0000201080402010102040810204080804078
:1007B0002010080402018004020180402010080477
:1007C0000201080402010102040810204080010215
:1007D00004081020408005050505070508080808DD
:1007E000020202020A0A08080404040401010101C9
:1007F00001010101030303030303030304070707C4
:100800000C0C0C0C0C0C0C0C020202020606060668
:10081000060606060B0B0B0B0B0B0B0B3A161124E3
:100820001FBECFEFD1E2DEBFCDBF00E00CBF12E0B4
:10083000A0E0B2E0ECE3F2E500E00BBF02C00790FD
:100840000D92A439B107D9F726E0A4E9B2E001C0BE
:100850001D92A03BB207E1F714E0CFE0D4E000E046
:1008600006C021970109802FFE010E940924CE3085
:10087000D10780E00807A9F70E9409180C941C29E9
:100880000C940000CF93DF93EC019A01AB01E8894F
:10089000F98982E08083211581EE380741055105F1
:1008A00081F160E079E08DE390E00E94BC2321506B
:1008B0003109410951095695479537952795EC859A
:1008C000FD851082EE85FF852083188EEC89FD89D9
:1008D00086E08083EA89FB89808180618083EA8960
:1008E000FB89808188608083EA89FB8980818068B8
:1008F0008083EA89FB8980818F7D8083DF91CF911E
:100900000895E889F989108220E1D9CF0895FC0182
:100910006370668B8481958126813781613039F0DF
:10092000633029F091878087338722870895318744
:1009300020879387828708952F923F924F925F92EC
:100940006F927F928F929F92AF92BF92CF92DF92DF
:10095000EF92FF920F931F93CF93DF93CDB7DEB744
:100960006A970FB6F894DEBF0FBECDBF9A8F898FFE
:100970007A8369834A01D22E18870F833701BC2CF2
:10098000DC0159962D913C915A972115310509F0BA
:1009900015C118968D919C911997681779070CF0DD
:1009A000D7C11A968D919C91481759070CF0D0C168
:1009B0004C2C512CB6E0CB9E600D711D11247C8710
:1009C0006B87161617060CF0C3C1EA2DF0E0FA8704
:1009D000E98793E0EE0FFF1F9A95E1F7F88BEF8719
:1009E000CF01840F951F181619060CF0B1C1A98DFF
:1009F000BA8D58968C91811104C0BFEABD1508F4D8
:100A0000D394A98DBA8DED91FC9111970284F38551
:100A1000E02DCD011995B5E0DB9EC0011124E981DF
:100A2000FA81FC83EB83312C212C9C012A583D4F09
:100A3000388F2F8B4A2D50E05E8B4D8BEF89F88DD0
:100A4000E20DF31D44919E828D82D12CC12C6981CF
:100A50007A81620D731D7A8B698B842F90E09C8B59
:100A60008B8BE98DFA8DA081B18140FF82C0F1E0CE
:100A7000BF126FC0AF126DC01C96ED91FC912F811B
:100A80003885A4014C0D5D1D69897A89898D9A8DFF
:100A90001995EB89FC89F595E7954E2F5FEFC51AFF
:100AA000D50A6D817E818D899E89680F791F7E832D
:100AB0006D8398E0C916D10481F6AFEF2A1A3A0A7D
:100AC000EB81FC81E40DF51DFC83EB83F5E02F1633
:100AD000310409F0B3CF2F81388526153705B9F0D9
:100AE000A98DBA8DED91FC91B1E0BB1257C0AB124C
:100AF00055C069817A816B5F7F4F0088F189E02D55
:100B0000830128E030E0A401898D9A8D1995A98D83
:100B1000BA8DED91FC9111970688F789E02DCD01F2
:100B20006A960FB6F894DEBF0FBECDBFDF91CF91AE
:100B30001F910F91FF90EF90DF90CF90BF90AF90FB
:100B40009F908F907F906F905F904F903F902F90ED
:100B500019941E96ED91FC91EF80F88409851A8511
:100B600092014D815E816B817C81898D9A8D199571
:100B700090CF2F8138852615370509F48ACF31E0CB
:100B8000B31207C0A31205C01C96ED91FC9193010E
:100B900078CF1E96ED91FC917301E0CF6B857C853B
:100BA000641975090684F785E02D73010F8518898E
:100BB0009201A401898D9A8D1995A9CFF9013496D6
:100BC0009491329745915491D91AB7E0DB9E400D2C
:100BD000511D1124F901259134913C8B2B8BFA0185
:100BE00025903490FA013296749031963491398B75
:100BF000329664903196449041E04C1518F04A15B5
:100C000008F07FC0662D062C000C770B7C836B836D
:100C1000842D042C000C990B9E838D83A98DBA8D95
:100C2000ED91FC9111970284F385E02DCD0119958A
:100C3000512CD12CC12CEA2DF0E0FA87E9872B2D1D
:100C400030E03C872B87A401440D511D47FC5A9589
:100C5000588F4F8B69817A81660D711D67FC7A957B
:100C60007E876D877989C71608F051CF2C2D30E02B
:100C70004D815E81420F531FA985BA854A9FC001ED
:100C80004B9F900D5A9F900D1124FC01E80DF91D0A
:100C9000F88BEF87852D612C4F89588D420F531F9C
:100CA0005E8B4D8B671408F050C044244394480E6B
:100CB000877041F4C1010196EB89FC89E20DF31DB7
:100CC000D4901C01D7FE19C0A98DBA8DED91FC916D
:100CD000662D70E0B1E0BB1219C0AB1217C02D85B4
:100CE0003E85620F731F0484F585E02D2F813885C2
:100CF0004D895E89898D9A8D1995DD0C6394842DBB
:100D0000D1CF1E821D821C821B8288CF4B815C81C9
:100D1000640F751FAB85BC856A9FC0016B9F900DEA
:100D20007A9F900D112469817A81680F791F06845A
:100D3000F785E02DEF80F88409851A859D014F85A0
:100D40005889898D9A8D1995D8CF570CC3948ACF1D
:100D50006A960FB6F894DEBF0FBECDBFDF91CF917C
:100D60001F910F91FF90EF90DF90CF90BF90AF90C9
:100D70009F908F907F906F905F904F903F902F90BB
:100D800008958F929F92AF92CF92EF92FF920F931E
:100D90001F93CF93DF93EC01262F898D9A8D0097B7
:100DA00009F051C06A30D1F41D861C868D8948E057
:100DB000849F900111248E859F85820F931F9F87AA
:100DC0008E8781E090E0DF91CF911F910F91FF908E
:100DD000EF90CF90AF909F908F9008956D3089F3F2
:100DE000CC88AD888F898823C1F08C859D8536E0BD
:100DF000C39E800D911D11244885598548175907B8
:100E000064F44E855F851D861C8638E0A39EC00174
:100E10001124840F951F9F878E87EA88FB88088995
:100E200019894E855F856C857D85CE010E949C0465
:100E30002C898C859D8546E0249F800D911D112471
:100E40009D878C87BECF6A3069F41D861C86FC01A5
:100E50003896E4912D898E859F85E29F800D911DA6
:100E60001124ADCF6D3009F4ACCFFC013496349130
:100E7000631708F4A6CF3296E491E61708F4A1CFE1
:100E8000FC01329685909490462F431B342F47E007
:100E9000349F800C911C1124F401329634913196C8
:100EA000E4913323A9F1EE2399F1CC88F40135962E
:100EB000E491AD884F89442301F10E2E000CFF0B05
:100EC000E30FF11DCE9EA001CF9E500D11246C8525
:100ED0007D85460F571F68857985641775076CF403
:100EE0004E855F851D861C86FC013896E491AE9E7A
:100EF000400D511D11245F874E87EA88FB880889C1
:100F000019894E855F856C857D85CE010E949C0484
:100F1000F4013496E4912C898C859D85E29F800DA7
:100F2000911D11248DCF6F927F928F929F92AF92DD
:100F3000BF92CF92DF92EF92FF920F931F93CF93C6
:100F4000DF93EC016B015A0139014801E881F98115
:100F50000284F385E02D1995E881F9810288F389EF
:100F6000E02D87019301A501B601CE011995A501D8
:100F7000480D591D41505109E881F9810288F389D2
:100F8000E02D9301B601CE011995E881F981008821
:100F9000F189E02D9401A501B601CE011995C60C89
:100FA000D71CB60161507109E881F9810088F18987
:100FB000E02D9401A501CE011995E881F9810688FB
:100FC000F789E02DCE01DF91CF911F910F91FF9016
:100FD000EF90DF90CF90BF90AF909F908F907F90D9
:100FE0006F9019946F927F928F929F92AF92BF925F
:100FF000CF92DF92EF92FF920F931F93CF93DF93E5
:101000005C01EB016A01490138018701DC01ED91C6
:10101000FC916217730719F5641675062CF0962D6E
:10102000872D3A01C92ED82E9601261937092F5F30
:101030003F4F048CF58DE02DA301BE01C50119952C
:10104000DF91CF911F910F91FF90EF90DF90CF90A4
:10105000BF90AF909F908F907F906F9008954615AE
:10106000570591F42617370724F0892D4B01C22F1D
:10107000D82F9E01281939092F5F3F4F068CF78D15
:10108000E02DA601B401DACF0284F385E02D199595
:10109000D501ED91FC910488F589E02D830194013F
:1010A000A601BE01C5011995D501ED91FC910688F7
:1010B000F789E02DC501DF91CF911F910F91FF902E
:1010C000EF90DF90CF90BF90AF909F908F907F90E8
:1010D0006F901994EF92FF920F931F93DC011A9671
:1010E0000D911C911B9718962D913C911997ED919C
:1010F000FC9100A0F1A1E02D7B0150E040E070E008
:1011000060E019951F910F91FF90EF9008954F9215
:101110005F926F927F928F929F92AF92BF92CF9287
:10112000DF92EF92FF920F931F93CF93DF936C01A7
:101130002B015A0139014801DC01ED91FC91028437
:10114000F385E02D1995E201640C751CD601ED9133
:10115000FC91C615D7055CF40088F189E02D870164
:101160009401A501BE01C60119952196EFCF06880D
:10117000F789E02DC601DF91CF911F910F91FF906C
:10118000EF90DF90CF90BF90AF909F908F907F9027
:101190006F905F904F9019948F929F92AF92BF92F1
:1011A000CF92DF92EF92FF920F931F93CF93DF9333
:1011B000EC015B014A016901E881F9810284F38550
:1011C000E02D199595012C0D3D1D21503109E88127
:1011D000F9810488F589E02D78018401A401B50125
:1011E000CE011995E881F9810688F789E02DCE01B5
:1011F000DF91CF911F910F91FF90EF90DF90CF90F3
:10120000BF90AF909F908F9019948F929F92AF92C2
:10121000BF92CF92DF92EF92FF920F931F93CF93E3
:10122000DF93EC015B014A0169017801E881F981F2
:101230000284F385E02D1995C80CD91C8601015054
:101240001109E881F9810488F589E02D9501A4014F
:10125000B501CE011995E881F9810688F789E02D5D
:10126000CE01DF91CF911F910F91FF90EF90DF9012
:10127000CF90BF90AF909F908F9019940895EF9268
:10128000FF920F931F93DC01ED91FC9100A0F1A15F
:10129000E02D19951F910F91FF90EF9008950F93F6
:1012A0001F93DC01ED91FC91068CF78DE02D1995D3
:1012B0001F910F9108950F931F93DC01ED91FC9105
:1012C000048CF58DE02D19951F910F910895DC0187
:1012D000ED91FC910084F185E02D19942F923F92BD
:1012E0004F925F926F927F928F929F92AF92BF9236
:1012F000CF92DF92EF92FF920F931F93CF93DF93E2
:1013000000D000D0CDB7DEB73C016A013E832D830B
:10131000FC82EB825801A41AB50AB7FE03C0B1944F
:10132000A194B1088D809E80861A970A97FE03C00B
:101330009194819491088A149B045CF0902F812FE2
:101340000D811E819D838E839C2D8D2D6B01692FB8
:10135000782F0C151D055CF09D818E817E836D8339
:10136000692F782F902F812F8601C92ED82E160134
:10137000201A310A2B012D813E81421A530A57FE51
:1013800003C0519441945108710137FE03C03FEFEF
:10139000E31AF30AF594E7948D819E8186179707E7
:1013A0005CF5A1E0B0E0BA83A983C016D1064CF188
:1013B000D301ED91FC910484F585E02D2B813C81D6
:1013C000A8016D817E818A149B041CF04D815E8191
:1013D000B801C3011995E418F508F7FE0AC02D817C
:1013E0003E8189819A81280F391F3E832D83E20C2B
:1013F000F31C0F5F1F4FD9CF2FEF3FEF3A832983A5
:10140000D4CF26960FB6F894DEBF0FBECDBFDF91C6
:10141000CF911F910F91FF90EF90DF90CF90BF90F1
:10142000AF909F908F907F906F905F904F903F9084
:101430002F9008958150823108F05AC0E82FF0E0D3
:101440008827EA5DF54F8F4F0C940924460A4A0A13
:10145000380A3E0A420A780A4D0A530A570A5D0AB8
:10146000610A650A6B0A6F0A780A730A790A7D0AAB
:10147000809180008F778093800008958091800014
:101480008F7DF9CF80918000877FF5CF84B58F77EE
:1014900084BD089584B58F7DFBCF8091B0008F7798
:1014A0008093B00008958091B0008F7DF9CF809136
:1014B00090008F77809390000895809190008F7DA9
:1014C000F9CF80919000877FF5CF8091A0008F7732
:1014D0008093A00008958091A0008F7DF9CF809126
:1014E000A000877FF5CF809120018F778093200126
:1014F0000895809120018F7DF9CF80912001877F11
:10150000F5CF1F93CF93DF93282F30E0F901E05DF3
:10151000FD4F8491F901E057F84FD491F901EA5257
:10152000F84FC491CC23A9F0162F81110E941A0AFA
:10153000EC2FF0E0EE0FFF1FEA5EFD4FA591B49196
:101540008FB7F894EC91111108C0D095DE23DC938D
:101550008FBFDF91CF911F910895DE2BF8CFCF93EE
:10156000DF93C82FD62F60E0809115060E94810A74
:101570009FEF9C0F80911806890F8850CEBD000008
:101580000DB407FEFDCF2EB52D2FC93038F4E091F4
:101590001606F0911706E80FF11D20812EBD000000
:1015A0000DB407FEFDCF2EB5981738F361E080919A
:1015B0001506DF91CF910C94810ACF93C8E060E0CB
:1015C0008C2F0E94AF0AC150D1F7CF910895CF93CD
:1015D000DF9390E0FC01E057F84F24918A52984F36
:1015E000FC0184918823D1F090E0880F991FFC01C1
:1015F000EA58F84FA591B491FC01EA5EFD4FC59100
:10160000D491623071F49FB7F8943C91822F809509
:1016100083238C93E8812E2B28839FBFDF91CF916A
:1016200008958FB7F894EC912E2B2C938FBFF6CFA3
:101630003FB7F8948091250390912603A09127034A
:10164000B091280326B5A89B05C02F3F19F001963D
:10165000A11DB11D3FBFBA2FA92F982F8827BC010C
:10166000CD01620F711D811D911D42E0660F771F34
:10167000881F991F4A95D1F708958F929F92AF9234
:10168000BF92CF92DF92EF92FF924B015C010E94DA
:10169000180B6B017C010E94180B6C197D098E09D7
:1016A0009F09683E734081059105A8F321E0821AE5
:1016B0009108A108B10888EEC80E83E0D81EE11C8D
:1016C000F11C81149104A104B10429F7FF90EF905B
:1016D000DF90CF90BF90AF909F908F9008952FB7DD
:1016E000F8946091210370912203809123039091DB
:1016F00024032FBF08958091070390910603891B4F
:10170000990B0895089508950C948704AF92BF92A1
:10171000CF92DF92EF92FF920F931F93CF93DF93BD
:101720006C017B018B01040F151FEB015E01AE18EC
:10173000BF08C017D10759F06991D601ED91FC910E
:101740000190F081E02DC6011995892B79F7C5012B
:10175000DF91CF911F910F91FF90EF90DF90CF908D
:10176000BF90AF900895FB014481558160817181E4
:101770000C94860BFC01A089B1898C91A689B7894C
:1017800082FD0FC09C91818D8F5F8F73228D821798
:1017900049F0A18DAE0FBF2FB11D5D969C93818F37
:1017A00008958C910895FC01538D448D252F30E0D0
:1017B000842F90E0821B930B541710F0CF9608955E
:1017C00001970895FC01918D828D981761F0A28D8B
:1017D000AE0FBF2FB11D5D968C91928D9F5F9F7351
:1017E000928F90E008958FEF9FEF0895FC01918D07
:1017F000828D981731F0828DE80FF11D858D90E074
:1018000008958FEF9FEF0895FC01918D228D892F10
:1018100090E0805C9F4F821B91098F7399270895F8
:1018200089E793E00E94040C21E0892B09F420E071
:10183000822F089586E194E00E94040C21E0892B18
:1018400009F420E0822F089583EB94E00E94040CB9
:1018500021E0892B09F420E0822F089580E595E0AE
:101860000E94040C21E0892B09F420E0822F0895C6
:10187000FC01A48DA80FB92FB11DA35ABF4F2C9105
:10188000848D90E001968F739927848FA689B789FC
:101890002C93A089B1898C91837080648C93938DF3
:1018A000848D981306C00288F389E02D80818F7D96
:1018B00080830895EF92FF920F931F93CF93DF934E
:1018C000EC0181E0888F9B8D8C8D98131AC0E8897C
:1018D000F989808185FF15C09FB7F894EE89FF894B
:1018E0006083E889F98980818370806480839FBFE9
:1018F00081E090E0DF91CF911F910F91FF90EF90E9
:101900000895F62E0B8D10E00F5F1F4F0F731127F8
:10191000E02E8C8D8E110CC00FB607FCFACFE88933
:10192000F989808185FFF5CFCE010E94380CF1CF77
:10193000EB8DEC0FFD2FF11DE35AFF4FF0829FB7A7
:10194000F8940B8FEA89FB8980818062CFCFCF9397
:10195000DF93EC01888D8823B9F0AA89BB89E889D7
:10196000F9898C9185FD03C0808186FD0DC00FB67D
:1019700007FCF7CF8C9185FFF2CF808185FFEDCFFB
:10198000CE010E94380CE9CFDF91CF91089580E01D
:1019900090E0892B29F00E942E0C81110E940000FA
:1019A00080E090E0892B29F00E94240C81110E9494
:1019B000000080E090E0892B29F00E941A0C811130
:1019C0000E94000080E090E0892B29F00E94100C1A
:1019D00081110C9400000895EF92FF920F931F93D2
:1019E000CF93DF93FC017901342F8689882309F492
:1019F00093C0823038F0C085D18521978E01061BB7
:101A0000170BB8019FEF980F923018F432853150C0
:101A1000341B80FF81C0862F632F70E0382F4481F4
:101A20005581641775070CF079C0832F90E0C6814B
:101A3000D7818C179D070CF071C0278DA3E0959579
:101A40008795AA95E1F7289F8001299F100D112401
:101A5000CB01B3E095958795BA95E1F7C0A1D1A1E7
:101A6000C00FD11FC80FD91F8881EB01C770DD27B8
:101A70003770082F10E062A173A1600F711FDB01A6
:101A80009C91923030F067E070E0DB01AC1BBD0B45
:101A9000ED016FEF690F623018F467E0631B362FBA
:101AA00090FF04C09C2FC32FD0E0392F622F0E94DB
:101AB000FD23982F990F990F990F390FB801289F7F
:101AC00060197109112483E0660F771F8A95E1F789
:101AD0006C0F7D1F832F90E023E0959587952A95C5
:101AE000E1F7849FE001859FD00D949FD00D1124D4
:101AF0006C0F7D1F048CF58DE02DE60FF71F3770FE
:101B000081E090E001C0880F3A95EAF72081EF2844
:101B100061F0822B808302C077FF81CFDF91CF916C
:101B20001F910F91FF90EF90089580958223F2CF3F
:101B30000895DC01ED91FC910190F081E02D199464
:101B40002F923F924F925F926F927F928F929F92CD
:101B5000AF92BF92CF92DF92EF92FF920F931F93BB
:101B6000CF93DF93EC01FC01E857FF4F8081918117
:101B7000009711F00E94A00D8E01085B1F4F3E01DF
:101B80002AE4620E711C1E0137E8230E311CEBE8BB
:101B90004E2E552453948C819D81DC01ED91FC9156
:101BA0000084F185E02D1995181619060CF0B6C1C0
:101BB0000E946F0BCE80DF80E884F9849B01AC012A
:101BC0002C193D094E095F0969017A0133E0C316FA
:101BD000D104E104F10408F01B826E837F838887BF
:101BE00099878C819D81DC01ED91FC910284F385C4
:101BF000E02D1995282F3B81313009F447C098F129
:101C0000323009F459C0333031F6D3012C91982F7A
:101C10008827820F911DF80120813181281739070B
:101C200001F52A85F22FFF709F2E203409F048C05D
:101C3000DE0121E0E22FE695F0E07696EE0FFF1F41
:101C4000EC0FFD1F1C969C911C971B968C911B976B
:101C5000918380832E5F12962D3161F78A818F5F89
:101C60008A83B4E027C03CEF380F3D3160F41AA6F8
:101C700023502BA7992780959095F8019183808315
:101C8000F1E0FB8388CF24E02B8385CFEAA541E0F8
:101C90004E0F4AA7EC0FFD2FF11D8287D8012D9121
:101CA0003C911197281B31092D933C938BA5B2E0F1
:101CB000481371CFBB836FCFF3018083F3E0E1CF93
:101CC000D1018C918F1768F2FF2359F28BA58130D7
:101CD00041F68C819D81EF2EF12C5701B1E0AB1ABA
:101CE000B108F2013197F1F7207F203999F1203ABC
:101CF00009F471C0203809F0B4CF28812F5F288300
:101D000064E070E00E94990DB70160587F4F8C81AC
:101D10009D810E94990DE4E8EE0EF11CE094F09490
:101D2000D801ED92FC928C819D81DC01ED91FC91BA
:101D30000190F081E02DD8016C9119958C819D81E5
:101D4000F8016181DC01ED91FC910190F081E02DC1
:101D5000199587CF66E070E00E94990DB701605732
:101D60007F4F8C819D810E94990D8C819D81B6E071
:101D7000BA9D6001BB9DD00C1124CC0EDD1E560116
:101D8000EBE4AE0EB11CDC01ED91FC910190F08111
:101D9000E02DD5016C9119958C819D81BCE4CB0E11
:101DA000D11CDC01ED91FC910190F081E02DD60178
:101DB0006C911995B6E9EB0EF11CF5018081E80EE6
:101DC000F11CD6018C91E80EF11CE094F094F8011E
:101DD000F182E082A8CF29812F5F2983F6E0FA9D66
:101DE0007001FB9DF00C1124EC0EFD1E67012CE42C
:101DF000C20ED11CD6012C9144E0B42EB20EDC01EF
:101E0000ED91FC910190F081E02D6B2D19958B2DBA
:101E100090E080959095F801918380838C819D81DD
:101E2000F0EA9F0EDC01ED91FC910190F081E02D34
:101E3000692D1995F8018081918189199109918302
:101E400080838C819D81FDE4EF0EF11CD701BC9055
:101E5000DC01ED91FC910190F081E02D6B2D199545
:101E6000F801808191818B199109918380838C8104
:101E70009D81D7018D909D90AD90BC90892C9A2C1E
:101E8000AB2CBB24A7FCBA94DC01ED91FC91019032
:101E9000F081E02D682D1995F801808191818819D4
:101EA000910991838083D6018C91843009F03BCFD6
:101EB0008C819D81F70180809180A280B380450153
:101EC000BB2497FCB094AB2CDC01ED91FC9101900C
:101ED000F081E02D682D1995F80180819181881994
:101EE0009109918380838C819D81D701CD90DD9074
:101EF000ED90FC90CF2CDD24EE24FF24DC01ED914D
:101F0000FC910190F081E02D6C2D1995F8018081F4
:101F100091818C199D099183808305CFDF91CF91A9
:101F20001F910F91FF90EF90DF90CF90BF90AF90F7
:101F30009F908F907F906F905F904F903F902F90E9
:101F400008952091B502260F3327331F2132310522
:101F5000ECF420914F03FC0190E080E0243069F024
:101F600082E00895A091B5022191AC014B565D4FDE
:101F7000A40FB52FB11D2C930196861798F380916D
:101F8000B502680F6093B50280E0089581E008957E
:101F900010924F0381E080934E031092290361E079
:101FA00084E10E94810A61E085E10E94810AE9EBF7
:101FB000F0E080818E7F808380818D7F808388E4C4
:101FC0008093B80085E48093BC000895CF93DF939D
:101FD00091E0909394028823B9F0C091B800D09119
:101FE000BA008091BC008A7B8093BC0060E084E1F1
:101FF0000E94810A60E085E10E94810A0E94C80F68
:10200000D093BA00C093B800DF91CF910895CF92DA
:10201000DF92EF92FF920F931F93CF93DF93D091B4
:10202000780381E0D13208F09CC0C09177030E9410
:10203000180B6B017C0180914F0381116CC082E011
:1020400080934F0381E080934E038FEF80934D0385
:1020500010924C03D0934B03A7E5B3E0EBE2F3E01F
:1020600080E0D8138DC010922A0380912A03CC0FF0
:10207000C82BC0932A0380912903813009F084C0C2
:10208000109229030E94180B6B017C0180912A0396
:102090008093BB008091510390915203A091530310
:1020A000B0915403892B8A2B8B2BA1F00E94180B23
:1020B0000091510310915203209153033091540326
:1020C0006C197D098E099F0906171707280739071C
:1020D00008F442C08091BC0083FDD8CF85EC80938A
:1020E000BC000E94180B6B017C0180914F03823071
:1020F00009F44CC080914D038F3F09F469C0809171
:102100004D03803209F466C080914D03803309F499
:1021100063C084E026C08091510390915203A09146
:102120005303B0915403892B8A2B8B2B09F483CF53
:102130000E94180B009151031091520320915303F8
:10214000309154036C197D098E099F0906171707F2
:102150002807390708F06FCF809150030E94E60FDF
:1021600085E0109256031092780310925503DF9188
:10217000CF911F910F91FF90EF90DF90CF90089536
:102180009D9191938F5F6DCF85EEA9CF8091510383
:1021900090915203A0915303B0915403892B8A2B41
:1021A0008B2B09F4A2CF0E94180B009151031091C0
:1021B000520320915303309154036C197D098E0909
:1021C0009F09061717072807390708F08ECFC4CFD5
:1021D00080E0C7CF82E0C5CF83E0C3CFE0910603A4
:1021E00080910703E81730F4F0E0EA51FD4F808159
:1021F00090E008958FEF9FEF0895909106038091EE
:1022000007032FEF3FEF981748F4E92FF0E0EA516A
:10221000FD4F208130E09F5F90930603C901089530
:10222000CF92DF92EF92FF920F931F93CF93DF93A2
:102230007C01CB018A0120915503222389F0EB0117
:102240006B01C40ED51ECC15DD0569F06991D7016F
:10225000ED91FC910190F081E02DC7011995F3CF2C
:10226000642F0E94A10FC801DF91CF911F910F91A0
:10227000FF90EF90DF90CF900895CF93DF931F9260
:10228000CDB7DEB76983209155032223F9F0209161
:102290007803203258F021E030E0FC0133832283C0
:1022A00090E080E00F90DF91CF91089580915603E8
:1022B000E82FF0E0E95AFC4F998190838F5F80937B
:1022C00056038093780381E090E0ECCF61E0CE018B
:1022D00001960E94A10FF7CF90E080E00895CF9281
:1022E000DF92EF92FF92DA01E82FF0E0EE0FFF1F8E
:1022F000E65BF94F8081918184369105F8F06B019E
:10230000770FEE08FF089C0150E040E0285E334064
:1023100041095109BD01BB0F880B990B6C197D094F
:102320008E099F090E94ED2328EE33E040E050E043
:102330000E9492232C0D3D1D4E1D5F1DC901FF9073
:10234000EF90DF90CF9008958F929F92AF92BF92BF
:102350000F931F93CF93DF93CDB7DEB7A1970FB63F
:10236000F894DEBF0FBECDBF19A2423008F44AE098
:102370008E010F5D1F4F842E912CB12CA12CA50135
:1023800094010E94BC23E62FB901CA01EA3044F54A
:10239000E05DD801EE938D01232B242B252B79F7BB
:1023A00090E080E0109769F0FD0101900020E9F7CE
:1023B0003197AF014A1B5B0BBD0189E793E00E9497
:1023C000860BA1960FB6F894DEBF0FBECDBFDF918E
:1023D000CF911F910F91BF90AF909F908F900895D4
:1023E000E95CD7CFCF93DF93EC0188819981009787
:1023F00011F00E949627198218821D821C821B826E
:102400001A82DF91CF910895FC018081918100971C
:1024100011F00C94962708950E9400290F931F93A2
:10242000CF93DF93EC0188819981009759F02A813D
:102430003B812617370730F081E0DF91CF911F9164
:102440000F9108958B016F5F7F4F0E941F280097A7
:1024500059F0998388831B830A832C813D81232B28
:1024600059F7FC011082E8CF80E0E7CFEF92FF92AE
:102470000F931F93CF93DF936115710541F480E0B3
:10248000DF91CF911F910F91FF90EF90089541152B
:102490005105B1F07B01EC010C811D81040F151F6A
:1024A000B8010E940E12882351F3288139818C8152
:1024B0009D81B701820F931F0E9415291D830C83F4
:1024C00081E0DECFCF93DF93EC01FB010190002090
:1024D000E9F73197AF01461B570B0E943612811165
:1024E00003C0CE010E94F211CE01DF91CF91089579
:1024F000EF92FF920F931F93CF93DF93EC017B0139
:102500008A01BA010E940E1281110BC0CE010E94F5
:10251000F211CE01DF91CF911F910F91FF90EF90BB
:1025200008951D830C83B701888199810E94152924
:10253000F0CFEF92FF920F931F93CF93DF93CDB71E
:10254000DEB762970FB6F894DEBF0FBECDBF8C0129
:10255000CB01F8011182108213821282158214823B
:102560004AE09E012F5F3F4F7901B9010E943E2250
:10257000F70101900020E9F73197AF014E195F098B
:10258000B701C8010E94781262960FB6F894DEBFB8
:102590000FBECDBFDF91CF911F910F91FF90EF90B4
:1025A0000895EF92FF920F931F93CF93DF9300D084
:1025B00000D000D0CDB7DEB78C01862FF801118294
:1025C000108213821282158214824AE09E012F5FCC
:1025D0003F4F7901B90190E00E944922F701019033
:1025E0000020E9F73197AF014E195F09B701C80123
:1025F0000E94781229960FB6F894DEBF0FBECDBFA9
:10260000DF91CF911F910F91FF90EF900895FC0102
:10261000468D50E0672B39F470E060E0FC01848D5A
:10262000958D0C940E296FEF70E0F8CF85ED8093B7
:10263000BC008091510390915203A0915303B0913B
:1026400054030796A11DB11D23E0B695A795979554
:1026500087952A95D1F72091BC0024FD03C01092E4
:102660004F030895409151035091520360915303D9
:1026700070915403452B462B472B69F30097A10516
:10268000B10541F025E32A95F1F700000197A10972
:10269000B109E1CF809150030C94E60F1F920F9285
:1026A0000FB60F9211242F933F938F939F93AF9365
:1026B000BF938091210390912203A0912303B091B5
:1026C00024033091200323E0230F2D3758F5019682
:1026D000A11DB11D20932003809321039093220319
:1026E000A0932303B09324038091250390912603A4
:1026F000A0912703B09128030196A11DB11D8093DD
:10270000250390932603A0932703B0932803BF913A
:10271000AF919F918F913F912F910F900FBE0F908E
:102720001F90189526E8230F0296A11DB11DD2CF48
:102730001F920F920FB60F9211240BB60F922F9388
:102740003F934F935F936F937F938F939F93AF9339
:10275000BF93EF93FF9389E793E00E94380CFF91BA
:10276000EF91BF91AF919F918F917F916F915F9109
:102770004F913F912F910F900BBE0F900FBE0F9076
:102780001F9018951F920F920FB60F9211240BB63F
:102790000F922F933F934F935F936F937F938F93FA
:1027A0009F93AF93BF93EF93FF9389E793E00E94CA
:1027B000BA0BFF91EF91BF91AF919F918F917F9154
:1027C0006F915F914F913F912F910F900BBE0F90A2
:1027D0000FBE0F901F9018951F920F920FB60F9279
:1027E00011240BB60F922F933F934F935F936F93E8
:1027F0007F938F939F93AF93BF93EF93FF9386E164
:1028000094E00E94380CFF91EF91BF91AF919F919E
:102810008F917F916F915F914F913F912F910F9089
:102820000BBE0F900FBE0F901F9018951F920F9226
:102830000FB60F9211240BB60F922F933F934F9325
:102840005F936F937F938F939F93AF93BF93EF9318
:10285000FF9386E194E00E94BA0BFF91EF91BF9144
:10286000AF919F918F917F916F915F914F913F9128
:102870002F910F900BBE0F900FBE0F901F901895C9
:102880001F920F920FB60F9211240BB60F922F9337
:102890003F934F935F936F937F938F939F93AF93E8
:1028A000BF93EF93FF9383EB94E00E94380CFF916A
:1028B000EF91BF91AF919F918F917F916F915F91B8
:1028C0004F913F912F910F900BBE0F900FBE0F9025
:1028D0001F9018951F920F920FB60F9211240BB6EE
:1028E0000F922F933F934F935F936F937F938F93A9
:1028F0009F93AF93BF93EF93FF9383EB94E00E947A
:10290000BA0BFF91EF91BF91AF919F918F917F9102
:102910006F915F914F913F912F910F900BBE0F9050
:102920000FBE0F901F9018951F920F920FB60F9227
:1029300011240BB60F922F933F934F935F936F9396
:102940007F938F939F93AF93BF93EF93FF9380E514
:1029500095E00E94380CFF91EF91BF91AF919F914C
:102960008F917F916F915F914F913F912F910F9038
:102970000BBE0F900FBE0F901F9018951F920F92D5
:102980000FB60F9211240BB60F922F933F934F93D4
:102990005F936F937F938F939F93AF93BF93EF93C7
:1029A000FF9380E595E00E94BA0BFF91EF91BF91F4
:1029B000AF919F918F917F916F915F914F913F91D7
:1029C0002F910F900BBE0F900FBE0F901F90189578
:1029D0001F920F920FB60F9211240BB60F922F93E6
:1029E0003F934F935F936F937F938F939F93AF9397
:1029F000BF93EF93FF938091D8029091D9020097F3
:102A000011F00E94A00DFF91EF91BF91AF919F91A6
:102A10008F917F916F915F914F913F912F910F9087
:102A20000BBE0F900FBE0F901F9018951F920F9224
:102A30000FB60F9211240BB60F922F933F934F9323
:102A40005F936F937F938F939F93AF93BF93EF9316
:102A5000FF938091B900887F803609F44DC008F05B
:102A600040C0883209F4A9C028F5803109F49DC01E
:102A7000C8F4882309F4FBC0883009F496C0FF919C
:102A8000EF91BF91AF919F918F917F916F915F91E6
:102A90004F913F912F910F900BBE0F900FBE0F9053
:102AA0001F901895883109F488C0803241F78093CF
:102AB0004D0314C0803409F49DC040F48033B9F351
:102AC0008833E9F680934D0385ECB0C0803509F476
:102AD00085C0883509F496C0883489F60E9416139B
:102AE000CECF883909F48CC038F5883729F050F4F6
:102AF000883611F0803719F683E080934F031092E7
:102B0000D70257C0883809F47BC0803919F0803863
:102B100009F0B5CF8091D702803208F071C0E09102
:102B2000D70281E08E0F8093D7028091BB00F0E046
:102B3000E954FD4F80833DC0803B39F0E0F4803A9A
:102B400009F479C0883A09F09ACF84E080934F0362
:102B50001092B6021092B502E091DC02F091DD0213
:102B600019958091B50281110FC081E08093B50263
:102B70001092950209C0803C09F4A6CF883C09F464
:102B8000A3CF883B09F07BCFE091B60281E08E0FA6
:102B90008093B602F0E0EB56FD4F80818093BB003E
:102BA0009091B6028091B50229C080912A0380934A
:102BB000BB0085EC8093BC0062CF90914C03809168
:102BC0004B03981758F5E0914C0381E08E0F8093EA
:102BD0004C03F0E0E55DFC4F8081E9CFE0914C03D0
:102BE00081E08E0F80934C038091BB00F0E0E55DA7
:102BF000FC4F808390914C0380914B039817C8F24F
:102C000085E8D8CFE0914C0381E08E0F80934C0390
:102C10008091BB00F0E0E55DFC4F808380914E0326
:102C200081115CCF81E08093290384EA8093BC000A
:102C300010924F0324CF85EC8093BC0010924F0379
:102C40008091D702803230F4E091D702F0E0E9546D
:102C5000FD4F10826091D70270E0E091DA02F091AE
:102C6000DB0287EB92E019951092D70208CF109201
:102C70004D0334CFCF93DF9310927C0310927B03EC
:102C800088EE93E0A0E0B0E080937D0390937E0314
:102C9000A0937F03B09380032BE332E030937A0359
:102CA0002093790345E351E05093860340938503D5
:102CB00044E351E0509388034093870340E351E09D
:102CC00050938A034093890341E351E050938C036E
:102CD00040938B0342E351E050938E0340938D0366
:102CE00046E351E05093900340938F031092920378
:102CF000109293031092940310929503109219046A
:102D00001092180480931A0490931B04A0931C043F
:102D1000B0931D04309317042093160445ED50E042
:102D2000509323044093220444ED50E05093250433
:102D30004093240440ED50E0509327044093260430
:102D400041ED50E0509329044093280442ED50E0B7
:102D500050932B0440932A0446ED50E050932D04E9
:102D600040932C0410922F041092300410923104DE
:102D7000109232041092B6041092B5048093B704F6
:102D80009093B804A093B904B093BA043093B404F8
:102D90002093B3044DEC50E05093C0044093BF0423
:102DA0004CEC50E05093C2044093C10448EC50E016
:102DB0005093C4044093C30449EC50E05093C604BC
:102DC0004093C5044AEC50E05093C8044093C704B4
:102DD0004EEC50E05093CA044093C9041092CC04C6
:102DE0001092CD041092CE041092CF04109253058D
:102DF000109252058093540590935505A093560563
:102E0000B0935705309351052093500525EC30E0E1
:102E100030935D0520935C0524EC30E030935F0532
:102E200020935E0520EC30E030936105209360052F
:102E300021EC30E0309363052093620522EC30E012
:102E4000309365052093640526EC30E030936705E8
:102E5000209366051092690510926A0510926B0521
:102E600010926C051092F0051092EF058093F10519
:102E70009093F205A093F305B093F4058DE492E0EE
:102E80009093EE058093ED050E946F0B6093A8066A
:102E90007093A9068093AA069093AB061092A5069C
:102EA0001092A7061092A6061092FD051092FC053E
:102EB00088E090E09093FF058093FE0590930106D3
:102EC0008093000690930306809302069093050674
:102ED00080930406109210061092070610920606C0
:102EE000109209061092080681E080930F068093E5
:102EF0000E062FEF3FEF30930D0620930C06309314
:102F00000B0620930A068093110610921206109267
:102F10001406109213062FE532E03093FB05209340
:102F2000FA0595E3909315068093190688E080933F
:102F3000180688E090E00E94FA2690931706809386
:102F4000160681E090E00E94FA26EC0190931D069F
:102F500080931C0681E090E00E94FA2690931B0665
:102F600080931A06FC0110821882CFB7F8948091E2
:102F7000F905811127C0EBE0F8E08491E5ECF7E07A
:102F80009491E82FF0E0EE0FFF1FEA58F84FA5915B
:102F9000B491EC91E92321F461E085E30E94810A78
:102FA00061E085E30E94E70A8CB580618CBD8CB539
:102FB00080648CBD61E084E30E94E70A61E083E302
:102FC0000E94E70A8091F9058F5F8093F905CFBFD2
:102FD00061E0809115060E94E70A70E060E08AEFE8
:102FE00095E00E94071360E08FE00E94AF0A67E05F
:102FF0008BE00E94AF0A60E089E00E94AF0A61E0C6
:103000008CE00E94AF0A67E08AE0DF91CF910C94D8
:10301000AF0ACF93DF93CDB7DEB768970FB6F894BA
:10302000DEBF0FBECDBF789484B5826084BD84B509
:10303000816084BD85B5826085BD85B5816085BDB3
:1030400080916E00816080936E001092810080916B
:1030500081008260809381008091810081608093F3
:103060008100809180008160809380008091B10018
:1030700084608093B1008091B00081608093B00043
:103080008091910082608093910080919100816095
:103090008093910080919000816080939000809156
:1030A000A10082608093A1008091A1008160809343
:1030B000A1008091A00081608093A00080912101F7
:1030C00082608093210180912101816080932101A0
:1030D0008091200181608093200180917A0084603A
:1030E00080937A0080917A00826080937A00809148
:1030F0007A00816080937A0080917A008068809362
:103100007A001092C10040E052EC61E070E083EB85
:1031100094E00E94420483EB94E090932306809312
:10312000220684E0809321060E946F0B60932406A0
:1031300070932506809326069093270610924806E2
:103140001092490610926706109266061092680661
:103150008091D8029091D9029093A7068093A606F9
:10316000892B39F48FEA87BD80916E00826080934D
:103170006E008EE196E09093D9028093D80262E0CF
:103180008AE00E94AF0A62E08AEF95E00E9487041D
:1031900070E060E08AEF95E00E9407130E94DD0A6C
:1031A00010920603109207031092560310927803B0
:1031B0000E94C80F82E89BE09093DD028093DC02BE
:1031C00083E89BE09093DB028093DA0281E08093B6
:1031D00055038093770361E08DEE95E00E943D11E9
:1031E0000E94071040E855E260E070E080E595E05D
:1031F0000E94420440E052EC61E070E086E194E01D
:103200000E94420440E855E260E070E089E793E004
:103210000E94420462E086E30E94E70A61E085E4DE
:103220000E94E70A61E08DE00E94E70A61E08DE01C
:103230000E94810A06EE602E02E0702E8EEDC82EEE
:1032400082E0D82E55245A9488248394912CF60138
:1032500051926F011EEDA12E12E0B12EF12CE12C46
:1032600010E000E0F501208130E0C401002E02C032
:10327000880F991F0A94E2F728233923A701B80180
:103280008AEF95E00E94EC0C0F5F1F4F083011058C
:1032900049F7FFEFEF1AFF0A4FEFA41AB40A88E0CC
:1032A000E816F104E9F60E94DD0A68EE73E080E0BA
:1032B00090E00E943D0B6C147D0449F668EB7BE0C6
:1032C00080E090E00E943D0B86E194E00E94A70C14
:1032D00044244394512CE6E6F2E08491E6ECF7E0D6
:1032E0000491ECE0F8E01491112309F42CC1811150
:1032F0000E941A0AE12FF0E0EE0FFF1FE450FE4F8C
:10330000A591B4918C91082309F41DC130E020E00F
:1033100042E050E070E060E088E00E946F1190931E
:103320001F0380931E0330E020E041E050E070E096
:1033300060E084E00E946F116C0181E0C114D1044F
:1033400009F480E080930F0300911E0310911F0386
:103350000230110509F121E030E041E050E070E079
:1033600060E086E00E946F118093140321E030E05A
:1033700041E050E070E060E087E00E946F118093D0
:103380000E0321E030E041E050E070E060E089E0D1
:103390000E946F118093150370E060E08AEF95E062
:1033A0000E9407130115110509F0D2C0EFE28E2E1D
:1033B000E2E09E2EB12CA12CF12CE12CF401208115
:1033C00030E0C2010E2C02C0880F991F0A94E2F768
:1033D00028233923A501B7018AEF95E00E94EC0C60
:1033E000FFEFEF1AFF0A48E0E416F10439F78FEF18
:1033F000A81AB80A9FEF891A990AE8E0AE16B10434
:10340000D9F60E94DD0A0115110509F091C110924B
:1034100017031092160310921903109218031092BA
:103420001B0310921A0310921D0310921C03C090EC
:10343000A806D090A906E090AA06F090AB06F2E3A9
:10344000CF0ED11CE11CF11C0E946F0BC616D706D3
:10345000E806F90608F074C006E113E08EE1E82EF4
:1034600083E0F82EF801819091908F01F8EC8F0E97
:10347000911C092C000CAA08BB084AE0C501B40144
:10348000B7FE0DC06DE289E793E00E945A0C6627F3
:103490007727CB01681979098A099B094AE00E94BC
:1034A000A411E016F106F1F660911503CE010D9618
:1034B0000E94D11260911403CE0101960E94D11294
:1034C00018861F821A8619861C861B8669817A8156
:1034D0006115710531F04D815E81CE0107960E9424
:1034E000781249895A896D857E85CE0107960E949A
:1034F0003612811104C0CE0107960E94F21162E9D2
:1035000072E0CE0107960E946212BC0189E793E047
:103510000E94B30BCE0107960E940412CE010196C1
:103520000E940412CE010D960E9404120E946F0B9D
:103530006093A8067093A9068093AA069093AB06A1
:103540000E94C70CC8CE50921F0340921E03EBCEC0
:103550000130110509F0BCC077E2872E72E0972E8A
:10356000B12CA12CF12CE12CF401208130E0C2011E
:103570000E2C02C0880F991F0A94E2F728233923E2
:10358000A501B7018AEF95E00E94EC0CFFEFEF1A5E
:10359000FF0A48E0E416F10439F78FEFA81AB80AD9
:1035A0009FEF891A990AE8E0AE16B104D9F6809126
:1035B0000E03882361F16FE1862E62E0962EB12C16
:1035C000A12CF12CE12CF401208130E0C2010E2C61
:1035D00002C0880F991F0A94E2F728233923A50116
:1035E000B7018AEF95E00E94EC0CFFEFEF1AFF0A9B
:1035F00048E0E416F10439F78FEFA81AB80A9FEFF4
:10360000891A990AE8E0AE16B104D9F6FACE80918B
:103610001503882361F157E1852E52E0952EB12CD8
:10362000A12CF12CE12CF401208130E0C2010E2C00
:1036300002C0880F991F0A94E2F728233923A501B5
:10364000B7018AEF95E00E94EC0CFFEFEF1AFF0A3A
:1036500048E0E416F10439F78FEFA81AB80A9FEF93
:10366000891A990AE8E0AE16B104D9F6CACE80915B
:103670001403882309F4C5CE4FE0842E42E0942E33
:10368000B12CA12CF12CE12CF401208130E0C201FD
:103690000E2C02C0880F991F0A94E2F728233923C1
:1036A000A501B7018AEF95E00E94EC0CFFEFEF1A3D
:1036B000FF0A48E0E416F10439F78FEFA81AB80AB8
:1036C0009FEF891A990AE8E0AE16B104D9F699CEAF
:1036D0000230110509F095CE37E0832E32E0932EAB
:1036E000B12CA12CF12CE12CF401208130E0C2019D
:1036F0000E2C02C0880F991F0A94E2F72823392361
:10370000A501B7018AEF95E00E94EC0CFFEFEF1ADC
:10371000FF0A48E0E416F10439F78FEFA81AB80A57
:103720009FEF891A990AE8E0AE16B104D9F669CE7E
:103730000130110509F07BCE30E020E044E650E096
:103740006CE97FEF83E00E946F118C01909313036B
:103750008093120330E020E044E650E06CE97FEF14
:1037600081E00E946F1190931103809310030E5F0C
:103770001F4F0530110520F410921303109212030D
:103780000296059720F4109211031092100361E045
:10379000CD2809F460E085E40E94810A00911003BD
:1037A0001091110380910E03811130C0809112039A
:1037B000909113039801281B390B2536310514F01D
:1037C00024E630E02C39FFEF3F0714F42CE93FEFFB
:1037D0003093170320931603080F191F05361105A0
:1037E00014F004E610E00C394FEF140714F40CE960
:1037F0001FEF109319030093180330931B032093BA
:103800001A0310931D0300931C0311CE30E020E037
:1038100044E650E06CE97FEF80E00E946F111C01EC
:10382000B801012E000C880B990B0E9475226B01C8
:103830007C01B101032C000C880B990B0E947522AE
:103840004B015C01A70196010E9496256B8B7C8B36
:103850008D8B9E8B20E030E048EC52E40E94832563
:1038600024E6622E712C18163CF06B897C898D89B8
:103870009E890E9426253B01101611060CF0B7C048
:1038800037FCD5C5021513050CF494C0A7019601A9
:10389000C501B4010E94B4240E94852420E030E0D8
:1038A00044E353E40E94D4222BED3FE049E450E48A
:1038B0000E94B4240E9426251B0181E080935503B9
:1038C00080937703109256031092780364E48DEE90
:1038D00095E00E943D110E9407100E94180B6B0199
:1038E0007C0180914F0381112BC181E080934F03B4
:1038F00080934E039FEF90934D0310924C0380935F
:103900004B0380932A0380912A03826080932A03C9
:1039100080912903813009F074C2109229030E941A
:10392000180B6B017C0180912A038093BB0080916E
:10393000510390915203A0915303B0915403892BEA
:103940008A2B8B2BA1F00E94180B00915103109130
:10395000520320915303309154036C197D098E0951
:103960009F09061717072807390708F40AC180912D
:10397000BC0083FDD8CF85EC8093BC000E94180B5F
:103980006B017C0180914F03813009F43CC280912E
:103990004C03823008F059C280914C03ABE2B3E093
:1039A000E6EEF2E090E0981709F4F0C02D91219333
:1039B0009F5FF9CFA5019401C701B6010E94B4240D
:1039C0000E94852420E030E044E353E40E94D422A6
:1039D0002BED3FE049E450E40E94B4249B01AC018C
:1039E00060E070E084EB92E40E94182463CF12142C
:1039F00013040CF014C5119501951109B801012E9D
:103A0000000C880B990B0E94752220163106CCF011
:103A1000A50194010E94B4240E94852420E030E096
:103A200044E353E40E94D4222BED3FE049E450E408
:103A30000E94B42420E030E044EB52E40E941924B8
:103A400039CF9B01AC01C501B4010E94B4240E948E
:103A5000852420E030E044E353E40E94D4222BED9F
:103A60003FE049E450E40E94B4249B01AC0160E0D3
:103A700070E084E393E4B8CF66277727601B710B6F
:103A8000072E000C880B990B0E9475226B017C019C
:103A90006627772762197309072E000C880B990B8C
:103AA0000E94752220163106BCF0A70196010E94E3
:103AB000B4240E94852420E030E044E353E40E94D3
:103AC000D4222BED3FE049E450E40E94B42420E0EE
:103AD00030E044E353E4B2CF9B01AC01C701B6012F
:103AE0000E94B4240E94852420E030E044E353E4A3
:103AF0000E94D4222BED3FE049E450E40E94B4241C
:103B00009B01AC0160E070E087E893E46DCFA70112
:103B100096010E94B4240E94852420E030E044E312
:103B200053E40E94D4222BED3FE049E450E40E948C
:103B3000B4249B01AC0160E070E084EB93E454CFCB
:103B40008091510390915203A0915303B09154037B
:103B5000892B8A2B8B2B09F4C4CE0E94180B009161
:103B600051031091520320915303309154036C1967
:103B70007D098E099F09061717072807390708F0DE
:103B8000B0CE809150030E94E60F80E010920603B1
:103B9000809307038230F0F38DEE95E00E94FD10D4
:103BA000182F8DEE95E00E94FD10888F1F8A8F8957
:103BB000988D812B8C0110930D0300930C03809141
:103BC0000002882331F010930B0300930A03109234
:103BD00000022114310409F03AC170921703609277
:103BE0001603709219036092180370921B0360927F
:103BF0001A0370921D0360921C0320910A033091F6
:103C00000B03C901801B910B201731070CF0FEC379
:103C100088599E4F9093130380931203809112034F
:103C200090911303853B910534F088569140909311
:103C30001303809312038091120390911303019652
:103C4000039720F4109213031092120300911203B1
:103C5000109113038091080390910903B801681B28
:103C6000790B072E000C880B990B0E94752220E01F
:103C700030E040E251E40E94D4226B017C01B801A3
:103C8000012E000C880B990B0E9475222AE939E954
:103C900049E95FE30E94D4229B01AC01C701B60150
:103CA0000E9419240E9426252091160330911703A3
:103CB000261B370B3093170320931603209118030C
:103CC00030911903260F371F3093190320931803DF
:103CD00020911A0330911B03260F371F30931B03CB
:103CE00020931A0320911C0330911D03261B370BD0
:103CF00030931D0320931C031093090300930803C2
:103D0000B301CE0101960E949912B101CE010D9628
:103D10000E94991218861F821A8619861C861B8695
:103D20006D857E856115710531F049895A89CE010D
:103D300007960E9478126CE872E0CE0107960E9406
:103D400062128C014D815E8169817A810E943612F6
:103D5000811103C0C8010E94F21167E872E0C80136
:103D60000E946212BC0180E595E00E94B30BCE0177
:103D700007960E940412CE010D960E940412CE01F5
:103D800001960E94041206E113E09EE1E92E93E001
:103D9000F92EF801619171918F01CE0107960E9471
:103DA00099121A8219821C821B821E821D826F81C7
:103DB00078856115710531F04B855C85CE010196E2
:103DC0000E9478126DE872E0CE0101960E946212A4
:103DD000BC0180E595E00E94B30BCE0101960E94E4
:103DE0000412CE0107960E940412E016F10689F62D
:103DF00042E050E06FE872E080E595E00E94860BBB
:103E000016CB85EEB9CD8091510390915203A091CC
:103E10005303B0915403892B8A2B8B2B09F4B2CD19
:103E20000E94180B009151031091520320915303EB
:103E3000309154036C197D098E099F0906171707E5
:103E40002807390708F09ECD9CCE82E0A7CD94EBE1
:103E500029163104A9F48827992786199709909380
:103E6000170380931603909319038093180390937C
:103E70001B0380931A0390931D0380931C03BDCEF4
:103E8000EAE52E16310489F4709217036092160346
:103E90008827992786199709909319038093180307
:103EA00090931B0380931A03A4CEFEE02F16F1E03B
:103EB0003F0689F488279927861997099093170355
:103EC00080931603709219036092180370921B037B
:103ED00060921A03D0CF4EE12416310439F082EDFE
:103EE0002816310481F4719461947108709217035B
:103EF00060921603109219031092180310921B037C
:103F000010921A0376CE96E929163104B1F0EAE44C
:103F10002E16E1E03E06A9F4109217031092160344
:103F2000709219036092180370921B0360921A0337
:103F300010921D0310921C0360CE7194619471085D
:103F4000EBCFC10101974D9708F03FC02DE230E063
:103F5000D1010E9411242EE130E040E050E00E94A7
:103F600092236DE270E080E090E0621B730B840BA3
:103F7000950B0E9475222BED3FE049E450E40E942E
:103F8000D42220E030E044E353E40E94B4240E94B1
:103F900081266B017C01B301072C000C880B990B67
:103FA0000E947522A70196010E94D4220E94262514
:103FB00070921703609216037093190360931803AD
:103FC00070931B0360931A0314CEC1014F97CB97D4
:103FD000E0F59101032C000C440B550B2E513109D7
:103FE00041095109ADE2B0E00E94B1232CE330E079
:103FF00040E050E00E949223CA01B9010E9475225C
:104000002BED3FE049E450E40E94D42220E030E070
:1040100044E353E40E94B4240E9481266B017C0196
:104020007092170360921603B301072C000C880BE3
:10403000990B0E947522A70196010E94D4220E942A
:104040002625719561957109B7CFC1018B559109ED
:10405000CB9708F053C09101032C000C440B550B77
:104060002A55310941095109ADE2B0E00E94B1235E
:104070002CE330E040E050E00E949223265A3F4F6C
:104080004F4F5F4F67E870E080E090E0621B730B7A
:10409000840B950B0E9475222BED3FE049E450E420
:1040A0000E94D42220E030E044E353E40E94B42490
:1040B0000E9481266B017C01B301072C000C880B48
:1040C000990B0E947522A70196010E94D4220E949A
:1040D000262570931703609316032227332726198A
:1040E0003709309319032093180330931B0320934F
:1040F0001A0370931D0360931C037FCDC101875980
:1041000091094D9708F048C09101032C000C440B15
:10411000550B2659310941095109ADE2B0E00E9421
:10412000B1232EE130E040E050E00E949223CA012A
:10413000B9010E9475222BED3FE049E450E40E9452
:10414000D42220E030E044E353E40E94B4240E94EF
:1041500081266B017C01B301072C000C880B990BA5
:104160000E947522A70196010E94D4220E94262552
:1041700071956195710970931703609316038827F1
:1041800099278619970990931903809318039093A0
:104190001B0380931A03ADCFC101855B91094D9735
:1041A00008F056C09101032C000C440B550B245B06
:1041B000310941095109ADE2B0E00E94B1232EE17D
:1041C00030E040E050E00E9492232C543F4F4F4F8C
:1041D0005F4F61EE70E080E090E0621B730B840B38
:1041E000950B0E9475222BED3FE049E450E40E94BC
:1041F000D42220E030E044E353E40E94B4240E943F
:1042000081264B015C01EE24FF24E618F708F092AA
:104210001703E0921603B301072C000C880B990BCF
:104220000E947522A50194010E94D4220E94262595
:1042300071956195710970931903609318037093D8
:104240001B0360931A03F0921D03E0921C03D5CC6C
:10425000C101835D9109CB9708F049C09101032CFE
:10426000000C440B550B225D310941095109ADE2A7
:10427000B0E00E94B1232CE330E040E050E00E9427
:104280009223CA01B9010E9475222BED3FE049E457
:1042900050E40E94D42220E030E044E353E40E9442
:1042A000B4240E9481266B017C01B301072C000C11
:1042B000880B990B0E947522A70196010E94D422B7
:1042C0000E94262522273327261937093093170302
:1042D00020931603709319036093180370931B03C4
:1042E00060931A0330931D0320931C0386CCC101F5
:1042F0008F509140CB9708F04EC09101032C000CD9
:10430000440B550B2E50314041095109ADE2B0E04C
:104310000E94B1232CE330E040E050E00E94922361
:10432000225F3E4F4F4F5F4F6BE371E080E090E0C4
:10433000621B730B840B950B0E9475222BED3FE0E3
:1043400049E450E40E94D42220E030E044E353E406
:104350000E94B4240E9481266B017C01B301072CCA
:10436000000C880B990B0E947522A70196010E94F0
:10437000D4220E94262571956195710970931703C7
:1043800060931603709219036092180370921B03D6
:1043900060921A03AECEC1018B5491404D9708F044
:1043A0002CCC9101032C000C440B550B2A543140AA
:1043B00041095109ADE2B0E00E94B1232EE130E0A5
:1043C00040E050E00E949223CA01B9010E94752288
:1043D0002BED3FE049E450E40E94D42220E030E09D
:1043E00044E353E40E94B4240E9481266B017C01C3
:1043F000B301072C000C880B990B0E947522A701B2
:1044000096010E94D4220E942625B8CF201731079A
:1044100009F000CC1092130310921203FFCB011588
:10442000110509F029CB2114310409F446CA31944D
:1044300021943108B101032C000C880B990B0E94C8
:104440007522201631060CF462CB9B01AC01C7012A
:10445000B6010E94B4240E94852420E030E044E3A9
:1044600053E40E94D4222BED3FE049E450E40E9443
:10447000B42420E030E047E853E4E0CABB274A30E8
:1044800031F4992322F4BDE2909581959F4F0C94CD
:104490004A22BB27FB015527AA27880F991FAA1F6D
:1044A000A41710F0A41B83955051B9F7A05DAA334F
:1044B00008F0A95DA193009779F7B111B19311921A
:1044C000CB010C946322DC01FC01672F71917723EF
:1044D000E1F7329704C07C916D9370836291AE17BF
:1044E000BF07C8F30895E89409C097FB3EF4909580
:1044F0008095709561957F4F8F4F9F4F9923A9F0BD
:10450000F92F96E9BB279395F6958795779567954B
:10451000B795F111F8CFFAF4BB0F11F460FF1BC08F
:104520006F5F7F4F8F4F9F4F16C0882311F096E922
:1045300011C0772321F09EE8872F762F05C06623D0
:1045400071F096E8862F70E060E02AF09A95660F89
:10455000771F881FDAF7880F9695879597F9089542
:10456000990F0008550FAA0BE0E8FEEF1616170684
:10457000E807F907C0F012161306E407F50798F0EC
:10458000621B730B840B950B39F40A2661F0232B05
:10459000242B252B21F408950A2609F4A140A69581
:1045A0008FEF811D811D08950E94E7220C945823EE
:1045B0000E944A2338F00E94512320F0952311F0E5
:1045C0000C9441230C94472311240C948C230E94B7
:1045D000692370F3959FC1F3950F50E0551F629FBB
:1045E000F001729FBB27F00DB11D639FAA27F00D4C
:1045F000B11DAA1F649F6627B00DA11D661F829F73
:104600002227B00DA11D621F739FB00DA11D621F57
:10461000839FA00D611D221F749F3327A00D611D74
:10462000231F849F600D211D822F762F6A2F112456
:104630009F5750409AF0F1F088234AF0EE0FFF1F89
:10464000BB1F661F771F881F91505040A9F79E3FE0
:10465000510580F00C9441230C948C235F3FE4F3CC
:10466000983ED4F3869577956795B795F795E79536
:104670009F5FC1F7FE2B880F911D9695879597F93F
:10468000089597F99F6780E870E060E008959FEFD4
:1046900080EC089500240A941616170618060906D9
:1046A000089500240A9412161306140605060895A8
:1046B000092E0394000C11F4882352F0BB0F40F430
:1046C000BF2B11F460FF04C06F5F7F4F8F4F9F4F70
:1046D000089557FD9058440F551F59F05F3F71F0F2
:1046E0004795880F97FB991F61F09F3F79F0879559
:1046F0000895121613061406551FF2CF4695F1DFE2
:1047000008C0161617061806991FF1CF8695710571
:10471000610508940895E894BB2766277727CB01A5
:1047200097F90895052E97FB1EF400940E94A92383
:1047300057FD07D00E94BC2307FC03D04EF40C9415
:10474000A92350954095309521953F4F4F4F5F4F8E
:10475000089590958095709561957F4F8F4F9F4FED
:1047600008950E94DE23A59F900DB49F900DA49FF5
:10477000800D911D11240895A1E21A2EAA1BBB1BC6
:10478000FD010DC0AA1FBB1FEE1FFF1FA217B3071D
:10479000E407F50720F0A21BB30BE40BF50B661F33
:1047A000771F881F991F1A9469F7609570958095F7
:1047B00090959B01AC01BD01CF010895A29FB0016E
:1047C000B39FC001A39F700D811D1124911DB29F45
:1047D000700D811D1124911D0895DB018F939F930E
:1047E0000E94B123BF91AF91A29F800D911DA39F05
:1047F000900DB29F900D11240895991B79E004C08B
:10480000991F961708F0961B881F7A95C9F780950F
:104810000895EE0FFF1F881F8BBF0790F691E02DC4
:1048200019940E94DE23B7FF0895821B930B08950D
:104830005058BB27AA270E9430240C9458230E946A
:104840004A2338F00E94512320F039F49F3F19F495
:1048500026F40C9447230EF4E095E7FB0C944123D7
:10486000E92F0E94692358F3BA1762077307840778
:10487000950720F079F4A6F50C948B230EF4E095BF
:104880000B2EBA2FA02D0B01B90190010C01CA010A
:10489000A0011124FF27591B99F0593F50F4503EB5
:1048A00068F11A16F040A22F232F342F4427585FA7
:1048B000F3CF469537952795A795F0405395C9F7BF
:1048C0007EF41F16BA0B620B730B840BBAF0915077
:1048D000A1F0FF0FBB1F661F771F881FC2F70EC016
:1048E000BA0F621F731F841F48F4879577956795E9
:1048F000B795F7959E3F08F0B0CF9395880F08F0D5
:104900009927EE0F979587950895DF93DD27B92FA7
:10491000BF7740E85FE31616170648075B0718F4F1
:10492000D92F0E94F5259F938F937F936F930E94B9
:104930007D26E4EEF0E00E945C250E9458232F9132
:104940003F914F915F910E94E722DD2351F09058F3
:10495000A2EA2AED3FE049EC5FE3D0785D270E94B0
:104960003024DF910C9458230E94C8240C945823BF
:104970000E94512358F00E944A2340F029F45F3FDF
:1049800029F00C94412351110C948C230C9447234F
:104990000E94692368F39923B1F3552391F3951B82
:1049A000550BBB27AA2762177307840738F09F5F50
:1049B0005F4F220F331F441FAA1FA9F335D00E2EBD
:1049C0003AF0E0E832D091505040E695001CCAF72A
:1049D0002BD0FE2F29D0660F771F881FBB1F2617ED
:1049E00037074807AB07B0E809F0BB0B802DBF01C4
:1049F000FF2793585F4F3AF09E3F510578F00C9493
:104A000041230C948C235F3FE4F3983ED4F38695C6
:104A100077956795B795F7959F5FC9F7880F911DB3
:104A20009695879597F90895E1E0660F771F881F9F
:104A3000BB1F621773078407BA0720F0621B730B52
:104A4000840BBA0BEE1F88F7E09508950E942D2580
:104A50006894B1110C948C2308950E94712388F0FE
:104A60009F5798F0B92F9927B751B0F0E1F0660F32
:104A7000771F881F991F1AF0BA95C9F714C0B13073
:104A800091F00E948B23B1E008950C948B23672F43
:104A9000782F8827B85F39F0B93FCCF386957795A2
:104AA0006795B395D9F73EF490958095709561958B
:104AB0007F4F8F4F9F4F0895DF93CF931F930F9397
:104AC000FF92EF92DF927B018C01689406C0DA2E90
:104AD000EF010E94E722FE01E894A591259135910E
:104AE00045915591A6F3EF010E943024FE019701F4
:104AF000A801DA9469F7DF90EF90FF900F911F9172
:104B0000CF91DF9108950E94B02208F48FEF0895AD
:104B10000E944A2329F00E94512311F00C9447234C
:104B20000C944123B901CA010C94A6269F775F77A4
:104B30000E94692368F39923A9F35523A9F3FF275A
:104B4000951758F4E52FE91BED3060F75E3B10F048
:104B5000F1E41CC09034E0F40AC0E92FE51BED300D
:104B600018F79E3B10F0F1E411C0503488F4F9EAD4
:104B700088232AF09A95660F771F881FDAF7442357
:104B80002AF05A95220F331F441FDAF79F1B5F1B31
:104B9000FF931F930F93FF92EF9279018A01BB2736
:104BA000AB2F9B01AC010E94EA229701A801BF93A1
:104BB0007B018C01AA27BA2FB901CA010E94EA22FF
:104BC000AF919701A801EF90FF900F911F910E9464
:104BD00030240E9458230E943D264F9140FF0895A3
:104BE000552747FD50950C9401269B01AC0160E0D0
:104BF00070E080E89FE30C94B4240C9441230C945F
:104C0000A6260E947123D8F39923C9F3940F511D4E
:104C1000A3F39150504094F059F0882332F0660F7E
:104C2000771F881F91505040C1F79E3F51052CF7C8
:104C3000880F911D9695879597F908955F3FACF081
:104C4000983E9CF0BB27869577956795B79508F4B5
:104C5000B1609395C1F7BB0F58F711F460FFE8CF2F
:104C60006F5F7F4F8F4F9F4FE3CF0C948C2319F4CE
:104C700016F40C9447230C94A6260E947123B8F3D3
:104C80009923C9F3B6F39F57550B87FF0E94B426AB
:104C90000024A0E640EA900180585695979528F4A4
:104CA000805C660F771F881F20F02617370748079C
:104CB00030F4621B730B840B202931294A2BA695F3
:104CC00017940794202531254A2758F7660F771F38
:104CD000881F20F026173707480730F4620B730B44
:104CE000840B200D311D411DA09581F7B901842F42
:104CF0009158880F9695879508959B01AC010C9467
:104D0000D422DF93D92F0E94D126E695D7952AED9C
:104D10003FE049E45FE3B33A62077307840795070E
:104D2000D7953AF0A2EA49EC90680E9430240E949C
:104D30005823E1E1F1E00E94BB26DD0F13F00E9451
:104D4000F525DD0F0BF49058DF9108959F3F31F06A
:104D5000915020F4879577956795B795880F911DA9
:104D60009695879597F9089591505040660F771F53
:104D7000881FD2F708959F938F937F936F93FF932C
:104D8000EF939B01AC010E94D422EF91FF910E940E
:104D90005C252F913F914F915F910C94D4220C94FC
:104DA00047230E947123D8F3E894E0E0BB279F5784
:104DB000F0F02AED3FE049EC06C0EE0FBB0F661F96
:104DC000771F881F28F0B23A62077307840728F01C
:104DD000B25A620B730B840BE3959A9572F7803885
:104DE00030F49A95BB0F661F771F881FD2F7904843
:104DF0000C94A8260F931F93CF93DF9382309105D5
:104E000010F482E090E0E091AE06F091AF0630E061
:104E100020E0B0E0A0E0309799F42115310509F4C5
:104E20004AC0281B390B24303105D8F58A819B8173
:104E30006115710589F1FB0193838283FE0111C025
:104E4000408151810281138148175907E0F04817CA
:104E5000590799F4109761F012960C9312971396D4
:104E60001C933296CF01DF91CF911F910F9108953E
:104E70000093AE061093AF06F4CF2115310551F023
:104E80004217530738F0A901DB019A01BD01DF0188
:104E9000F801C1CFEF01F9CF9093AF068093AE0632
:104EA000CDCFFE01E20FF31F819391932250310980
:104EB00039832883D7CF2091AC063091AD06232BC0
:104EC00041F420910302309104023093AD06209307
:104ED000AC0620910102309102022115310541F406
:104EE0002DB73EB74091050250910602241B350BA9
:104EF000E091AC06F091AD06E217F307A0F42E1B8B
:104F00003F0B2817390778F0AC014E5F5F4F24172D
:104F1000350748F04E0F5F1F5093AD064093AC0627
:104F2000819391939FCFF0E0E0E09CCFCF93DF930C
:104F30000097E9F0FC01329713821282A091AE062D
:104F4000B091AF06ED0130E020E01097A1F4208190
:104F50003181820F931F2091AC063091AD06281746
:104F6000390709F061C0F093AD06E093AC06DF911C
:104F7000CF910895EA01CE17DF07E8F54A815B81FA
:104F80009E0141155105B1F7E901FB83EA8349917F
:104F90005991C40FD51FEC17FD0761F480819181F1
:104FA0000296840F951FE9019983888382819381FA
:104FB0009B838A83F0E0E0E012968D919C91139799
:104FC0000097B9F52D913C911197CD010296820F72
:104FD000931F2091AC063091AD062817390739F69A
:104FE000309751F51092AF061092AE06B093AD0611
:104FF000A093AC06BCCFD383C28340815181840F80
:10500000951FC817D90761F44E5F5F4F888199815A
:10501000480F591F518340838A819B8193838283E8
:105020002115310509F0B0CFF093AF06E093AE063D
:105030009ECFFD01DC01C0CF13821282D7CF4F92E9
:105040005F926F927F928F929F92AF92BF92CF9218
:10505000DF92EF92FF920F931F93CF93DF938C0118
:10506000009799F4CB01DF91CF911F910F91FF90A1
:10507000EF90DF90CF90BF90AF909F908F907F90F8
:105080006F905F904F900C94FA26FC01E60FF71F8B
:105090009C0122503109E217F30708F4AEC0D90190
:1050A000CD91DC911197C617D70720F1C530D105F6
:1050B00078F0CE0104978617970750F0C61BD70BE0
:1050C0002297C193D1936D937C93CF010E94962731
:1050D000C801DF91CF911F910F91FF90EF90DF906A
:1050E000CF90BF90AF909F908F907F906F905F9088
:1050F0004F9008955B01AC1ABD0A4C018C0E9D1EA9
:10510000A091AE06B091AF06512C412CF12CE12CB0
:10511000109731F58091AC069091AD0688159905F0
:1051200009F05CC04616570608F058C0809101028D
:1051300090910202009741F48DB79EB7409105020D
:1051400050910602841B950BE817F90708F055C02B
:10515000F093AD06E093AC06F90171836083B8CF9C
:105160008D919C91119712966C90129713967C904A
:105170001397A815B90559F56C0142E0C40ED11C6E
:10518000CA14DB0420F1AC014A195B09DA0112965A
:10519000159780F06282738251834083D9016D93A9
:1051A0007C93E114F10471F0D7011396FC93EE9314
:1051B00012978ECF22968C0F9D1FF90191838083C9
:1051C000F301EFCFF093AF06E093AE0681CF481620
:1051D000590608F42C017D01D3019ACFCB010E941E
:1051E000FA267C01009749F0AE01B8010E9405291A
:1051F000C8010E94962787016BCF10E000E068CFBE
:1052000081E090E0F8940C941C29FB01DC0102C0C1
:1052100001900D9241505040D8F70895DC0101C033
:105220006D9341505040E0F70895FB01DC0101907F
:0C5230000D920020E1F70895F894FFCFE4
:10523C00010000B006800066667E7E66667E3C18C5
:10524C003C3C18C3E7E7C31E3FBFBFBF9E4C383C76
:10525C007E666666667E3CC3C3C3DBFFFFE7C3C3E3
:10526C00C7CFDFFBF3E3C3000000005A0C860BD35F
:10527C000BA70C040CE20BF60B000000003D111008
:10528C00116C113E097B0BFD10EE1000000000C1EB
:10529C0006860B6C11980DEC0C3E0967093F095BF7
:1052AC00094F096E093E09840B86040509CC088751
:1052BC00080713F207930720202020202020000D40
:0452CC000A002400B0
:00000001FF
